:020000040800F2
:10000000005000201D9E00086D9E00086D9E000897
:100010006D9E00086D9E00086D9E000800000000A7
:100020000000000000000000000000006D9E0008BD
:100030006D9E0008000000006D9E00089D3F0008B6
:100040006D9E00086D9E00086D9E0008B13F00087F
:100050006D9E00086D9E00086D9E00086D9E000854
:100060006D9E00086D9E00086D9E00086D9E000844
:100070006D9E00086D9E00086D9E0008F53D00080D
:100080006D9E00086D9E0008E93F00086D9E000807
:100090006D9E00086D9E00086D9E0008F53E0008EC
:1000A0006D9E0008153F00086D9E00086D9E0008BB
:1000B000014000086D9E00086D9E00086D9E0008BE
:1000C0006D9E00086D9E00086D9E00086D9E0008E4
:1000D0006D9E00086D9E00086D9E00086D9E0008D4
:1000E000413E00086D9E0008000000006D9E000863
:1000F0006D9E00086D9E00086D9E00086D9E0008B4
:100100006D9E00086D9E00086D9E00086D9E0008A3
:100110006D9E00086D9E00086D9E00086D9E000893
:100120006D9E00086D9E00086D9E00086D9E000883
:1001300010B5054C237833B9044B13B10448AFF321
:1001400000800123237010BDC800002000000000C3
:100150001CCF000808B5034B1BB103490348AFF39C
:10016000008008BD00000000CC0000201CCF00086B
:1001700081F0004102E000BF83F0004330B54FEA58
:1001800041044FEA430594EA050F08BF90EA020FC5
:100190001FBF54EA000C55EA020C7FEA645C7FEA58
:1001A000655C00F0E2804FEA5454D4EB5555B8BF7B
:1001B0006D420CDD2C4480EA020281EA030382EAEC
:1001C000000083EA010180EA020281EA0303362D7E
:1001D00088BF30BD11F0004F4FEA01314FF4801C51
:1001E0004CEA113102D0404261EB410113F0004F63
:1001F0004FEA03334CEA133302D0524263EB43031A
:1002000094EA050F00F0A780A4F10104D5F1200EB7
:100210000DDB02FA0EFC22FA05F2801841F1000112
:1002200003FA0EF2801843FA05F359410EE0A5F1E6
:1002300020050EF1200E012A03FA0EFC28BF4CF017
:10024000020C43FA05F3C01851EBE37101F00045CD
:1002500007D54FF0000EDCF1000C7EEB00006EEBDA
:100260000101B1F5801F1BD3B1F5001F0CD3490864
:100270005FEA30004FEA3C0C04F101044FEA4452BB
:1002800012F5800F80F09A80BCF1004F08BF5FEA42
:10029000500C50F1000041EB045141EA050130BD22
:1002A0005FEA4C0C404141EB010111F4801FA4F1C5
:1002B0000104E9D191F0000F04BF01460020B1FA1A
:1002C00081F308BF2033A3F10B03B3F120020CDA52
:1002D0000C3208DD02F1140CC2F10C0201FA0CF030
:1002E00021FA02F10CE002F11402D8BFC2F1200C95
:1002F00001FA02F120FA0CFCDCBF41EA0C0190404B
:10030000E41AA2BF01EB0451294330BD6FEA040493
:100310001F3C1CDA0C340EDC04F11404C4F120027E
:1003200020FA04F001FA02F340EA030021FA04F390
:1003300045EA030130BDC4F10C04C4F1200220FAE7
:1003400002F001FA04F340EA0300294630BD21FA25
:1003500004F0294630BD94F0000F83F4801306BFEB
:1003600081F480110134013D4EE77FEA645C18BFDF
:100370007FEA655C29D094EA050F08BF90EA020F76
:1003800005D054EA000C04BF1946104630BD91EA6E
:10039000030F1EBF0021002030BD5FEA545C05D171
:1003A0004000494128BF41F0004130BD14F58004B0
:1003B0003CBF01F5801130BD01F0004545F0FE4124
:1003C00041F470014FF0000030BD7FEA645C1ABF59
:1003D000194610467FEA655C1CBF0B46024650EA90
:1003E000013406BF52EA033591EA030F41F40021BC
:1003F00030BD00BF90F0000F04BF0021704730B542
:100400004FF4806404F132044FF000054FF0000116
:1004100050E700BF90F0000F04BF0021704730B5D7
:100420004FF4806404F1320410F0004548BF4042AC
:100430004FF000013EE700BF42004FEAE2014FEA01
:1004400031014FEA02701FBF12F07F4393F07F4FDC
:1004500081F06051704732F07F4208BF704793F0DF
:100460007F4F04BF41F40021704730B54FF46074F2
:1004700001F0004521F000411CE700BF50EA0102F5
:1004800008BF704730B54FF000050AE050EA01029E
:1004900008BF704730B511F0004502D5404261EB0E
:1004A00041014FF4806404F132045FEA915C3FF44F
:1004B000D8AE4FF003025FEADC0C18BF03325FEAEC
:1004C000DC0C18BF033202EBDC02C2F1200300FA9D
:1004D00003FC20FA02F001FA03FE40EA0E0021FAC2
:1004E00002F11444BDE600BF70B54FF0FF0C4CF4B0
:1004F000E06C1CEA11541DBF1CEA135594EA0C0F62
:1005000095EA0C0F00F0DEF82C4481EA030621EA9C
:100510004C5123EA4C5350EA013518BF52EA0335D7
:1005200041F4801143F4801338D0A0FB02CE4FF089
:100530000005E1FB02E506F00042E0FB03E54FF0B9
:100540000006E1FB03569CF0000F18BF4EF0010EB1
:10055000A4F1FF04B6F5007F64F5407404D25FEAAD
:100560004E0E6D4146EB060642EAC62141EA555160
:100570004FEAC52040EA5E504FEACE2EB4F1FD0CA2
:1005800088BFBCF5E06F1ED8BEF1004F08BF5FEA20
:10059000500E50F1000041EB045170BD06F00046D2
:1005A00046EA010140EA020081EA0301B4EB5C047F
:1005B000C2BFD4EB0C0541EA045170BD41F4801177
:1005C0004FF0000E013C00F3AB8014F1360FDEBF9C
:1005D000002001F0004170BDC4F10004203C35DA78
:1005E0000C341BDC04F11404C4F1200500FA05F3FB
:1005F00020FA04F001FA05F240EA020001F000429C
:1006000021F0004110EBD37021FA04F642EB060111
:100610005EEA430E08BF20EAD37070BDC4F10C043B
:10062000C4F1200500FA04F320FA05F001FA04F2FF
:1006300040EA020001F0004110EBD37041F10001EB
:100640005EEA430E08BF20EAD37070BDC4F12005F6
:1006500000FA05F24EEA020E20FA04F301FA05F25E
:1006600043EA020321FA04F001F0004121FA04F206
:1006700020EA020000EBD3705EEA430E08BF20EAD6
:10068000D37070BD94F0000F0FD101F00046400010
:1006900041EB010111F4801F08BF013CF7D041EA92
:1006A000060195F0000F18BF704703F00046520096
:1006B00043EB030313F4801F08BF013DF7D043EA67
:1006C0000603704794EA0C0F0CEA135518BF95EA1D
:1006D0000C0F0CD050EA410618BF52EA4306D1D1A4
:1006E00081EA030101F000414FF0000070BD50EAC3
:1006F000410606BF1046194652EA430619D094EA4D
:100700000C0F02D150EA013613D195EA0C0F05D136
:1007100052EA03361CBF104619460AD181EA03018A
:1007200001F0004141F0FE4141F470014FF0000042
:1007300070BD41F0FE4141F4780170BD70B54FF0DD
:10074000FF0C4CF4E06C1CEA11541DBF1CEA13555D
:1007500094EA0C0F95EA0C0F00F0A7F8A4EB05043F
:1007600081EA030E52EA03354FEA013100F0888036
:100770004FEA03334FF0805545EA131343EA1263FF
:100780004FEA022245EA111545EA10654FEA0026B4
:100790000EF000419D4208BF964244F1FD0404F56D
:1007A000407402D25B084FEA3202B61A65EB0305C9
:1007B0005B084FEA32024FF480104FF4002CB6EB86
:1007C000020E75EB030E22BFB61A754640EA0C0006
:1007D0005B084FEA3202B6EB020E75EB030E22BF46
:1007E000B61A754640EA5C005B084FEA3202B6EB87
:1007F000020E75EB030E22BFB61A754640EA9C0046
:100800005B084FEA3202B6EB020E75EB030E22BF15
:10081000B61A754640EADC0055EA060E18D04FEAD3
:10082000051545EA16754FEA06164FEAC30343EA73
:1008300052734FEAC2025FEA1C1CC0D111F4801F40
:100840000BD141EA00014FF000004FF0004CB6E739
:1008500011F4801F04BF01430020B4F1FD0C88BFD8
:10086000BCF5E06F3FF6AFAEB5EB030C04BFB6EBE3
:10087000020C5FEA500C50F1000041EB045170BDD6
:100880000EF0004E4EEA113114EB5C04C2BFD4EB03
:100890000C0541EA045170BD41F480114FF0000E87
:1008A000013C90E645EA060E8DE60CEA135594EA03
:1008B0000C0F08BF95EA0C0F3FF43BAF94EA0C0F06
:1008C0000AD150EA01347FF434AF95EA0C0F7FF47B
:1008D00025AF104619462CE795EA0C0F06D152EACF
:1008E00003353FF4FDAE1046194622E750EA4106B3
:1008F00018BF52EA43067FF4C5AE50EA41047FF4C4
:100900000DAF52EA43057FF4EBAE12E74FF0FF3C28
:1009100006E000BF4FF0010C02E000BF4FF0010CF9
:100920004DF804CD4FEA410C7FEA6C5C4FEA430C72
:1009300018BF7FEA6C5C1BD001B050EA410C0CBFC1
:1009400052EA430C91EA030F02BF90EA020F002023
:10095000704710F1000F91EA030F58BF994208BF8A
:1009600090422CBFD8176FEAE37040F00100704747
:100970004FEA410C7FEA6C5C02D150EA013C07D19E
:100980004FEA430C7FEA6C5CD6D152EA033CD3D0E9
:100990005DF8040B704700BF8446104662468C46E3
:1009A0001946634600E000BF01B5FFF7B7FF002816
:1009B00048BF10F1000F01BD4DF808EDFFF7F4FF3F
:1009C0000CBF012000205DF808FB00BF4DF808EDCA
:1009D000FFF7EAFF34BF012000205DF808FB00BFED
:1009E0004DF808EDFFF7E0FF94BF012000205DF80F
:1009F00008FB00BF4DF808EDFFF7CEFF94BF0120C4
:100A000000205DF808FB00BF4DF808EDFFF7C4FFBC
:100A100034BF012000205DF808FB00BF4FEA410C05
:100A20007FEA6C5C02D150EA013C0AD14FEA430CE8
:100A30007FEA6C5C02D152EA033C02D14FF0000025
:100A400070474FF0010070474FEA410212F5001263
:100A500015D211D56FF47873B3EB625212D94FEA05
:100A6000C12343F0004343EA505311F0004F23FAEF
:100A700002F018BF404270474FF00000704750EA44
:100A8000013005D111F0004008BF6FF00040704701
:100A90004FF00000704700BF4A0011D212F500125B
:100AA00011D20DD56FF47873B3EB62520ED44FEAC6
:100AB000C12343F0004343EA505323FA02F0704746
:100AC0004FF00000704750EA013002D14FF0FF3084
:100AD00070474FF0000070474FEA4102B2F1E04327
:100AE00024BFB3F5001CDCF1FE5C0DD901F0004C15
:100AF0004FEAC0024CEA5070B2F1004F40EB830065
:100B000008BF20F00100704711F0804F21D113F190
:100B10003872BCBF01F00040704741F480114FEAC9
:100B20005252C2F11802C2F1200C10FA0CF320FA52
:100B300002F018BF40F001004FEAC1234FEAD3236F
:100B400003FA0CFC40EA0C0023FA02F34FEA4303D9
:100B5000CCE77FEA625307D150EA01331EBF4FF062
:100B6000FE4040F44000704701F0004040F0FE407D
:100B700040F40000704700BF80F0004002E000BF7A
:100B800081F0004142001FBF5FEA410392EA030F78
:100B90007FEA226C7FEA236C6AD04FEA1262D2EBC2
:100BA0001363C1BFD218414048404140B8BF5B42C7
:100BB000192B88BF704710F0004F40F4000020F060
:100BC0007F4018BF404211F0004F41F4000121F076
:100BD0007F4118BF494292EA030F3FD0A2F10102C0
:100BE00041FA03FC10EB0C00C3F1200301FA03F1FE
:100BF00000F0004302D5494260EB4000B0F5000F21
:100C000013D3B0F1807F06D340084FEA310102F1DF
:100C10000102FE2A51D2B1F1004F40EBC25008BF91
:100C200020F0010040EA03007047490040EB00005B
:100C300010F4000FA2F10102EDD1B0FA80FCACF18A
:100C4000080CB2EB0C0200FA0CF0AABF00EBC25089
:100C500052421843BCBFD0401843704792F0000F77
:100C600081F4000106BF80F400000132013BB5E7CA
:100C70004FEA41037FEA226C18BF7FEA236C21D040
:100C800092EA030F04D092F0000F08BF08467047A5
:100C900090EA010F1CBF0020704712F07F4F04D173
:100CA000400028BF40F00040704712F100723CBF86
:100CB00000F50000704700F0004343F0FE4040F4B0
:100CC000000070477FEA226216BF08467FEA23636E
:100CD0000146420206BF5FEA412390EA010F40F459
:100CE000800070474FF0000304E000BF10F00043A5
:100CF00048BF40425FEA000C08BF704743F096438C
:100D000001464FF000001CE050EA010208BF7047A6
:100D10004FF000030AE000BF50EA010208BF70472D
:100D200011F0004302D5404261EB41015FEA010C42
:100D300002BF84460146002043F0B64308BFA3F13A
:100D40008053A3F50003BCFA8CF2083AA3EBC2531C
:100D500010DB01FA02FC634400FA02FCC2F120023B
:100D6000BCF1004F20FA02F243EB020008BF20F072
:100D70000100704702F1200201FA02FCC2F12002D8
:100D800050EA4C0021FA02F243EB020008BF20EACD
:100D9000DC7070474FF0FF0C1CEAD0521EBF1CEAFB
:100DA000D15392EA0C0F93EA0C0F6FD01A4480EAE9
:100DB000010C400218BF5FEA41211ED04FF00063D2
:100DC00043EA501043EA5111A0FB01310CF00040FE
:100DD000B1F5000F3EBF490041EAD3715B0040EA24
:100DE000010062F17F02FD2A1DD8B3F1004F40EBF4
:100DF000C25008BF20F00100704790F0000F0CF0C7
:100E0000004C08BF49024CEA502040EA51207F3A8A
:100E1000C2BFD2F1FF0340EAC250704740F4000065
:100E20004FF00003013A5DDC12F1190FDCBF00F056
:100E300000407047C2F10002410021FA02F1C2F104
:100E4000200200FA02FC5FEA310040F1000053EAA0
:100E50004C0308BF20EADC70704792F0000F00F0EE
:100E6000004C02BF400010F4000F013AF9D040EAF4
:100E70000C0093F0000F01F0004C02BF490011F488
:100E8000000F013BF9D041EA0C018FE70CEAD15386
:100E900092EA0C0F18BF93EA0C0F0AD030F0004C06
:100EA00018BF31F0004CD8D180EA010000F00040BA
:100EB000704790F0000F17BF90F0004F084691F078
:100EC000000F91F0004F14D092EA0C0F01D14202B2
:100ED0000FD193EA0C0F03D14B0218BF084608D17B
:100EE00080EA010000F0004040F0FE4040F40000C5
:100EF000704740F0FE4040F4400070474FF0FF0C58
:100F00001CEAD0521EBF1CEAD15392EA0C0F93EA9E
:100F10000C0F69D0A2EB030280EA010C49024FEAF0
:100F2000402037D04FF0805343EA111143EA1013A9
:100F30000CF000408B4238BF5B0042F17D024FF461
:100F4000000C8B4224BF5B1A40EA0C00B3EB510F3C
:100F500024BFA3EB510340EA5C00B3EB910F24BF25
:100F6000A3EB910340EA9C00B3EBD10F24BFA3EBAA
:100F7000D10340EADC001B0118BF5FEA1C1CE0D172
:100F8000FD2A3FF650AF8B4240EBC25008BF20F025
:100F9000010070470CF0004C4CEA50207F32C2BF79
:100FA000D2F1FF0340EAC250704740F400004FF016
:100FB0000003013A37E792F0000F00F0004C02BF47
:100FC000400010F4000F013AF9D040EA0C0093F011
:100FD000000F01F0004C02BF490011F4000F013B6B
:100FE000F9D041EA0C0195E70CEAD15392EA0C0FD3
:100FF00008D142027FF47DAF93EA0C0F7FF470AF0B
:10100000084676E793EA0C0F04D14B023FF44CAF4D
:1010100008466EE730F0004C18BF31F0004CCAD1E2
:1010200030F000427FF45CAF31F000437FF43CAF1E
:101030005FE700BF4FF0FF3C06E000BF4FF0010C40
:1010400002E000BF4FF0010C4DF804CD4FEA400222
:101050004FEA41037FEA226C18BF7FEA236C11D06C
:1010600001B052EA530C18BF90EA010F58BFB2EB1F
:10107000030088BFC81738BF6FEAE17018BF40F09F
:10108000010070477FEA226C02D15FEA402C05D153
:101090007FEA236CE4D15FEA412CE1D05DF8040BD8
:1010A000704700BF844608466146FFE70FB5FFF76B
:1010B000C9FF002848BF10F1000F0FBD4DF808ED23
:1010C000FFF7F4FF0CBF012000205DF808FB00BF14
:1010D0004DF808EDFFF7EAFF34BF012000205DF86E
:1010E00008FB00BF4DF808EDFFF7E0FF94BF0120BB
:1010F00000205DF808FB00BF4DF808EDFFF7D2FFB8
:1011000094BF012000205DF808FB00BF4DF808EDFA
:10111000FFF7C8FF34BF012000205DF808FB00BFC7
:101120004FEA4002B2F1FE4F0FD34FF09E03B3EBF4
:1011300012620DD94FEA002343F0004310F0004F34
:1011400023FA02F018BF404270474FF0000070478A
:1011500012F1610F01D1420205D110F0004008BF29
:101160006FF0004070474FF00000704742000ED211
:10117000B2F1FE4F0BD34FF09E03B3EB126209D4D2
:101180004FEA002343F0004323FA02F070474FF088
:101190000000704712F1610F01D1420202D14FF0FD
:1011A000FF3070474FF00000704700BF80B500AFC0
:1011B000154B1B68144A43F001031360124B5A6825
:1011C0001149124B13404B600F4B1B680E4A23F022
:1011D000847323F4803313600B4B1B680A4A23F497
:1011E00080231360084B5B68074A23F4FE035360B7
:1011F000054B4FF41F029A6000F00CF8044B4FF0BF
:1012000000629A6000BF80BD001002400000FFF83D
:1012100000ED00E080B500AF00F002F800BF80BD37
:1012200080B483B000AF00237B6000233B60394B68
:101230001B68384A43F480331360364B1B6803F451
:1012400000333B607B6801337B603B68002B03D13C
:101250007B68B3F5A06FF0D12E4B1B6803F400330D
:10126000002B02D001233B6001E000233B603B6880
:10127000012B49D1284B1B68274A43F01003136008
:10128000254B1B68244A23F003031360224B224A98
:101290001B6813601F4B5B681E4A43F0A00353603A
:1012A0001C4B1C4A5B6853601A4B1A4A5B685360BC
:1012B000184B5B68174A23F47C135360154B5B682B
:1012C000144A43F498135360124B1B68114A43F0BD
:1012D0008073136000BF0F4B1B6803F00073002B7B
:1012E000F9D00C4B5B680B4A23F003035360094BA6
:1012F0005B68084A43F00203536000BF054B5B681C
:1013000003F00C03082BF9D100BF0C37BD4680BC9D
:10131000704700BF001002400020024080B483B03C
:1013200000AF0346FB71FB7903F01F03012202FAB1
:1013300003F1054A97F907305B0942F8231000BF13
:101340000C37BD4680BC704700E100E080B500AFBF
:10135000264B5B68254A23F440435360234B9B692B
:10136000224A43F400739361214B1B69204A43F0E6
:10137000020313611E4BDB6A1D4A23F47003D36220
:101380001B4B5B6B1A4A23F01F035363184B9B687C
:10139000174A43F480139360154B9B68144A43F437
:1013A00060239360124B9B68114A43F001039360E2
:1013B00042F2107007F07CF90D4B9B680C4A43F029
:1013C0000403936000BF0A4B9B6803F00403002BE7
:1013D000F9D1074B5B68064A43F0200353601220A3
:1013E000FFF79CFF00F006F800BF80BD0010024030
:1013F0000024014080B400AF034B00221A6000BFFC
:10140000BD4680BC704700BF2403424280B400AF99
:10141000034B01221A6000BFBD4680BC704700BF6D
:101420002403424280B500AF00F0ECFCFFF7EEFF72
:101430000A2007F03DF9044B9B68034A43F48003FC
:10144000936000BF80BD00BF002401400000000089
:1014500080B500AF00F0E2FC3F4BDB6C1846FFF7B5
:1014600041FC02463D4B19461046FFF793FC0346EC
:101470004FF08B411846FFF741FD034619461846C9
:10148000FFF780FB03461A46354B1A60FFF7B2FFA1
:10149000334B1B681846FEF7CFFF27A3D3E9002381
:1014A000FFF7B2FA0346002B04D00421012001F01B
:1014B0000BFA3BE02A4B1B681846FEF7BDFF20A342
:1014C000D3E90023FFF7A0FA0346002B04D0032141
:1014D000012001F0F9F929E0214B1B681846FEF7BD
:1014E000ABFF19A3D3E90023FFF78EFA0346002BC5
:1014F00004D00221012001F0E7F917E0184B1B6826
:101500001846FEF799FF12A3D3E90023FFF77CFAF0
:101510000346002B04D00121012001F0D5F905E09C
:101520000021012001F0D0F9012300E0002318463A
:1015300080BD00BFAFF300803333333333330F400C
:10154000CDCCCCCCCCCC0C406666666666660A40D8
:10155000CDCCCCCCCCCC084000240140333353401C
:101560002801002080B500AF084B1B780133DAB2A8
:10157000064B1A70054B1B78092B04D9034B00222C
:101580001A70FFF74FFF00BF80BD00BFE4000020CE
:1015900080B400AF024B1B681846BD4680BC704744
:1015A0002801002080B483B000AF554B9B68554A9A
:1015B0001360544B1B6803F03E03524A1360514BB7
:1015C0001B685B084F4A13600023FB7120E04D4B02
:1015D0001A68FB7922FA03F303F00103002B0AD007
:1015E000FA79FB794849895C484AD154FB79464AE3
:1015F0000121D15409E0FA79FB794349895C434AD6
:10160000D154FB79404A0021D154FB790133FB715D
:10161000FB79042BDBD90023BB7167E0BB793A4A25
:10162000D35C002B23D1BB79394A32F813304FF603
:10163000FF7293421BD0BB79354A32F81320013236
:1016400091B2334A22F81310BA79BB793149895CD7
:10165000314AD154BB792E4A32F813304B2B8CBF10
:1016600001230023DAB2BB7911462A4AD154BB794F
:10167000254AD35C012B26D1BB79244AD35C002BAD
:1016800021D1BB79224A32F81330BB80BB79204A82
:10169000002122F81310BB791E4AD35C002B0CBF2B
:1016A00001230023DAB2BB88042B8CBF0123002363
:1016B000DBB21340DBB2002B05D0BB795B00DBB2A1
:1016C0000133DBB216E0BB79124AD35C012B0AD19D
:1016D000BB79114AD35C002B05D1BB790133DBB256
:1016E0005B00DBB206E0BB790133BB71BB79042B35
:1016F00094D9002318460C37BD4680BC704700BF04
:1017000000080140E8000020000000200800002040
:10171000EC000020F80000200001002080B483B01D
:1017200000AF0346FB71FB7903F01F03012202FAAD
:1017300003F1054A97F907305B0942F8231000BF0F
:101740000C37BD4680BC704700E100E080B500AFBB
:10175000984B9B69974A43F004039361964B1B682F
:10176000954A23F003031360934B1B68924A23F0BE
:101770000C031360904B1B688F4A23F030031360F7
:101780008D4B1B688C4A23F0400313608A4B1B6807
:10179000894A43F080031360874BDB68864A43F035
:1017A0000203D360844B1B68834A23F440731360A5
:1017B000814B1B68804A23F4806313607E4B1B6857
:1017C0007D4A43F4006313607B4BDB687A4A43F045
:1017D0000403D360784B1B68774A23F440531360AB
:1017E000754B1B68744A23F480431360724B1B686B
:1017F000714A43F4004313606F4BDB686E4A43F059
:101800000803D3606C4B1B686B4A23F440331360AE
:10181000694B1B68684A23F480231360664B1B687E
:10182000654A43F400231360634BDB68624A43F06C
:101830001003D360604B1B685F4A23F440131360AE
:101840005D4B1B685C4A23F4800313605A4B1B6892
:10185000594A43F400031360574BDB68564A43F080
:101860002003D360544B1B68534A23F080731360EA
:10187000514B1B68504A43F0007313604E4B1B687A
:101880004D4A23F0406313604B4B1B684A4A23F0D8
:1018900080531360484B1B68474A43F00053136062
:1018A000454B1B68444A23F080431360424B1B683E
:1018B000414A43F0004313603F4B5B683E4A23F0CC
:1018C000010353603C4B5B683B4A43F002035360A7
:1018D000394B5B68384A23F00C035360364B5B6826
:1018E000354A23F010035360334B5B68324A43F0B0
:1018F00020035360304B5B682F4A23F04003536052
:101900002D4B5B682C4A43F0800353602A4B5B6885
:10191000294A23F440735360274B5B68264A43F4FB
:1019200080635360244B5B68234A23F40063536055
:10193000214B5B68204A23F4405353601E4B5B6885
:101940001D4A23F4804353601B4B5B681A4A43F4DF
:1019500000435360184BDB68174A23F40063D360DD
:10196000154B5B68144A23F440535360124B5B6879
:10197000114A23F4804353600F4B5B680E4A43F4D3
:10198000004353600C4BDB680B4A23F40063D360C5
:10199000094B5B68084A23F080535360064B5B6831
:1019A000054A43F000535360034B5B68024A23F03F
:1019B000404303E000100240000801405360954B93
:1019C0009B69944A43F008039361934B1B68924AC6
:1019D00023F001031360904B1B688F4A43F002030E
:1019E00013608D4B1B688C4A23F00C0313608A4BE9
:1019F0001B68894A23F010031360874B1B68864AD3
:101A000043F020031360844B1B68834A23F0C00318
:101A10001360814B1B68804A23F4805313607E4B14
:101A20001B687D4A43F4005313607B4B1B687A4A62
:101A300023F480431360784B1B68774A43F40043D8
:101A40001360754B1B68744A23F440331360724B68
:101A50001B68714A43F4802313606F4B1B686E4A06
:101A600023F4002313606C4B1B686B4A23F4801330
:101A70001360694B1B68684A43F400131360664B9C
:101A80001B68654A23F480031360634B1B68624A3A
:101A900043F400031360604B1B685F4A23F04073FC
:101AA00013605D4B1B685C4A23F0806313605A4BE4
:101AB0001B68594A43F000631360574BDB68564A72
:101AC00043F04003D360544B1B68534A23F08053C8
:101AD0001360514B1B68504A43F0005313604E4B48
:101AE0001B684D4A23F0404313604B4B5B684A4AE6
:101AF00023F480735360484B5B68474A43F4007398
:101B00005360454B5B68444A43F440635360424B27
:101B10005B68414A23F4805353603F4B5B683E4A05
:101B200043F4005353603C4B5B683B4A43F44043EF
:101B30005360394B5B68384A23F480335360364B2B
:101B40005B68354A43F400335360334B5B68324A79
:101B500023F440235360304B5B682F4A23F48013F7
:101B600053602D4B5B682C4A43F4001353602A4B9F
:101B70005B68294A23F480035360274B5B68264A3D
:101B800043F400035360244B5B68234A23F08073C3
:101B90005360214B5B68204A43F0007353601E4B37
:101BA0005B681D4A23F0406353601B4B5B681A4A15
:101BB00023F080535360184B5B68174A43F000537F
:101BC0005360154B5B68144A23F080435360124BFB
:101BD0005B68114A43F0004353600E4B9B690D4A0A
:101BE00043F0100393610D4B5B680C4A23F48013A0
:101BF00053600A4B5B68094A43F400135360074B78
:101C00005B68064A23F44003536000F077F800BF96
:101C100080BD00BF00100240000C014000100140D8
:101C200080B500AF194B9B69184A43F001039361DB
:101C3000174B174A1B691361164B9B68154A43F4EF
:101C400000639360134B1B68124A43F400631360F4
:101C50002820FFF763FD0E4BDB680D4A43F48073C9
:101C6000D3600C4BDB680B4A43F04003D360094B55
:101C70001B68084A43F0400313601720FFF74EFD2E
:101C8000044B054A5A6100BF80BD00BF00100240EE
:101C90000000014000040140FFFF070080B400AFD6
:101CA000034B01221A6100BFBD4680BC704700BFD4
:101CB000000C014080B400AF034B4FF480321A6136
:101CC00000BFBD4680BC7047000C014080B400AF2F
:101CD000034B02221A6100BFBD4680BC704700BFA3
:101CE000000C014080B400AF034B4FF400321A6186
:101CF00000BFBD4680BC7047000C014080B400AFFF
:101D0000034B4FF400521A6100BFBD4680BC7047C0
:101D10000010014080B400AF034B80221A6100BF65
:101D2000BD4680BC704700BF000C014080B400AFCE
:101D3000034B4FF400021A6100BFBD4680BC7047E0
:101D4000000C014080B400AF034B4FF000421A6119
:101D500000BFBD4680BC70470008014080B400AFA2
:101D6000034B4FF400421A6100BFBD4680BC704770
:101D70000008014080B400AF034B4FF080721A613D
:101D800000BFBD4680BC70470008014080B400AF72
:101D9000034B4FF480721A6100BFBD4680BC704790
:101DA0000008014080B400AF034B4FF480421A6139
:101DB00000BFBD4680BC7047000C014080B400AF3E
:101DC000034B4FF080421A6100BFBD4680BC704794
:101DD000000C014080B400AF034B4FF080521A61F9
:101DE00000BFBD4680BC7047000C014080B400AF0E
:101DF000034B4FF480521A6100BFBD4680BC704750
:101E0000000C014080B400AF034B40221A6100BFB8
:101E1000BD4680BC704700BF0008014080B400AFE1
:101E2000034B4FF480021A6100BFBD4680BC70476F
:101E30000008014080B500AF6C220021114808F075
:101E400046F800F0C3F90346002B17D000F098FACB
:101E50000346002B12D000F009FB0346002B0DD0E7
:101E600000F07AFB0346002B08D0402200210648F0
:101E700008F02DF800F00AF8012300E000231846CE
:101E800080BD00BF880500203801002098B500AF54
:101E90008B4B1A788B4B1A70894B5A78894B5A7036
:101EA000884B00229A70874806F0B2FD0346DAB2EA
:101EB000854B1A70824B9A78824B1A70804BDA7875
:101EC000804B5A707F4B00229A707E4806F0A0FD2E
:101ED0000346DAB27C4B5A70794B1A79794B1A70F7
:101EE000774B5A79774B5A70764B00229A70754827
:101EF00006F08EFD0346DAB2734B9A70704B1A7B74
:101F0000704B1A706E4B5A7B6E4B5A706D4B0022A1
:101F10009A706C4806F07CFD0346DAB26A4BDA70C0
:101F2000674B9A7B674B1A70654BDA7B654B5A702F
:101F3000644B00229A70634806F06AFD0346DAB2E9
:101F4000614B1A715E4B1A7C5E4B1A705C4B5A7C6B
:101F50005C4B5A705B4B00229A705A4806F058FD51
:101F60000346DAB2584B5A71554B5A7D554B1A708D
:101F7000534B9A7D534B5A70524B00229A705148E2
:101F800006F046FD0346DAB2504B1A70504806F090
:101F90009FFB02464F4B1A604E4B1B684E4918463A
:101FA000FEF7ACFF03461A464A4B1A60474B1B78B4
:101FB0001846FEF79BFE0246464B1B681946104624
:101FC000FEF7E0FD03461A46424B1A603C4B93F87D
:101FD0002130532B10D13F4B1B681846FEF72CFACB
:101FE00003460C4618462146FEF776FD034683F06D
:101FF0000043354A936003E0364B1B68324A9360D6
:10200000314B9B681846FEF717FA344B18CB1A462B
:102010002346FEF769FA03460C462B4AC2E904340C
:10202000274B93F82520274B1A70254B93F8262031
:10203000244B5A70224B93F82720224B9A70214B45
:102040000022DA701F4806F0E3FC0346DAB21F4BA9
:102050001A70234806F03CFB02461E4B1A601D4BCB
:102060001B681D491846FEF749FF03461A46194BDF
:102070001A60164B1B781846FEF738FE0246154BC1
:102080001B6819461046FEF77DFD03461A46114BA4
:102090001A600B4B93F83230572B23D10D4B1B6832
:1020A0001846FEF7C9F903460C4618462146FEF7C6
:1020B00013FD034683F00043034A936116E000BF1B
:1020C000880500207801002038010020F405002058
:1020D0009F0500203001002000007042A8D40008B5
:1020E000B00500202D4B1B682D4A93612C4B9B693A
:1020F0001846FEF7A1F92B4B18CB1A462346FEF7DC
:10210000F3F903460C46264AC2E90834264806F08D
:10211000DFFA0246254B19461046FEF73BFE034602
:102120001A461F4B9A62224806F0D2FA02461C4B0E
:10213000DA62204806F0CCFA0246194B1A631E48B0
:1021400006F066FC0346DAB2154B83F834201B48D0
:1021500006F05EFC0346DAB2114B83F83520184BCB
:1021600093F84830412B04D10D4B012283F83620DF
:1021700003E00B4B002283F83620124806F048FC9F
:102180000346DAB2064B83F837200F4806F0A0FA70
:102190000246034B9A6300BF98BD00BF3001002088
:1021A00038010020A8D40008BE050020560EED3FDF
:1021B000C8050020D4050020DE050020E30500202E
:1021C00088050020E8050020EC05002080B582B0DD
:1021D00000AF0023FB710023BB710023BB8002E032
:1021E000BB880133BB80BB88634AD35C242B11D1ED
:1021F000BB880333604AD35C522B0BD1BB880433BA
:102200005D4AD35C4D2B05D1BB8805335A4AD35C5C
:10221000432B03D0BB88B3F5806FE1D3BB8818464E
:1022200000F002FA0346002B01D10023A0E0BB8896
:1022300006337B8096E07B884F4AD35C2A2B01D102
:10224000012395E07B884C4AD35C2C2B05D1FB798C
:102250000133FB710023BB7181E0FB79013B082B4B
:102260007CD801A252F823F08D220008A122000898
:10227000B9220008CF220008E7220008FF22000848
:10228000172300082F230008472300087A88BB790A
:10229000591CB9711946384B9A5C384B5A545EE058
:1022A0007A88BB79591CB9711946334B9A5C334B08
:1022B0000B4483F8482052E07A88BB79591CB971E5
:1022C00019462D4B9A5C2D4B0B445A7547E07A8882
:1022D000BB79591CB9711946274B9A5C274B0B44A3
:1022E00083F821203BE07A88BB79591CB9711946E3
:1022F000214B9A5C214B0B4483F825202FE07A88F0
:10230000BB79591CB97119461B4B9A5C1B4B0B448A
:1023100083F8322023E07A88BB79591CB9711946B9
:10232000154B9A5C154B0B4483F8362017E07A88DE
:10233000BB79591CB97119460F4B9A5C0F4B0B4472
:1023400083F840200BE07A88BB79591CB971194693
:10235000094B9A5C094B0B441A7300E000BF7B8861
:1023600001337B807B88B3F5806FFFF464AF01237A
:1023700018460837BD4680BD88010020880500202A
:1023800080B582B000AF0023FB710023BB71002336
:10239000BB8002E0BB880133BB80BB88314AD35C81
:1023A000242B11D1BB8803332E4AD35C472B0BD18E
:1023B000BB8804332B4AD35C472B05D1BB8805333C
:1023C000284AD35C412B03D0BB88B3F5806FE1D39F
:1023D000BB88184600F028F90346002B01D10023E2
:1023E0003BE0BB8806337B8032E07B881D4AD35CB0
:1023F0002A2B01D1012330E07B881A4AD35C2C2B95
:1024000005D1FB790133FB710023BB711DE0FB7922
:10241000072B02D0092B0CD017E07A88BB79591C06
:10242000B97119460F4B9A5C0F4B0B4483F85B2034
:102430000BE07A88BB79591CB9711946094B9A5C33
:10244000094B0B4483F84C2000BF7B8801337B8011
:102450007B88B3F5806FC8D3012318460837BD4683
:1024600080BD00BF880100208805002080B582B0B3
:1024700000AF0023FB710023BB710023BB8002E08F
:10248000BB880133BB80BB88314AD35C242B11D17C
:10249000BB8803332E4AD35C472B0BD1BB88043354
:1024A0002B4AD35C532B05D1BB880533284AD35C18
:1024B000412B03D0BB88B3F5806FE1D3BB881846AE
:1024C00000F0B2F80346002B01D100233BE0BB88AB
:1024D00006337B8032E07B881D4AD35C2A2B01D1F6
:1024E000012330E07B881A4AD35C2C2B05D1FB7981
:1024F0000133FB710023BB711DE0FB79022B02D07D
:102500000F2B0CD017E07A88BB79591CB97119468A
:102510000F4B9A5C0F4B0B4483F860200BE07A88DA
:10252000BB79591CB9711946094B9A5C094B0B448C
:1025300083F8642000BF7B8801337B807B88B3F500
:10254000806FC8D3012318460837BD4680BD00BF41
:10255000880100208805002080B582B000AF0023EC
:10256000FB710023BB710023BB8002E0BB880133F9
:10257000BB80BB882A4AD35C242B11D1BB88033390
:10258000274AD35C472B0BD1BB880433244AD35C46
:10259000532B05D1BB880533214AD35C562B03D07E
:1025A000BB88B3F5806FE1D3BB88184600F03CF8D8
:1025B0000346002B01D100232DE0BB8806337B802E
:1025C00024E07B88164AD35C2A2B01D1012322E028
:1025D0007B88134AD35C2C2B05D1FB790133FB712B
:1025E0000023BB710FE0FB79032B00D00BE07A884E
:1025F000BB79591CB9711946094B9A5C094B0B44BC
:1026000083F8562000BF7B8801337B807B88B3F53D
:10261000806FD6D3012318460837BD4680BD00BF62
:10262000880100208805002080B485B000AF0346F3
:10263000FB800023FB730023BB73FB880133FB800B
:102640000EE0FB88274AD25CFB7B5340FB73FB8880
:102650000133FB80FB88B3F5806F01D300233BE09F
:10266000FB88204AD35C2A2BEBD1FB880133FB800B
:10267000FB881C4AD35C402B07D9FB88194AD35CE2
:10268000373BDBB21B01BB7306E0FB88154AD35C0A
:10269000303BDBB21B01BB73FB880133FB80FB8843
:1026A000104AD35C402B08D9FB880E4AD25CBB7B16
:1026B0001344DBB2373BBB7307E0FB88094AD25CAB
:1026C000BB7B1344DBB2303BBB73BA7BFB7B9A42D0
:1026D00001D1012300E0002318461437BD4680BC19
:1026E000704700BF8801002080B400AF034B93F80F
:1026F00036301846BD4680BC704700BF3801002008
:1027000080B400AF024B1846BD4680BC704700BF86
:102710008801002080B400AF024B1846BD4680BC43
:10272000704700BF8805002080B400AF024B1846F8
:10273000BD4680BC704700BF3801002080B500AFA7
:10274000184BDB69174A43F48003D361164B9B880F
:102750009BB2154A23F03F039BB29380124B9B8898
:102760009BB2114A43F002039BB293800E4B9B8BAA
:102770009BB20D4A43F00F039BB293830A4B1B8C11
:102780009BB2094A43F004039BB21384064B1B8897
:102790009BB2054A43F001039BB2138000F006F898
:1027A00000BF80BD001002400058004080B400AF60
:1027B000034B00221A6000BFBD4680BC704700BFBB
:1027C000D803424280B400AF034B01221A6000BF1D
:1027D000BD4680BC704700BFD803424280B582B07E
:1027E00000AF0123FB7117E0FA7913469B001344F5
:1027F0009B002D4A134414220021184607F067FB62
:10280000FB79DB00294A134408220021184607F00F
:102810005EFBFB790133FB71FB79062BE4D906F0F3
:10282000CFF90246224B1A60FFF77EFF0246214B8A
:102830001A6006F051FC02461F4B1A6006F056FC67
:1028400002461E4B1A601A4B1B681A781C4B1A70F2
:102850001B4B1B7819461B4A0B465B000B44DB00E5
:10286000134401221A70124B1B68154A1278114644
:1028700058780D4A0B469B000B449B0013440246BC
:102880001A700B4B1B680E4A127811469878064A4C
:102890000B469B000B449B001344013302461A7005
:1028A00000BF0837BD4680BD40070020000700205C
:1028B0001C060020140600203C07002018060020FB
:1028C000380700202006002080B485B000AF034602
:1028D0000A46FB711346BB71FB79013B032B1FD8E2
:1028E00001A252F823F000BFF928000803290008CC
:1028F0000D290008172900080723FB730023BB7369
:102900000EE00823FB730323BB7309E01023FB7362
:102910000423BB7304E02023FB730523BB7300BFB8
:10292000264B1B781946264A0B469B000B449B00FE
:10293000134402331B785AB297F90F30DB435BB272
:1029400013405AB21D4B1B781946D0B21C4A0B4695
:102950009B000B449B001344023302461A70FA7B1F
:10296000BB7B42FA03F35AB297F9063013405BB2CD
:10297000BB71124B1B781946114A0B469B000B4446
:102980009B00134402331B785AB2B979BB7B01FA1E
:1029900003F35BB213435AB2084B1B781946D0B20B
:1029A000074A0B469B000B449B001344023302462C
:1029B0001A7000BF1437BD4680BC7047380700202E
:1029C0004007002080B485B000AF03460A46FB7183
:1029D0001346BB71BB79013B032B1FD801A252F8F0
:1029E00023F000BFF5290008FF290008092A000884
:1029F000132A00080723FB730023BB730EE0082390
:102A0000FB730323BB7309E01023FB730423BB7325
:102A100004E02023FB730523BB7300BFFA790A4946
:102A200013469B0013449B000B4402331A78FB7B34
:102A30001340DBB21A46BB7B42FA03F3DBB2184603
:102A40001437BD4680BC70474007002080B582B077
:102A500000AF0023FB710123BB710CE0BB790421A3
:102A60001846FFF7AFFF0346012B01D10123FB718D
:102A7000BB790133BB71BB79062BEFD9FB79012BF5
:102A800003D1FFF70BF9012302E0FFF713F900234D
:102A900018460837BD4680BD80B485B000AF786069
:102AA0000123FB7320E0FA7B134913465B001344B8
:102AB000DB000B441B78012B13D1FA7B0E49134624
:102AC0005B001344DB000B4404331B68FA7B79681A
:102AD000C91A094813465B001344DB00034408335A
:102AE0001960FB7B0133FB73FB7B062BDBD900BF3B
:102AF0001437BD4680BC70472006002080B483B0E8
:102B000000AF0023FB71244B1B68DB88002B38D0FF
:102B10000123BB7132E0BA79204913465B001344AC
:102B2000DB000B440E331B78002B24D1BA791B49F0
:102B300013465B001344DB000B4408331B68164A42
:102B40001268D28893420CD9BA79144913465B00B3
:102B50001344DB000B440C3301221A700123FB7178
:102B600009E0BA790D4913465B001344DB000B44BE
:102B70000C3300221A70BB790133BB71BB79062B71
:102B8000C9D9FB79012B01D1012300E000231846AC
:102B90000C37BD4680BC70471C0600202006002074
:102BA00080B483B000AF0023FB71214B1B681B89ED
:102BB000002B32D00123BB712CE0BA791D4913469A
:102BC0005B001344DB000B441B78002B1FD0BB7948
:102BD000194A52F83330164A1268128993420CD9B6
:102BE000BA79144913465B001344DB000B440D33E0
:102BF00001221A700123FB7109E0BA790D491346CD
:102C00005B001344DB000B440D3300221A70BB79C8
:102C10000133BB71BB79062BCFD9FB79012B01D1D5
:102C2000012300E0002318460C37BD4680BC7047E6
:102C30001C060020200600200007002080B582B07E
:102C400000AF0123FB7110E0FA790B4913465B00DA
:102C50001344DB000B441B78012B03D1FB7918468E
:102C600000F0A6FAFB790133FB71FB79062BEBD957
:102C700000BF0837BD4680BD2006002090B583B058
:102C800000AF7860444B1B781946444A0B465B0002
:102C90000B44DB00134404337A681A60404B1B6812
:102CA00093F83730032B04D101210220FFF70CFEEB
:102CB00003E000210220FFF707FE394B1B689B6BE6
:102CC00038491846FEF70EFA0346002B04D00121BE
:102CD0000320FFF7F9FD03E000210320FFF7F4FDD7
:102CE0002F4B1B682C4A127810469A682E490346CF
:102CF0009B0003449B000B4404331A60284B1B6861
:102D0000254A127810469A69274903469B000344D6
:102D10009B000B4408331A60214B1B681A6B1E4B37
:102D20001B781C461046FEF7FBF9034619B21E4AF3
:102D300023469B0023449B0013440C330A461A800D
:102D4000174B1B689A6A144B1B781C461046FEF7FB
:102D50000DFA0346D9B2144A23469B0023449B0034
:102D600013440E330A461A700D4B1B68DA6A0A4B7D
:102D70001B781C461046FEF7F9F9034699B20A4A39
:102D800023469B0023449B00134410330A461A80B9
:102D900000BF0C37BD4690BD38070020200600203C
:102DA000140600200000C0404007002080B400AF9F
:102DB000804B1B68804A12781A707F4B1B7818462C
:102DC0007C4B1B685A1C7D4903469B0003449B00B7
:102DD0000B441B781370784B1B781846754B1B6897
:102DE0009A1C764903469B0003449B000B44013325
:102DF0001B781370704B1B7818466E4B1B68DA1CDF
:102E00006E4903469B0003449B000B4402331B782E
:102E10001370694B1B781846664B1B681A1D67496F
:102E200003469B0003449B000B4404331B78137040
:102E3000614B1B7818465F4B1B685A1D5F49034660
:102E40009B0003449B000B4405331B7813705A4BC3
:102E50001B781846574B1B689A1D584903469B0020
:102E600003449B000B4406331B781370524B1B78B2
:102E70001846504B1B68DA1D504903469B0003441B
:102E80009B000B4407331B7813704B4B1B78184681
:102E9000484B1B6803F10802484903469B00034462
:102EA0009B000B4408331B781370434B1B78184668
:102EB000404B1B6803F10902404903469B00034451
:102EC0009B000B4409331B7813703B4B1B7818464F
:102ED000384B1B6803F10A02384903469B00034440
:102EE0009B000B440A331B781370334B1B78184636
:102EF000304B1B6803F10B02304903469B0003442F
:102F00009B000B440B331B7813702B4B1B7818461C
:102F1000284B1B6803F10C02284903469B0003441D
:102F20009B000B440C331B781370234B1B78184603
:102F3000204B1B6803F10D02204903469B0003440C
:102F40009B000B440D331B7813701B4B1B781846EA
:102F5000184B1B6803F10E02184903469B000344FB
:102F60009B000B440E331B781370134B1B781846D1
:102F7000104B1B6803F10F02104903469B000344EA
:102F80009B000B4410331B7813700B4B1B781846B7
:102F9000084B1B6803F11002084903469B000344D9
:102FA0009B000B4411331B78137000BFBD4680BCDF
:102FB000704700BF3C070020380700204007002072
:102FC00080B485B000AF7860764B1B681B78FB73CC
:102FD000FA7B754913465B001344DB000B44012266
:102FE0001A70FA7B704913465B001344DB000B44F4
:102FF00004337A681A606B4B1B680133FA7B1878CC
:103000006A4913469B0013449B000B4402461A7006
:10301000644B1B680233FA7B1878644913469B00A3
:1030200013449B000B44013302461A705D4B1B682E
:10303000FA7BD8785D4913469B0013449B000B44F0
:10304000023302461A70574B1B68FA7B18795749AE
:1030500013469B0013449B000B44043302461A7032
:10306000504B1B68FA7B5879504913469B00134418
:103070009B000B44053302461A704A4B1B68FA7BCF
:1030800098794A4913469B0013449B000B4406332E
:1030900002461A70434B1B68FA7BD87943491346A2
:1030A0009B0013449B000B44073302461A703D4BB0
:1030B0001B68FA7B187A3D4913469B0013449B001A
:1030C0000B44083302461A70364B1B68FA7B587A59
:1030D000364913469B0013449B000B4409330246B8
:1030E0001A70304B1B68FA7B987A304913469B0064
:1030F00013449B000B440A3302461A70294B1B6889
:10310000FA7BD87A294913469B0013449B000B4451
:103110000B3302461A70234B1B68FA7B187B23493A
:1031200013469B0013449B000B440C3302461A7059
:103130001C4B1B68FA7B587B1C4913469B001344AD
:103140009B000B440D3302461A70164B1B68FA7B2A
:10315000987B164913469B0013449B000B440E3387
:1031600002461A700F4B1B68FA7BD87B0F49134637
:103170009B0013449B000B44103302461A70094B0A
:103180001B68FA7B187C094913469B0013449B007B
:103190000B44113302461A70FB7B18461437BD46A8
:1031A00080BC704718060020200600204007002041
:1031B0002DE9F0438FB000AF0346FB71C64B1B688F
:1031C00003F11004D4E90034C7E90634C24B1B688C
:1031D00003F12004D4E90034C7E90434FA79BF4983
:1031E00013469B0013449B000B4404331B68184692
:1031F000FDF722F9AEA4D4E900341A462346FDF7C0
:1032000073F903460C46C7E90C34FA79B3491346FF
:103210009B0013449B000B4408331B681846FDF7C2
:103220000BF9A3A4D4E900341A462346FDF75CF950
:1032300003460C46C7E90A34D7E90C23D7E906014F
:10324000FDF7BAFB0346002B0AD09BA3D3E900236A
:10325000D7E90C01FCF792FF03460C46C7E90C3492
:10326000D7E90A23D7E90401FDF7A6FB0346002BA3
:103270000AD091A3D3E90023D7E90A01FCF77EFF26
:1032800003460C46C7E90A34D7E90623D7E90C01FF
:10329000FCF772FF03460C46184621464FF0000229
:1032A0004FF08043FDF74AFA03460C461846214684
:1032B00006F0DAFF4FF000024FF0804307F006F906
:1032C00004460D46D7E90C0106F094FF8046894676
:1032D000D7E9060106F08EFF02460B4640464946F6
:1032E000FDF702F902460B4690469946D7E90423BA
:1032F000D7E90A01FCF740FF02460B461046194683
:103300004FF000024FF08043FDF718FA02460B46DB
:103310001046194606F0A8FF4FF000024FF0804318
:1033200007F0D4F802460B4640464946FDF7DCF864
:1033300002460B4620462946FCF720FF03460C4672
:103340001846214607F01EFA03460C461846214649
:1033500006F0EEFF5AA4D4E900341A462346FDF7DE
:10336000C3F803460C46C7E90234D7E90423D7E97A
:103370000A01FCF701FF03460C461D4626464FF0A6
:1033800000024FF08043D7E90C01FDF7D7F903465F
:103390000C46184621464CA4D4E900341A4623466C
:1033A000FCF7ECFE03460C461846214606F096FF55
:1033B000804689464FF000024FF08043D7E906016E
:1033C000FDF7BCF903460C46184621463EA4D4E955
:1033D00000341A462346FCF7D1FE03460C46184635
:1033E000214606F07BFF03460C461A46234640461C
:1033F0004946FDF7A3F903460C461846214606F058
:10340000EBFF03460C461A46234628463146FDF795
:1034100095F903460C461846214606F061FDC7E9BA
:103420000801D7E90623D7E90C01FDF7EDFA0346B9
:10343000002B16D0D7E90423D7E90A01FDF7E4FAF7
:103440000346002B0DD022A4D4E900341A462346AB
:10345000D7E90801FDF748F803460C46C7E90834E8
:103460005DE0D7E90623D7E90C01FDF7CDFA034665
:10347000002B37D0D7E90423D7E90A01FDF7A6FAD4
:103480000346002B2ED012A1D1E90001D7E9082371
:10349000FDF72AF803460C46184621464FF0000275
:1034A0000F4BFCF76BFE03460C46C7E9083436E0C9
:1034B0003A9D52A246DF913F3A8C30E28E79453EEA
:1034C00000000000B04D6841182D4454FB21E93F35
:1034D000F8C1631ADCA54C40140600204007002008
:1034E00000807640D7E90623D7E90C01FDF76EFA94
:1034F0000346002B13D02CA1D1E90001D7E9082302
:10350000FCF7F2FF03460C46184621464FF0000236
:10351000274BFCF733FE03460C46C7E90834FC7919
:10352000D7E90201FDF7B8FA0246224B43F83420EE
:10353000FB79204A52F83330002B06D1FB791D4A23
:10354000DB00134400229A800BE0FC79D7E90801E4
:10355000FDF7A2FA034699B2164AE30013440A465D
:103560009A80FA79144913469B0013449B000B443C
:103570000C33B3F900309CB2104B1B681B6B184620
:10358000FDF7CEFD03461BB29BB2E31A9AB2FB795C
:1035900011B2084ADB0013440A46DA8000BF3C3708
:1035A000BD46BDE8F08300BFF8C1631ADCA54C40FE
:1035B000008066400007002040070020140600201D
:1035C00080B483B000AF0023FB710DE0FA79F97984
:1035D00013469B0013449B00084A1344084A42F8D0
:1035E0002130FB790133FB71FB79062BEED9044BBB
:1035F00018460C37BD4680BC704700BF400700200E
:10360000E406002080B483B000AF0023FB710AE021
:10361000FA79FB79D20008490A44084941F8232085
:10362000FB790133FB71FB79062BF1D9034B18466B
:103630000C37BD4680BC704700070020C80600203C
:1036400080B483B000AF0023FB710DE0FA79F97903
:1036500013465B001344DB00084A1344084A42F84F
:103660002130FB790133FB71FB79062BEED9044B3A
:1036700018460C37BD4680BC704700BF20060020AE
:10368000F805002080B483B000AF64237B714FE065
:10369000354B1B889BB2344A43F480739BB2138032
:1036A00000BF314B9B8A9BB203F00103002BF8D083
:1036B0002D4B9B8A7B802C4BA0221A822A4B9B8A03
:1036C0007B807B8803F00203002B04D17B8803F40A
:1036D0008063002BF2D0244B9B8A7B80224B1B8B78
:1036E000FB807B8803F48063002B07D01E4B4FF6D2
:1036F000FF329A827B79013B7B7119E07B8803F072
:103700000203002B11D0184B1B889BB2164A43F4BE
:1037100000739BB2138000BF134B1B889BB203F452
:103720000073002BF8D1012319E07B79013B7B71F9
:103730007B79002BACD1FB880133FB800A4B1B88C3
:103740009BB2094A43F400739BB2138000BF064B3F
:103750001B889BB203F40073002BF8D1002318469A
:103760000C37BD4680BC70470058004080B584B01F
:1037700000AF0346FB800023FB73FFF723F8FFF73E
:1037800081FF0346002B00F08C804A4B1B889BB2C4
:10379000484A43F480739BB2138000BF454B9B8A19
:1037A0009BB203F00103002BF8D0424B9B8ABB81F4
:1037B000404BA0221A8200BF3E4B9B8A9BB203F073
:1037C0000203002BF8D03B4B9B8ABB81394B1B8BF0
:1037D000BB81FB881B0A9BB2DAB2364B92B21A82CB
:1037E00000BF344B9B8A9BB203F08003002BF8D0C0
:1037F000FB88DAB22F4B92B21A8200BF2D4B9B8A04
:103800009BB203F08003002BF8D02A4B1B889BB29D
:10381000284A43F480739BB2138000BF254B9B8AD8
:103820009BB203F00103002BF8D0224B9B8ABB8193
:10383000204BA1221A8200BF1E4B9B8A9BB203F031
:103840000203002BF8D01B4B9B8ABB81194B1B8BAF
:10385000BB81184B1B889BB2164A23F480639BB232
:103860001380144B1B889BB2124A43F400739BB223
:10387000138000BF0F4B1B889BB203F40073002B17
:10388000F8D100BF0B4B9B8A9BB203F04003002B87
:10389000F8D0BB890133BB81064B1B8A9BB2FB73FB
:1038A00001E00023FB73FEF781FFFB7B1846103716
:1038B000BD4680BD0058004080B584B000AF786040
:1038C0000B46FB70FEF77EFFFFF7DCFE0346002B86
:1038D00000F0B980FB789BB25B01BB815D4B1B881C
:1038E0009BB25C4A43F480739BB2138000BF594B78
:1038F0009B8A9BB203F00103002BF8D0554B9B8AA7
:103900009BB2FB72534BA0221A8200BF514B9B8A81
:103910009BB203F00203002BF8D04E4B9B8A9BB264
:10392000FB724C4B1B8B9BB2FB72BB891B0A9BB27D
:10393000DAB2484B92B21A8200BF464B9B8A9BB2C6
:1039400003F08003002BF8D0BB89DAB2414B92B26E
:103950001A8200BF3F4B9B8A9BB203F08003002B6F
:10396000F8D03C4B1B889BB23A4A43F480739BB21D
:10397000138000BF374B9B8A9BB203F00103002BDF
:10398000F8D0344B9B8A9BB2FB72324BA1221A8235
:1039900000BF304B9B8A9BB203F00203002BF8D090
:1039A0002C4B9B8A9BB2FB722A4B1B8B9BB2FB72EC
:1039B0000023FB731AE0274B1B889BB2254A43F474
:1039C00080639BB2138000BF224B9B8A9BB203F0A3
:1039D0004003002BF8D01F4B1B8A99B2FB7B7A68FF
:1039E0001344CAB21A70FB7B0133FB73FB7B1E2BA3
:1039F000E1D9184B1B889BB2164A23F480639BB213
:103A00001380144B1B889BB2124A43F400739BB281
:103A1000138000BF0F4B1B889BB203F40073002B75
:103A2000F8D100BF0B4B9B8A9BB203F04003002BE5
:103A3000F8D0084B1B8A9AB27B681F33D2B21A7037
:103A4000FB7A0133FB72FEF7B1FE00BF1037BD46B3
:103A500080BD00BF0058004080B584B000AF7860E2
:103A60000B46FB70FEF7AEFEFFF70CFE0346002B85
:103A700073D00023BB73FB789BB25B01BB813A4BD5
:103A80001B889BB2384A43F480739BB2138000BFFB
:103A9000354B9B8A9BB203F00103002BF8D0324BCD
:103AA0009B8A9BB2BB73304BA0221A8200BF2E4B65
:103AB0009B8A9BB203F00203002BF8D02A4B9B8A0F
:103AC0009BB2BB73284B1B8B9BB2BB73BB891B0A7E
:103AD0009BB2DAB2244B92B21A8200BF224B9B8A6D
:103AE0009BB203F08003002BF8D0BB89DAB21E4BE7
:103AF00092B21A8200BF1C4B9B8A9BB203F08003D8
:103B0000002BF8D00023FB7311E0FB7B7A68134491
:103B10001A78154B92B21A8200BF134B9B8A9BB244
:103B200003F00403002BF8D0FB7B0133FB73FB7B1A
:103B30001F2BEAD9BB7B0133BB730B4B1B889BB29A
:103B4000094A43F400739BB2138000BF064B1B88E5
:103B50009BB203F40073002BF8D1FEF727FE00BFE1
:103B60001037BD4680BD00BF0058004080B58CB006
:103B700000AF0346FB71002387F82F300CE097F865
:103B80002F3007F130021344FF2203F8242C97F85A
:103B90002F30013387F82F3097F82F301F2BEED9B5
:103BA000FA7907F10C0311461846FFF755FF00BFDD
:103BB0003037BD4680BD80B582B000AF0023FB80AA
:103BC00007E0FB88DBB21846FFF7D0FFFB88013324
:103BD000FB80FB88FF2BF4D900BF0837BD4680BDB2
:103BE00080B400AF62B600BFBD4680BC704780B4F1
:103BF00000AF30BF00BFBD4680BC704780B582B00B
:103C000000AFFDF7A3FD05F02FFE05F079FA05F0F2
:103C1000EBFAFEF793FD06F04FF804F0DBFF05F03A
:103C20008BFB05F09BF8FDF7FBFFFDF78FFBFDF726
:103C3000F9FBFEF7D3FD00F027FA04F055F904F084
:103C4000BFFF0246644B1A60FEF76EFD0246634BEF
:103C50001A6004F0A1FF0246614B1A60614805F04A
:103C6000A3FD05F0F9FB604804F022FD00F068FCBC
:103C7000FFF7B6FF05F006FE5C4B9B79012B08D1E0
:103C80005A4B00229A71FDF78DFC0346184600F04E
:103C90005FFA564B1B78012B24D1544B00221A702B
:103CA000FEF7C8F80346012B16D1504B5B78012B69
:103CB0000ED1FEF719FD0346012B07D14C4B1B68B3
:103CC0001846FEF7DBFFFFF771F801E005F020FF73
:103CD000464B01225A7205E0444B5B78012B01D11F
:103CE00005F016FF414B9B78012B0CD13F4B002276
:103CF0009A7005F07FF90346002B04D03C4B1B68FB
:103D00001846FFF75DF9394BDB79012B0BD1374BA7
:103D10000022DA71FDF726FC354B1B681846FEF7CA
:103D2000BBFEFEF7EBFE314BDB78012B31D12F4B85
:103D30000022DA70FEF782FF0023FB71FEF786FE99
:103D400003461A46FB791344FB71FEF7D7FE034680
:103D50001A46FB791344FB71FEF722FF03461A460D
:103D6000FB791344FB71214B1B79012B07D11F4BAE
:103D70001A79FB791344FB711C4B00221A71FB79F1
:103D8000002B02D0194B01221A72184B01225A72D1
:103D90000DE0164B1B79012B09D1144B5B78002BDE
:103DA00005D1124B00221A71104B01221A720F4BCF
:103DB0001B7A012B04D10D4B00221A7205F062FD13
:103DC0000A4B5B7A012B04D1084B00225A7200F097
:103DD000B7FBFFF70CFF4FE71C060020140600207E
:103DE000CC070020ACDA0008400D030014010020CD
:103DF0000801002080B500AF0E4B4FF480325A60AE
:103E000005F0C4FF05F0E8FF05F0CEFF0A4B5B7834
:103E1000012B02D1084B01221A72074B01221A70A2
:103E2000054B00225A70054B00221A60FDF75AFF1D
:103E300000BF80BD00000240140100200C010020E2
:103E400080B500AF254B4FF400625A6105F050FE7B
:103E500005F09CFF05F0C0FF05F0A6FF204B1B6896
:103E600001331F4A13601E4B1B68012B02D0022B2B
:103E700009D011E005F04CFE1A4B00221A70194BC4
:103E800000225A7027E005F043FE164B01221A70FB
:103E9000144B00225A701EE0124B01221A70114B73
:103EA00001225A70104B1B689B78104A1268104907
:103EB000096849790A441278B3FBF2F102FB01F276
:103EC0009B1ADBB2002B03D1064B01225A7101E091
:103ED00005F01EFE00BF00BF80BD00BF0004014012
:103EE0000C0100201401002014060020CC07002043
:103EF0001C06002080B400AF044B40225A61044BE2
:103F000001229A7000BFBD4680BC7047000401408A
:103F10001401002080B500AF1B4B1B8A9BB21A4ACC
:103F200023F001039BB21382184B1B780133DAB2E2
:103F3000164B1A70154B1B78072B0AD105F0E8FDBC
:103F4000124B00221A70124B0122DA70FDF7CAFEE2
:103F50000FE00E4B1A780F4B1A700F4B1B681A7834
:103F60000C4B1B789A4202D104F0CCFF01E005F023
:103F700015F8074B5B79012B04D1054B00225A71D0
:103F8000FDF7A4FE00BF80BD002C01401001002001
:103F900014010020110100201C06002080B500AF94
:103FA00005F04EFE05F034FE05F038FD00BF80BD83
:103FB00080B400AF094B9B889BB2084A23F00103F1
:103FC0009BB29380064B1B680133054A1360054B77
:103FD0000122DA7100BFBD4680BC70470028004056
:103FE000080100201401002080B500AFFDF730FA71
:103FF00003461A46014B1A7100BF80BD1401002010
:1040000080B400AF4FF080431B8A9BB24FF08042D8
:1040100023F001039BB21382034B01229A7100BF6C
:10402000BD4680BC704700BF1401002080B400AFC3
:10403000024B1B681846BD4680BC70470801002033
:1040400080B400AF024B1846BD4680BC704700BF2D
:104050001401002080B400AFBFF34F8F00BFBD46F6
:1040600080BC704780B500AF054BDB6803F4E062AD
:104070000349044B1343CB60FFF7ECFFFEE700BF9F
:1040800000ED00E00400FA0580B500AFFEF742FB4A
:104090000246224B1A60FEF747FB0246204B1A608D
:1040A000FFF78EFA02461F4B1A60FFF7ABFA024683
:1040B0001D4B1A60FFF7C4FA02461C4B1A6003F04E
:1040C000F3FE02461A4B1A6004F07AFD0246194BC1
:1040D0001A60184B1A68184B1068516818605960BC
:1040E00012891A81134B1B681A78144B1A7004F04A
:1040F00053FD0246124B1A6004F058FD0246114B64
:104100001A600E4B1A78104B1A70104B01221A705D
:10411000002000F0B3F900BF80BD00BF08080020F8
:104120001406002004080020D00700203C080020CE
:10413000D40700201C060020E007002038070020DC
:10414000CC0700200C0800202A000020FA070020DD
:1041500080B584B000AF0346FB71FB79002B60D0C3
:1041600005F070F90346012B56D10023FB7319E0CB
:10417000FB7B2D4A12F833202C4B1B789A420ED130
:10418000FB7B294ADB0013445B78FA799A4206D11B
:10419000FB7B254ADB0013445B68984741E0FB7BCF
:1041A0000133FB73FB7B204A12F83330002BDFD145
:1041B000FB79013B092B34D801A252F823F000BF50
:1041C000E941000823420008EF41000823420008AB
:1041D000F541000823420008014200080742000898
:1041E000FB4100080D42000800F03EF819E000F025
:1041F0005AF816E000F076F813E000F0B3F810E09B
:1042000005F008F90DE000F013F80AE005F04AFBAC
:1042100000F096F900BF04E0FB79072B01D105F00F
:10422000F9F81037BD4680BDB0D40008FA07002069
:1042300080B500AF0B4B1B7804211846FEF7C2FB7C
:104240000346002B04D101210420FEF73DFB03E0CF
:1042500000210420FEF738FBFEF7F8FB00F070F9B0
:1042600000BF80BD3807002080B582B000AF00F0ED
:10427000A5F80346FB7100F0D1F80346BB71FB794A
:10428000002B04D1BB79184600F0F8F805E0FB7963
:10429000013BDBB2184600F0F1F800F051F900BF25
:1042A0000837BD4680BD80B582B000AF00F086F80B
:1042B0000346FB7100F0B2F80346BB71FA79BB7993
:1042C0009A4203D1002000F0D9F805E0FB790133D0
:1042D000DBB2184600F0D2F800F032F900BF083720
:1042E000BD4680BD80B582B000AF0023FB7126E0E3
:1042F000FA791A4913465B0013440B441A78184B99
:104300001B789A4218D100F059F803461846FA79FA
:10431000124913465B0013440B4401331B78984247
:104320000AD1FA790D4913465B0013440B4402335A
:104330001A780B4B1A700BE0FB790133FB71FA7999
:10434000064913465B0013440B441B78002BCFD166
:1043500000F0F6F800BF0837BD4680BD98D60008CB
:10436000FA07002080B582B000AF0023FB7115E092
:10437000FB79104A12F813200F4B1B789A420AD18E
:10438000002000F07BF8FB790A4A5B0013445A785E
:10439000094B1A7008E0FB790133FB71FB79054A80
:1043A00012F81330002BE3D100F0CAF800BF083731
:1043B000BD4680BDD4D60008FA07002080B483B083
:1043C00000AF0023FB7116E0FA79124913465B0037
:1043D00013440B441A78104B1B789A4208D1FA798F
:1043E0000C4913465B0013440B4401331B780CE06B
:1043F000FB790133FB71FA79064913465B001344DC
:104400000B441B78002BDFD1002318460C37BD4628
:1044100080BC704718000020FA07002080B483B0E9
:1044200000AF0023FB7116E0FA79124913465B00D6
:1044300013440B441A78104B1B789A4208D1FA792E
:104440000C4913465B0013440B4402331B780CE009
:10445000FB790133FB71FA79064913465B0013447B
:104460000B441B78002BDFD1002318460C37BD46C8
:1044700080BC704718000020FA07002080B485B087
:1044800000AF0346FB710023FB7317E0FA7B124970
:1044900013465B0013440B441A78104B1B789A4266
:1044A00009D1FA7B0C4913465B0013440B440133DA
:1044B000FA791A700BE0FB7B0133FB73FA7B064938
:1044C00013465B0013440B441B78002BDED100BF66
:1044D0001437BD4680BC704718000020FA07002042
:1044E00080B485B000AF0346FB710023FB7316E078
:1044F000FA7B124913465B0013440B441B78FA798C
:104500009A4209D1FA7B0D4913465B0013440B44D0
:10451000013300221A700BE0FB7B0133FB73FA7B43
:10452000064913465B0013440B441B78002BDFD174
:1045300000BF1437BD4680BC704700BF1800002084
:1045400080B582B000AF0023FB7111E0FB790D4A0A
:1045500012F833200C4B1B789A4206D1FB79094A9A
:10456000DB0013445B68984708E0FB790133FB717B
:10457000FB79044A12F83330002BE7D100BF08372B
:10458000BD4680BDF0D60008FA07002080B500AF18
:1045900004F08CFF0023214A0121002005F08DF852
:1045A00000231F4A0121022005F087F800231D4A3D
:1045B0000121032005F081F800231B4A012104207A
:1045C00005F07BF80023194A0121052005F075F854
:1045D0000023174A0121062005F06FF8FFF7EEFED1
:1045E00003460233D8B20023124A002105F065F8D1
:1045F00000238F221421002005F040F805F068F90F
:104600000346012B05D1002321221321002005F0B0
:1046100035F804F021FF00BF80BD00BF40CF000887
:1046200048CF000850CF000858CF000860CF0008DE
:104630006CCF000874CF000890B583B000AF04F0D1
:1046400035FF974805F0B0F8FFF7FAFC03465B78B2
:10465000002B11D0934B1B6893F83630012B0BD1F4
:10466000002380221221002005F008F80023812277
:104670001321002005F002F88B4B1B681B78002BE0
:1046800006D1002382221421002004F0F7FF2BE042
:10469000844B1B6893F83730032B0CD1814B1B687C
:1046A00093F83630012B06D10023852214210020F7
:1046B00004F0E4FF18E07B4B1B6893F83730022BC3
:1046C0000CD1784B1B6893F83630012B06D10023B0
:1046D00084221421002004F0D1FF05E0002383226E
:1046E0001421002004F0CAFF1423FB716F4B1B78C8
:1046F00001211846FEF766F90346042B39D801A2BA
:1047000052F823F0614700084F4700083D47000872
:104710002B47000819470008F9794B1EFB7100234D
:104720008C22012004F0AAFF23E0F9794B1EFB71D3
:1047300000238B22012004F0A1FF1AE0F9794B1E1F
:10474000FB7100238A22012004F098FF11E0F9791F
:104750004B1EFB7100238922012004F08FFF08E02B
:10476000F9794B1EFB7100238822012004F086FF9B
:1047700000BF4F4B1A684D4B1B789B0013441B68BE
:104780001B7B002B07D0F9794B1EFB71002386227F
:10479000012004F073FF454B1B7804211846FEF7F7
:1047A00011F90346012B07D1F9794B1EFB71002348
:1047B0008722012004F062FF0323BB7101237B7178
:1047C00091E23A4B1B787A799A427BD17B793949CD
:1047D000184604F065F90023364A0021012004F050
:1047E0006CFF354B1B685A7800230221012004F02E
:1047F00045FF314B1B689A7800230321012004F008
:104800003DFF284B1B689B6A2C491846FCF760FC4F
:104810000346002B0ED0234B1B689B6A254A0121BF
:10482000184603F0EDFF0023224A0721012004F07F
:1048300067FF10E0224B1A687B799B0013441B68CA
:104840009B7B1C49184604F02BF90023194A0721C9
:10485000012004F055FF1A4B1A687B799B00134422
:104860001B681B8A1349184604F01AF90023114AE1
:104870000B21012004F044FF114B1A687B799B0047
:1048800013441B68B3F90C300A49184604F008F9C0
:104890000023084A1021012004F032FF20E200BF6B
:1048A000ACDE0008140600200808002038070020AD
:1048B0003C080020100800201C06002000002041B9
:1048C00004080020944B1A687B799B0013441B68F2
:1048D0001B78012B40F004827B799049184604F044
:1048E000DFF8B87900238D4A002104F0E6FE8C4BF6
:1048F0001A687B799B0013441B681A78B8790023E7
:10490000022104F0BBFE864B1A687B799B0013449E
:104910001B685A78B8790023032104F0AFFE814B5D
:104920001A687B799B0013441B681B68B3F57A7F78
:1049300011D27C4B1A687B799B0013441B681B685F
:104940007649184604F0ACF8B8790023734A072179
:1049500004F0D6FE6FE0734B1A687B799B0013441A
:104960001B681B6842F20F72934225D86D4B1A6880
:104970007B799B0013441B681B681846FBF73AFDC4
:104980004FF00002684BFBF7D9FE03460C46184671
:104990002146FCF7A1F80246644B1A60634B1B6882
:1049A0005E4A0121184603F02BFFB87900235B4AC9
:1049B000072104F0A5FE3EE05A4B1A687B799B0064
:1049C00013441B681B685A4A93422ED8554B1A68E9
:1049D0007B799B0013441B681B681846FBF70AFD94
:1049E0004FF00002504BFBF7A9FE03460C46184659
:1049F0002146FCF771F802464C4B1A604B4B1B6882
:104A00001846FCF7B3FB03464449184604F048F83F
:104A1000B8790023414A062104F072FEB8790023D8
:104A20002E22072104F02AFE05E0B8790023414A2E
:104A3000052104F042FE3B4B1A687B799B0013442E
:104A40001B689B883549184604F02AF8B87900237A
:104A5000324A0B2104F054FE324B1A687B799B00DA
:104A600013441B68B3F90620334B1A80324BB3F959
:104A70000030002B08DA304BB3F900309BB25B42B8
:104A80009BB21AB22C4B1A802B4BB3F90030B3F502
:104A90007A7F12DA234B1A687B799B0013441B68D8
:104AA000B3F906301D49184603F0FAFFB879002320
:104AB0001A4A102104F024FE6FE01F4BB3F90030B6
:104AC00042F20F72934239DC164B1A687B799B00D5
:104AD00013441B68B3F906301846FBF79BFC4FF0F4
:104AE0000002114BFBF72AFE03460C4618462146EE
:104AF000FBF7F2FF02460D4B1A600C4B1B68074A8E
:104B00000121184603F07CFEB8790023034A1021E6
:104B100004F0F6FD41E000BF3C0800201008002032
:104B200004080020D007002000408F40F407002038
:104B30009F86010078CF0008F80700206F4B1A68A5
:104B40007B799B0013441B68B3F906301846FBF7CA
:104B500061FC4FF000026A4BFBF7F0FD03460C4688
:104B600018462146FBF7B8FF0246664B1A60654BB4
:104B70001B681846FCF7D4FA03466349184603F04D
:104B80008FFFB87900232E22102104F077FDB87929
:104B900000235D4A0F2104F0B3FD584B1A687B795E
:104BA0009B0013441B68B3F90630002B03DD002182
:104BB0002B2004F01FFD14233B71544B1A687B79A2
:104BC0009B0013441B689B7B002B42D17B79012106
:104BD0001846FDF7F7FE0346042B3AD801A252F817
:104BE00023F000BF414C00082F4C00081D4C00086A
:104BF0000B4C0008F94B000839794B1E3B71B87912
:104C000000238C2204F03AFD23E039794B1E3B71DE
:104C1000B87900238B2204F031FD1AE039794B1E5C
:104C20003B71B87900238A2204F028FD11E039791C
:104C30004B1E3B71B8790023892204F01FFD08E068
:104C400039794B1E3B71B8790023882204F016FD98
:104C500000BF2E4B1A687B799B0013441B689B7B1B
:104C6000002B10D1294B1A687B799B0013441B68D9
:104C70001B7B002B07D039794B1E3B71B879002381
:104C8000862204F0FBFC214B1A687B799B001344BD
:104C90001B685B7B002B07D039794B1E3B71B879C1
:104CA00000238E2204F0EAFC184B1A687B799B00E3
:104CB00013441B689B7B002B0FD17B790421184682
:104CC000FDF780FE0346012B07D139794B1E3B715E
:104CD000B8790023872204F0D1FCBB790133BB7182
:104CE0007B7901337B717B79062B7FF66AAD04F00B
:104CF000B3FB00BF0C37BD4690BD00BFD0070020FE
:104D000000408F40F4070020100800203C080020DD
:104D100090B583B000AF04F0C9FB1423FB713E4B88
:104D20001B7801211846FDF74DFE0346042B3AD8A7
:104D300001A252F823F000BF954D0008834D0008F2
:104D4000714D00085F4D00084D4D0008F9794B1E6C
:104D5000FB7100238C22002004F090FC23E0F97901
:104D60004B1EFB7100238B22002004F087FC1AE00D
:104D7000F9794B1EFB7100238A22002004F07EFC8F
:104D800011E0F9794B1EFB7100238922002004F009
:104D900075FC08E0F9794B1EFB7100238822002086
:104DA00004F06CFC00BF1D4B1B681B78002B08D166
:104DB000F9794B1EFB7100238222002004F05EFC77
:104DC00038E0174B1B6893F83730032B0ED1144B88
:104DD0001B6893F83630012B08D1F9794B1EFB7113
:104DE00000238522002004F049FC23E00C4B1B68C3
:104DF00093F83730022B15D1094B1B6893F83630E6
:104E0000012B0FD1F9794B1EFB7100238422002066
:104E100004F034FC0EE000BF380700200808002032
:104E200014060020F9794B1EFB7100238322002019
:104E300004F024FCFFF704F903465B78002B15D03F
:104E4000B94B1B6893F83630012B0FD1F9794B1E03
:104E5000FB7100238122002004F010FCF9794B1E25
:104E6000FB7100238022002004F008FCAF4B1A687D
:104E7000AF4B1B789B0013441B681B7B002B07D098
:104E8000F9794B1EFB7100238622002004F0F6FB0B
:104E9000A74B1B7804211846FDF794FD0346012B10
:104EA00007D1F9794B1EFB7100238722002004F003
:104EB000E5FBA04B1A789E4B1B789A4240F050823B
:104EC00000239D4A0021002004F0F7FB994B1B783A
:104ED0009A49184603F0E4FD0023984A0121002076
:104EE00004F0EBFB964B1B685A780023032100204B
:104EF00004F0C4FB924B1B689A7800230421002025
:104F000004F0BCFB00238F4A0621002004F0D5FBEF
:104F10008D4B1B681A7B00230021012004F0AEFB9F
:104F2000894B1B685A7B00230121012004F0A6FB5A
:104F30000023864A0221012004F0BFFB824B1B683C
:104F40009A7B00230321012004F098FB7E4B1B6811
:104F5000DA7B00230421012004F090FB00237B4A2C
:104F60000521012004F0A9FB774B1B681A7C002364
:104F70000621012004F082FB734B1B685A7C00233E
:104F80000721012004F07AFB6F4B1B681A7800237D
:104F90000921012004F072FB6B4B1B685A78002337
:104FA0000A21012004F06AFB0023694A0B21012039
:104FB00004F083FB644B1B689A7800230C210120CA
:104FC00004F05CFB604B1B68DA7800230D210120A4
:104FD00004F054FB00235E4A0E21012004F06DFB17
:104FE000594B1B681A7900230F21012004F046FB5E
:104FF000554B1B685A7900231021012004F03EFB19
:105000000023544A1221012004F057FB0023524A86
:105010000021022004F051FB434B1B689B68474A68
:105020000621184603F0ECFB0023444A0E2102201F
:1050300004F066FB3C4B1B689B684FF00001184670
:10504000FCF75AF80346002B0AD000212B2004F06D
:10505000D1FA0023414A1021022004F02EFB05E082
:1050600000233F4A1021022004F027FB00233D4A81
:105070000021032004F021FB2B4B1B689B692F4A66
:105080000621184603F0BCFB00232C4A0E21032006
:1050900004F036FB244B1B689B694FF00001184657
:1050A000FCF72AF80346002B0AD000212B2004F03D
:1050B000A1FA00232C4A1021032004F0FEFA05E097
:1050C00000232A4A1021032004F0F7FA0023284A7B
:1050D0000021042004F0F1FA134B1B681B6B1846E7
:1050E000FCF71EF803461549184603F0D9FC0023C7
:1050F000124A0421042004F0E0FA00211D4804F0C3
:105100003BFB00231C4A0B21042004F0D6FA064B7B
:105110001B6893F83630012B32D10023174A0F2138
:10512000042004F0CAFA31E0140600203C080020F4
:10513000380700202A0000207CCF0008100800203B
:105140001C06002080CF00080808002088CF000837
:105150008CCF000890CF000894CF000898CF0008AB
:105160009CCF0008A0CF0008A4CF0008A8CF00085B
:10517000ACCF0008B0CF0008B4CF0008B8CF00080B
:105180000023B34A0F21042004F097FAB14B1B68A7
:1051900093F83730022B06D10023AF4A11210420A7
:1051A00004F08BFA12E0AB4B1B6893F83730032BFB
:1051B00006D10023A94A1121042004F07EFA05E05B
:1051C0000023A74A1121042004F077FA0023A54AFE
:1051D0000021052004F071FA9E4B1B68DB6A18461B
:1051E000FBF79EFF0346A049184603F059FC002335
:1051F0009D4A0421052004F060FA00218D2004F06E
:10520000F9F90023994A0B21052004F056FA914B35
:105210001B689B6B944A0221184603F0F1FA0023A5
:10522000914A0F21052004F048FA0023904A0021FA
:10523000062004F042FA874B1B689B6A8D4918468A
:10524000FBF746FF0346002B0ED0824B1B689B6A80
:10525000854A0121184603F0D3FA0023824A04212B
:10526000062004F02AFA11E07A4B1B689B6A184664
:10527000FBF756FF03461BB27B49184603F010FCB0
:105280000023794A0421062004F017FA00217A4805
:1052900004F072FA0023794A0B21062004F00DFA7B
:1052A0006C4B1B6893F835306F49184603F0F8FBD8
:1052B00000236D4A0F21062004F0FFF900217048F9
:1052C00004F05AFA634B1B6893F834306649184669
:1052D00003F0E6FB0021644804F04EFA694B1A68BB
:1052E000694B1B789B0013441B681B7B012B06D169
:1052F0000123664A0021072004F0DFF905E00023BE
:10530000624A0021072004F0D8F95E4B1A685E4B10
:105310001B789B0013441B689B685349184603F095
:105320009BF80023504A0421072004F0C6F900230B
:10533000574A0B21072004F0C0F9FCF729F903466E
:10534000494A0221184603F05BFA0023464A0F211E
:10535000072004F0B2F90021562004F04BF980E355
:1053600000234C4A0121002004F0A7F94A4B1B7886
:105370003D49184603F094FB00233B4A02210020DC
:1053800004F09BF9454B1A68434B1B789B00134470
:105390001B681A7800230421002004F06FF93F4BAA
:1053A0001A683D4B1B789B0013441B685A780023F6
:1053B0000521002004F062F9324B1A68364B1B7845
:1053C0009B0013441B689B7B012B0DD12D4B1A684E
:1053D000314B1B789B0013441B6803F10F02002321
:1053E0000721002004F069F900232D4A0021012043
:1053F00004F063F9294B1A68274B1B789B00134470
:105400001B685B68184A0621184603F0F9F9002367
:10541000154A0E21012004F073F9204B1A681E4B27
:105420001B789B0013441B685B684FF00001184613
:10543000FBF762FE0346002B36D000212B2004F040
:10544000D9F80023174A1021012004F036F931E081
:10545000BCCF000814060020C0CF0008C4CF00084D
:10546000C8CF0008CCCF000810080020D0CF00081B
:10547000D4CF000800002041D8CF0008DCCF0008BE
:10548000E0CF00083C08002038070020E4CF0008E7
:10549000E8CF00087CCF00082A0000200408002084
:1054A00094CF000898CF00080023B54A10210120AE
:1054B00004F003F90023B34A0021022004F0FDF8B0
:1054C000B14B1A68B14B1B789B0013441B689B6857
:1054D000AF4A0621184603F093F90023AC4A0E2187
:1054E000022004F00DF9A84B1A68A84B1B789B000A
:1054F00013441B689B684FF000011846FBF7FCFD46
:105500000346002B0AD000212B2004F073F800235F
:10551000A04A1021022004F0D0F805E000239E4AA2
:105520001021022004F0C9F800239C4A0021032026
:1055300004F0C3F8944B1A68944B1B789B001344F7
:105540001B68B3F90C309249184603F0A9FA0023FE
:105550008F4A0421032004F0B0F80021904804F0A1
:105560000BF900238F4A0B21032004F0A6F88E4B81
:105570001A68864B1B789B0013441B68B3F90620FE
:105580008A4B1A80894BB3F90030002B0FDA874B16
:10559000B3F900309BB25B429BB21AB2834B1A80C4
:1055A000002320220E21032004F068F811E07F4B35
:1055B000B3F90030002B06DD00232B220F2103203E
:1055C00004F05CF805E0002320220E21032004F003
:1055D00055F8764BB3F9003042F20F72934215DC66
:1055E000714B1A68694B1B789B0013441B68B3F915
:1055F00006306749184603F053FA0021644804F066
:10560000BBF80021664804F0B7F828E0664B1A683A
:105610005E4B1B789B0013441B68B3F90630184699
:10562000FAF7F8FE4FF00002614BFBF787F80346EC
:105630000C4618462146FBF74FFA02465D4B1A60AE
:105640005C4B1B68524A0121184603F0D9F800212F
:105650004F4804F091F80021574804F08DF8574B5B
:105660001A684A4B1B789B0013441B689B7B002BDA
:105670001BD10023524A0021042004F01EF8424BA3
:105680001A68424B1B789B0013441B681B8A4049D5
:10569000184603F005FA00233D4A0421042004F0D3
:1056A0000CF800218D2003F0A5FF0023454A0B21B3
:1056B000042004F002F83C4B1A68344B1B789B0022
:1056C00013441B689B883249184603F0E9F900230C
:1056D0002F4A0F21042003F0F0FF00218D2003F05A
:1056E00089FF364B1A68294B1B789B0013441B68B3
:1056F0009B7B002B1BD10023334A0021052003F0A4
:10570000DCFF214B1A68214B1B789B0013441B685C
:105710009B7B1F49184603F0C3F900231C4A042150
:10572000052003F0CAFF0021284804F025F80023D3
:10573000274A0B21052003F0C0FF1B4B1A68134BAF
:105740001B789B0013441B681B68224A934243D872
:10575000154B1A680D4B1B789B0013441B681B6884
:105760000B49184603F09CF90023094A0F21052034
:1057700003F0A3FF00210A4803F0FEFF8CE000BF06
:105780009CCF0008A0CF0008040800202A000020B9
:1057900010080020A4CF0008A8CF0008ACCF000854
:1057A000B0CF0008ECCF0008D0070020F807002099
:1057B00000408F40F4070020F0CF00083C08002094
:1057C000CCCF0008F4CF0008D4CF0008D8CF000811
:1057D000F8CF00089F860100A74B1A68A74B1B78DB
:1057E0009B0013441B681B68A54A93422AD8A24B0E
:1057F0001A68A24B1B789B0013441B681B68184651
:10580000FAF7F8FD4FF000029E4BFAF797FF0346B8
:105810000C4618462146FBF75FF902469A4B1A6080
:10582000994B1B68994A0121184602F0E9FF0023B1
:10583000964A0F21052003F040FF0021944803F011
:105840009BFF29E08C4B1A688C4B1B789B00134400
:105850001B681B681846FAF7CDFD85A3D3E9002322
:10586000FAF76CFF03460C4618462146FBF734F95D
:105870000246854B1A60844B1B68844A01211846F6
:1058800002F0BEFF0023814A0F21052003F015FF1F
:105890000021804803F070FF7F4B1A68774B1B781C
:1058A0009B0013441B689B7B002B31D100237B4A58
:1058B0000021062003F001FF704B1B7802211846DF
:1058C000FDF780F80346012B06D10023744A04211A
:1058D000062003F0F2FE05E00023724A04210620B0
:1058E00003F0EBFE654B1B7803211846FDF76AF8C1
:1058F0000346012B06D100236B4A0721062003F043
:10590000DCFE05E00023694A0721062003F0D5FEEE
:10591000614B1A68594B1B789B0013441B689B7B97
:10592000002B3ED10023624A0B21062003F0C5FE66
:10593000524B1B7801211846FDF744F80346042B0F
:105940002FD801A252F823F0955900088759000872
:10595000795900086B5900085D5900080023554A21
:105960000F21062003F0A9FE1BE00023524A0F215D
:10597000062003F0A2FE14E00023504A0F21062067
:1059800003F09BFE0DE000234D4A0F21062003F09B
:1059900094FE06E000234B4A0F21062003F08DFE03
:1059A00000BF3D4B1A68354B1B789B0013441B68A6
:1059B0001B7B012B06D10123434A0021072003F062
:1059C0007CFE05E00023404A0021072003F075FE1D
:1059D000314B1A68294B1B789B0013441B689B684A
:1059E0002A49184602F038FD0023284A04210720DE
:1059F00003F063FE284B1A68204B1B789B0013446E
:105A00001B685B7B002B06D00123304A0B2107204B
:105A100003F053FE05E000232C4A0B21072003F07E
:105A20004CFE1D4B1A68154B1B789B0013441B68DA
:105A30009B7B002B15D1114B1B7804211846FCF7DA
:105A4000C1FF0346012B06D10123214A0F21072064
:105A500003F033FE05E000231D4A0F21072003F069
:105A60002CFE03F0F9FC00BF0C37BD4690BD00BF13
:105A70000000000080842E41D00700202A00002072
:105A80003F420F0000408F40F40700201008002024
:105A9000F0CF0008FCCF00083C080020B4CF00087D
:105AA00000D0000804D0000808D000080CD000087E
:105AB000E8CF000810D0000814D0000818D0000863
:105AC0001CD0000820D00008E4CF000824D0000833
:105AD00028D0000880B500AF03F0E8FC0023254A79
