:020000040800F2
:100000000050002019A6000869A6000869A600088B
:1000100069A6000869A6000869A60008000000009B
:1000200000000000000000000000000069A60008B9
:1000300069A600080000000069A6000879420008CF
:1000400069A6000869A6000869A600088D42000894
:1000500069A6000869A6000869A6000869A6000844
:1000600069A6000869A6000869A6000869A6000834
:1000700069A6000869A6000869A60008F5400008FE
:1000800069A6000869A60008C542000869A600081C
:1000900069A6000869A6000869A600088941000849
:1000A00069A60008BD41000869A6000869A6000805
:1000B000DD42000869A6000869A6000869A60008D4
:1000C00069A6000869A6000869A6000869A60008D4
:1000D00069A6000869A6000869A6000869A60008C4
:1000E0003D41000869A600080000000069A600085C
:1000F00069A6000869A6000869A6000869A60008A4
:1001000069A6000869A6000869A6000869A6000893
:1001100069A6000869A6000869A6000869A6000883
:1001200069A6000869A6000869A6000869A6000873
:1001300010B5054C237833B9044B13B10448AFF321
:1001400000800123237010BDC800002000000000C3
:100150001CD7000808B5034B1BB103490348AFF394
:10016000008008BD00000000CC0000201CD7000863
:1001700081F0004102E000BF83F0004330B54FEA58
:1001800041044FEA430594EA050F08BF90EA020FC5
:100190001FBF54EA000C55EA020C7FEA645C7FEA58
:1001A000655C00F0E2804FEA5454D4EB5555B8BF7B
:1001B0006D420CDD2C4480EA020281EA030382EAEC
:1001C000000083EA010180EA020281EA0303362D7E
:1001D00088BF30BD11F0004F4FEA01314FF4801C51
:1001E0004CEA113102D0404261EB410113F0004F63
:1001F0004FEA03334CEA133302D0524263EB43031A
:1002000094EA050F00F0A780A4F10104D5F1200EB7
:100210000DDB02FA0EFC22FA05F2801841F1000112
:1002200003FA0EF2801843FA05F359410EE0A5F1E6
:1002300020050EF1200E012A03FA0EFC28BF4CF017
:10024000020C43FA05F3C01851EBE37101F00045CD
:1002500007D54FF0000EDCF1000C7EEB00006EEBDA
:100260000101B1F5801F1BD3B1F5001F0CD3490864
:100270005FEA30004FEA3C0C04F101044FEA4452BB
:1002800012F5800F80F09A80BCF1004F08BF5FEA42
:10029000500C50F1000041EB045141EA050130BD22
:1002A0005FEA4C0C404141EB010111F4801FA4F1C5
:1002B0000104E9D191F0000F04BF01460020B1FA1A
:1002C00081F308BF2033A3F10B03B3F120020CDA52
:1002D0000C3208DD02F1140CC2F10C0201FA0CF030
:1002E00021FA02F10CE002F11402D8BFC2F1200C95
:1002F00001FA02F120FA0CFCDCBF41EA0C0190404B
:10030000E41AA2BF01EB0451294330BD6FEA040493
:100310001F3C1CDA0C340EDC04F11404C4F120027E
:1003200020FA04F001FA02F340EA030021FA04F390
:1003300045EA030130BDC4F10C04C4F1200220FAE7
:1003400002F001FA04F340EA0300294630BD21FA25
:1003500004F0294630BD94F0000F83F4801306BFEB
:1003600081F480110134013D4EE77FEA645C18BFDF
:100370007FEA655C29D094EA050F08BF90EA020F76
:1003800005D054EA000C04BF1946104630BD91EA6E
:10039000030F1EBF0021002030BD5FEA545C05D171
:1003A0004000494128BF41F0004130BD14F58004B0
:1003B0003CBF01F5801130BD01F0004545F0FE4124
:1003C00041F470014FF0000030BD7FEA645C1ABF59
:1003D000194610467FEA655C1CBF0B46024650EA90
:1003E000013406BF52EA033591EA030F41F40021BC
:1003F00030BD00BF90F0000F04BF0021704730B542
:100400004FF4806404F132044FF000054FF0000116
:1004100050E700BF90F0000F04BF0021704730B5D7
:100420004FF4806404F1320410F0004548BF4042AC
:100430004FF000013EE700BF42004FEAE2014FEA01
:1004400031014FEA02701FBF12F07F4393F07F4FDC
:1004500081F06051704732F07F4208BF704793F0DF
:100460007F4F04BF41F40021704730B54FF46074F2
:1004700001F0004521F000411CE700BF50EA0102F5
:1004800008BF704730B54FF000050AE050EA01029E
:1004900008BF704730B511F0004502D5404261EB0E
:1004A00041014FF4806404F132045FEA915C3FF44F
:1004B000D8AE4FF003025FEADC0C18BF03325FEAEC
:1004C000DC0C18BF033202EBDC02C2F1200300FA9D
:1004D00003FC20FA02F001FA03FE40EA0E0021FAC2
:1004E00002F11444BDE600BF70B54FF0FF0C4CF4B0
:1004F000E06C1CEA11541DBF1CEA135594EA0C0F62
:1005000095EA0C0F00F0DEF82C4481EA030621EA9C
:100510004C5123EA4C5350EA013518BF52EA0335D7
:1005200041F4801143F4801338D0A0FB02CE4FF089
:100530000005E1FB02E506F00042E0FB03E54FF0B9
:100540000006E1FB03569CF0000F18BF4EF0010EB1
:10055000A4F1FF04B6F5007F64F5407404D25FEAAD
:100560004E0E6D4146EB060642EAC62141EA555160
:100570004FEAC52040EA5E504FEACE2EB4F1FD0CA2
:1005800088BFBCF5E06F1ED8BEF1004F08BF5FEA20
:10059000500E50F1000041EB045170BD06F00046D2
:1005A00046EA010140EA020081EA0301B4EB5C047F
:1005B000C2BFD4EB0C0541EA045170BD41F4801177
:1005C0004FF0000E013C00F3AB8014F1360FDEBF9C
:1005D000002001F0004170BDC4F10004203C35DA78
:1005E0000C341BDC04F11404C4F1200500FA05F3FB
:1005F00020FA04F001FA05F240EA020001F000429C
:1006000021F0004110EBD37021FA04F642EB060111
:100610005EEA430E08BF20EAD37070BDC4F10C043B
:10062000C4F1200500FA04F320FA05F001FA04F2FF
:1006300040EA020001F0004110EBD37041F10001EB
:100640005EEA430E08BF20EAD37070BDC4F12005F6
:1006500000FA05F24EEA020E20FA04F301FA05F25E
:1006600043EA020321FA04F001F0004121FA04F206
:1006700020EA020000EBD3705EEA430E08BF20EAD6
:10068000D37070BD94F0000F0FD101F00046400010
:1006900041EB010111F4801F08BF013CF7D041EA92
:1006A000060195F0000F18BF704703F00046520096
:1006B00043EB030313F4801F08BF013DF7D043EA67
:1006C0000603704794EA0C0F0CEA135518BF95EA1D
:1006D0000C0F0CD050EA410618BF52EA4306D1D1A4
:1006E00081EA030101F000414FF0000070BD50EAC3
:1006F000410606BF1046194652EA430619D094EA4D
:100700000C0F02D150EA013613D195EA0C0F05D136
:1007100052EA03361CBF104619460AD181EA03018A
:1007200001F0004141F0FE4141F470014FF0000042
:1007300070BD41F0FE4141F4780170BD70B54FF0DD
:10074000FF0C4CF4E06C1CEA11541DBF1CEA13555D
:1007500094EA0C0F95EA0C0F00F0A7F8A4EB05043F
:1007600081EA030E52EA03354FEA013100F0888036
:100770004FEA03334FF0805545EA131343EA1263FF
:100780004FEA022245EA111545EA10654FEA0026B4
:100790000EF000419D4208BF964244F1FD0404F56D
:1007A000407402D25B084FEA3202B61A65EB0305C9
:1007B0005B084FEA32024FF480104FF4002CB6EB86
:1007C000020E75EB030E22BFB61A754640EA0C0006
:1007D0005B084FEA3202B6EB020E75EB030E22BF46
:1007E000B61A754640EA5C005B084FEA3202B6EB87
:1007F000020E75EB030E22BFB61A754640EA9C0046
:100800005B084FEA3202B6EB020E75EB030E22BF15
:10081000B61A754640EADC0055EA060E18D04FEAD3
:10082000051545EA16754FEA06164FEAC30343EA73
:1008300052734FEAC2025FEA1C1CC0D111F4801F40
:100840000BD141EA00014FF000004FF0004CB6E739
:1008500011F4801F04BF01430020B4F1FD0C88BFD8
:10086000BCF5E06F3FF6AFAEB5EB030C04BFB6EBE3
:10087000020C5FEA500C50F1000041EB045170BDD6
:100880000EF0004E4EEA113114EB5C04C2BFD4EB03
:100890000C0541EA045170BD41F480114FF0000E87
:1008A000013C90E645EA060E8DE60CEA135594EA03
:1008B0000C0F08BF95EA0C0F3FF43BAF94EA0C0F06
:1008C0000AD150EA01347FF434AF95EA0C0F7FF47B
:1008D00025AF104619462CE795EA0C0F06D152EACF
:1008E00003353FF4FDAE1046194622E750EA4106B3
:1008F00018BF52EA43067FF4C5AE50EA41047FF4C4
:100900000DAF52EA43057FF4EBAE12E74FF0FF3C28
:1009100006E000BF4FF0010C02E000BF4FF0010CF9
:100920004DF804CD4FEA410C7FEA6C5C4FEA430C72
:1009300018BF7FEA6C5C1BD001B050EA410C0CBFC1
:1009400052EA430C91EA030F02BF90EA020F002023
:10095000704710F1000F91EA030F58BF994208BF8A
:1009600090422CBFD8176FEAE37040F00100704747
:100970004FEA410C7FEA6C5C02D150EA013C07D19E
:100980004FEA430C7FEA6C5CD6D152EA033CD3D0E9
:100990005DF8040B704700BF8446104662468C46E3
:1009A0001946634600E000BF01B5FFF7B7FF002816
:1009B00048BF10F1000F01BD4DF808EDFFF7F4FF3F
:1009C0000CBF012000205DF808FB00BF4DF808EDCA
:1009D000FFF7EAFF34BF012000205DF808FB00BFED
:1009E0004DF808EDFFF7E0FF94BF012000205DF80F
:1009F00008FB00BF4DF808EDFFF7CEFF94BF0120C4
:100A000000205DF808FB00BF4DF808EDFFF7C4FFBC
:100A100034BF012000205DF808FB00BF4FEA410C05
:100A20007FEA6C5C02D150EA013C0AD14FEA430CE8
:100A30007FEA6C5C02D152EA033C02D14FF0000025
:100A400070474FF0010070474FEA410212F5001263
:100A500015D211D56FF47873B3EB625212D94FEA05
:100A6000C12343F0004343EA505311F0004F23FAEF
:100A700002F018BF404270474FF00000704750EA44
:100A8000013005D111F0004008BF6FF00040704701
:100A90004FF00000704700BF4A0011D212F500125B
:100AA00011D20DD56FF47873B3EB62520ED44FEAC6
:100AB000C12343F0004343EA505323FA02F0704746
:100AC0004FF00000704750EA013002D14FF0FF3084
:100AD00070474FF0000070474FEA4102B2F1E04327
:100AE00024BFB3F5001CDCF1FE5C0DD901F0004C15
:100AF0004FEAC0024CEA5070B2F1004F40EB830065
:100B000008BF20F00100704711F0804F21D113F190
:100B10003872BCBF01F00040704741F480114FEAC9
:100B20005252C2F11802C2F1200C10FA0CF320FA52
:100B300002F018BF40F001004FEAC1234FEAD3236F
:100B400003FA0CFC40EA0C0023FA02F34FEA4303D9
:100B5000CCE77FEA625307D150EA01331EBF4FF062
:100B6000FE4040F44000704701F0004040F0FE407D
:100B700040F40000704700BF80F0004002E000BF7A
:100B800081F0004142001FBF5FEA410392EA030F78
:100B90007FEA226C7FEA236C6AD04FEA1262D2EBC2
:100BA0001363C1BFD218414048404140B8BF5B42C7
:100BB000192B88BF704710F0004F40F4000020F060
:100BC0007F4018BF404211F0004F41F4000121F076
:100BD0007F4118BF494292EA030F3FD0A2F10102C0
:100BE00041FA03FC10EB0C00C3F1200301FA03F1FE
:100BF00000F0004302D5494260EB4000B0F5000F21
:100C000013D3B0F1807F06D340084FEA310102F1DF
:100C10000102FE2A51D2B1F1004F40EBC25008BF91
:100C200020F0010040EA03007047490040EB00005B
:100C300010F4000FA2F10102EDD1B0FA80FCACF18A
:100C4000080CB2EB0C0200FA0CF0AABF00EBC25089
:100C500052421843BCBFD0401843704792F0000F77
:100C600081F4000106BF80F400000132013BB5E7CA
:100C70004FEA41037FEA226C18BF7FEA236C21D040
:100C800092EA030F04D092F0000F08BF08467047A5
:100C900090EA010F1CBF0020704712F07F4F04D173
:100CA000400028BF40F00040704712F100723CBF86
:100CB00000F50000704700F0004343F0FE4040F4B0
:100CC000000070477FEA226216BF08467FEA23636E
:100CD0000146420206BF5FEA412390EA010F40F459
:100CE000800070474FF0000304E000BF10F00043A5
:100CF00048BF40425FEA000C08BF704743F096438C
:100D000001464FF000001CE050EA010208BF7047A6
:100D10004FF000030AE000BF50EA010208BF70472D
:100D200011F0004302D5404261EB41015FEA010C42
:100D300002BF84460146002043F0B64308BFA3F13A
:100D40008053A3F50003BCFA8CF2083AA3EBC2531C
:100D500010DB01FA02FC634400FA02FCC2F120023B
:100D6000BCF1004F20FA02F243EB020008BF20F072
:100D70000100704702F1200201FA02FCC2F12002D8
:100D800050EA4C0021FA02F243EB020008BF20EACD
:100D9000DC7070474FF0FF0C1CEAD0521EBF1CEAFB
:100DA000D15392EA0C0F93EA0C0F6FD01A4480EAE9
:100DB000010C400218BF5FEA41211ED04FF00063D2
:100DC00043EA501043EA5111A0FB01310CF00040FE
:100DD000B1F5000F3EBF490041EAD3715B0040EA24
:100DE000010062F17F02FD2A1DD8B3F1004F40EBF4
:100DF000C25008BF20F00100704790F0000F0CF0C7
:100E0000004C08BF49024CEA502040EA51207F3A8A
:100E1000C2BFD2F1FF0340EAC250704740F4000065
:100E20004FF00003013A5DDC12F1190FDCBF00F056
:100E300000407047C2F10002410021FA02F1C2F104
:100E4000200200FA02FC5FEA310040F1000053EAA0
:100E50004C0308BF20EADC70704792F0000F00F0EE
:100E6000004C02BF400010F4000F013AF9D040EAF4
:100E70000C0093F0000F01F0004C02BF490011F488
:100E8000000F013BF9D041EA0C018FE70CEAD15386
:100E900092EA0C0F18BF93EA0C0F0AD030F0004C06
:100EA00018BF31F0004CD8D180EA010000F00040BA
:100EB000704790F0000F17BF90F0004F084691F078
:100EC000000F91F0004F14D092EA0C0F01D14202B2
:100ED0000FD193EA0C0F03D14B0218BF084608D17B
:100EE00080EA010000F0004040F0FE4040F40000C5
:100EF000704740F0FE4040F4400070474FF0FF0C58
:100F00001CEAD0521EBF1CEAD15392EA0C0F93EA9E
:100F10000C0F69D0A2EB030280EA010C49024FEAF0
:100F2000402037D04FF0805343EA111143EA1013A9
:100F30000CF000408B4238BF5B0042F17D024FF461
:100F4000000C8B4224BF5B1A40EA0C00B3EB510F3C
:100F500024BFA3EB510340EA5C00B3EB910F24BF25
:100F6000A3EB910340EA9C00B3EBD10F24BFA3EBAA
:100F7000D10340EADC001B0118BF5FEA1C1CE0D172
:100F8000FD2A3FF650AF8B4240EBC25008BF20F025
:100F9000010070470CF0004C4CEA50207F32C2BF79
:100FA000D2F1FF0340EAC250704740F400004FF016
:100FB0000003013A37E792F0000F00F0004C02BF47
:100FC000400010F4000F013AF9D040EA0C0093F011
:100FD000000F01F0004C02BF490011F4000F013B6B
:100FE000F9D041EA0C0195E70CEAD15392EA0C0FD3
:100FF00008D142027FF47DAF93EA0C0F7FF470AF0B
:10100000084676E793EA0C0F04D14B023FF44CAF4D
:1010100008466EE730F0004C18BF31F0004CCAD1E2
:1010200030F000427FF45CAF31F000437FF43CAF1E
:101030005FE700BF4FF0FF3C06E000BF4FF0010C40
:1010400002E000BF4FF0010C4DF804CD4FEA400222
:101050004FEA41037FEA226C18BF7FEA236C11D06C
:1010600001B052EA530C18BF90EA010F58BFB2EB1F
:10107000030088BFC81738BF6FEAE17018BF40F09F
:10108000010070477FEA226C02D15FEA402C05D153
:101090007FEA236CE4D15FEA412CE1D05DF8040BD8
:1010A000704700BF844608466146FFE70FB5FFF76B
:1010B000C9FF002848BF10F1000F0FBD4DF808ED23
:1010C000FFF7F4FF0CBF012000205DF808FB00BF14
:1010D0004DF808EDFFF7EAFF34BF012000205DF86E
:1010E00008FB00BF4DF808EDFFF7E0FF94BF0120BB
:1010F00000205DF808FB00BF4DF808EDFFF7D2FFB8
:1011000094BF012000205DF808FB00BF4DF808EDFA
:10111000FFF7C8FF34BF012000205DF808FB00BFC7
:101120004FEA4002B2F1FE4F0FD34FF09E03B3EBF4
:1011300012620DD94FEA002343F0004310F0004F34
:1011400023FA02F018BF404270474FF0000070478A
:1011500012F1610F01D1420205D110F0004008BF29
:101160006FF0004070474FF00000704742000ED211
:10117000B2F1FE4F0BD34FF09E03B3EB126209D4D2
:101180004FEA002343F0004323FA02F070474FF088
:101190000000704712F1610F01D1420202D14FF0FD
:1011A000FF3070474FF00000704700BF80B500AFC0
:1011B000154B1B68144A43F001031360124B5A6825
:1011C0001149124B13404B600F4B1B680E4A23F022
:1011D000847323F4803313600B4B1B680A4A23F497
:1011E00080231360084B5B68074A23F4FE035360B7
:1011F000054B4FF41F029A6000F00CF8044B4FF0BF
:1012000000629A6000BF80BD001002400000FFF83D
:1012100000ED00E080B500AF00F002F800BF80BD37
:1012200080B483B000AF00237B6000233B60394B68
:101230001B68384A43F480331360364B1B6803F451
:1012400000333B607B6801337B603B68002B03D13C
:101250007B68B3F5A06FF0D12E4B1B6803F400330D
:10126000002B02D001233B6001E000233B603B6880
:10127000012B49D1284B1B68274A43F01003136008
:10128000254B1B68244A23F003031360224B224A98
:101290001B6813601F4B5B681E4A43F0A00353603A
:1012A0001C4B1C4A5B6853601A4B1A4A5B685360BC
:1012B000184B5B68174A23F47C135360154B5B682B
:1012C000144A43F498135360124B1B68114A43F0BD
:1012D0008073136000BF0F4B1B6803F00073002B7B
:1012E000F9D00C4B5B680B4A23F003035360094BA6
:1012F0005B68084A43F00203536000BF054B5B681C
:1013000003F00C03082BF9D100BF0C37BD4680BC9D
:10131000704700BF001002400020024080B483B03C
:1013200000AF0346FB71FB7903F01F03012202FAB1
:1013300003F1054A97F907305B0942F8231000BF13
:101340000C37BD4680BC704700E100E080B500AFBF
:10135000264B5B68254A23F440435360234B9B692B
:10136000224A43F400739361214B1B69204A43F0E6
:10137000020313611E4BDB6A1D4A23F47003D36220
:101380001B4B5B6B1A4A23F01F035363184B9B687C
:10139000174A43F480139360154B9B68144A43F437
:1013A00060239360124B9B68114A43F001039360E2
:1013B00042F2107007F0DAFE0D4B9B680C4A43F0C6
:1013C0000403936000BF0A4B9B6803F00403002BE7
:1013D000F9D1074B5B68064A43F0200353601220A3
:1013E000FFF79CFF00F006F800BF80BD0010024030
:1013F0000024014080B400AF034B00221A6000BFFC
:10140000BD4680BC704700BF2403424280B400AF99
:10141000034B01221A6000BFBD4680BC704700BF6D
:101420002403424280B500AFFFF7F0FF0A2007F027
:101430009DFE044B9B68034A43F48003936000BF06
:1014400080BD00BF0024014080B500AF3E4BDB6C87
:101450001846FFF747FC02463C4B19461046FFF77B
:1014600099FC03464FF08B411846FFF747FD0346B2
:1014700019461846FFF786FB03461A46344B1A6096
:10148000FFF7B8FF324B1B681846FEF7D5FF26A3BF
:10149000D3E90023FFF7B8FA0346002B04D0042158
:1014A000012001F0C5FA3BE0294B1B681846FEF706
:1014B000C3FF1FA3D3E90023FFF7A6FA0346002BBF
:1014C00004D00321012001F0B3FA29E0204B1B686E
:1014D0001846FEF7B1FF18A3D3E90023FFF794FAEB
:1014E0000346002B04D00221012001F0A1FA17E0ED
:1014F000174B1B681846FEF79FFF11A3D3E9002383
:10150000FFF782FA0346002B04D00121012001F0ED
:101510008FFA05E00021012001F08AFA012300E0A2
:101520000023184680BD00BF3333333333330F40BD
:10153000CDCCCCCCCCCC0C406666666666660A40E8
:10154000CDCCCCCCCCCC084000240140333353402C
:101550007001002080B500AF084B1B780133DAB270
:10156000064B1A70054B1B78092B04D9034B00223C
:101570001A70FFF757FF00BF80BD00BFE4000020D6
:1015800080B400AF024B1B681846BD4680BC704754
:101590007001002080B483B000AF554B9B68554A62
:1015A0001360544B1B6803F03E03524A1360514BC7
:1015B0001B685B084F4A13600023FB7120E04D4B12
:1015C0001A68FB7922FA03F303F00103002B0AD017
:1015D000FA79FB794849895C484AD154FB79464AF3
:1015E0000121D15409E0FA79FB794349895C434AE6
:1015F000D154FB79404A0021D154FB790133FB716E
:10160000FB79042BDBD90023BB7167E0BB793A4A35
:10161000D35C002B23D1BB79394A32F813304FF613
:10162000FF7293421BD0BB79354A32F81320013246
:1016300091B2334A22F81310BA79BB793149895CE7
:10164000314AD154BB792E4A32F813304B2B8CBF20
:1016500001230023DAB2BB7911462A4AD154BB795F
:10166000254AD35C012B26D1BB79244AD35C002BBD
:1016700021D1BB79224A32F81330BB80BB79204A92
:10168000002122F81310BB791E4AD35C002B0CBF3B
:1016900001230023DAB2BB88042B8CBF0123002373
:1016A000DBB21340DBB2002B05D0BB795B00DBB2B1
:1016B0000133DBB216E0BB79124AD35C012B0AD1AD
:1016C000BB79114AD35C002B05D1BB790133DBB266
:1016D0005B00DBB206E0BB790133BB71BB79042B45
:1016E00094D9002318460C37BD4680BC704700BF14
:1016F00000080140E8000020000000200800002051
:10170000EC000020F80000200001002080B483B02D
:1017100000AF0346FB71FB7903F01F03012202FABD
:1017200003F1054A97F907305B0942F8231000BF1F
:101730000C37BD4680BC704700E100E080B400AFCC
:10174000984B9B69974A43F004039361964B1B683F
:10175000954A23F003031360934B1B68924A23F0CE
:101760000C031360904B1B688F4A23F03003136007
:101770008D4B1B688C4A23F0400313608A4B1B6817
:10178000894A43F080031360874BDB68864A43F045
:101790000203D360844B1B68834A23F440731360B5
:1017A000814B1B68804A23F4806313607E4B1B6867
:1017B0007D4A43F4006313607B4BDB687A4A43F055
:1017C0000403D360784B1B68774A23F440531360BB
:1017D000754B1B68744A23F480431360724B1B687B
:1017E000714A43F4004313606F4BDB686E4A43F069
:1017F0000803D3606C4B1B686B4A23F440331360BF
:10180000694B1B68684A23F480231360664B1B688E
:10181000654A43F400231360634BDB68624A43F07C
:101820001003D360604B1B685F4A23F440131360BE
:101830005D4B1B685C4A23F4800313605A4B1B68A2
:10184000594A43F400031360574BDB68564A43F090
:101850002003D360544B1B68534A23F080731360FA
:10186000514B1B68504A43F0007313604E4B1B688A
:101870004D4A23F0406313604B4B1B684A4A43F0C8
:1018800000631360484B1B68474A23F08053136082
:10189000454B1B68444A43F000531360424B1B689E
:1018A000414A23F0804313603F4B1B683E4A43F09C
:1018B000004313603C4B5B683B4A23F001035360D9
:1018C000394B5B68384A43F002035360364B5B6820
:1018D000354A23F00C035360334B5B68324A23F0E4
:1018E00010035360304B5B682F4A43F02003536072
:1018F0002D4B5B682C4A23F0400353602A4B5B68F6
:10190000294A43F080035360274B5B68264A23F43F
:1019100040735360244B5B68234A43F480635360F5
:10192000214B5B68204A23F4006353601E4B5B68C5
:101930001D4A23F4405353601B4B5B681A4A23F43F
:1019400080435360184B5B68174A43F4004353606D
:10195000154BDB68144A23F40063D360124B5B68B9
:10196000114A23F0805353600F4B5B680E4A43F0DB
:10197000005353600C4B5B680B4A23F040435360A9
:10198000084B9B69074A43F008039361074B1B68A8
:10199000064A23F001031360044B1B68034A43F01B
:1019A000020305E00010024000080140000C014065
:1019B0001360984B1B68974A23F00C031360954BF8
:1019C0001B68944A23F010031360924B1B68914AE2
:1019D00043F0200313608F4B1B688E4A23F0C00333
:1019E00013608C4B1B688B4A23F480531360894B24
:1019F0001B68884A43F400531360864B1B68854A72
:101A000023F480431360834B1B68824A43F40043F2
:101A10001360804B1B687F4A23F4403313607D4B77
:101A20001B687C4A43F4802313607A4B1B68794A15
:101A300023F400231360774B1B68764A23F480134A
:101A40001360744B1B68734A43F400131360714BAB
:101A50001B68704A23F4800313606E4B1B686D4A49
:101A600043F4000313606B4B1B686A4A23F0407316
:101A70001360684B1B68674A23F080631360654BF3
:101A80001B68644A43F000631360624BDB68614A81
:101A900043F04003D3605F4B1B685E4A23F0405322
:101AA00013605C4B1B685B4A23F080431360594B07
:101AB0001B68584A43F000431360564BDB68554A95
:101AC00043F08003D360534B5B68524A23F0030317
:101AD0005360504B5B684F4A23F0040353604D4BF7
:101AE0005B684C4A43F0080353604A4BDB68494A41
:101AF00043F48073D360474B5B68464A23F010037E
:101B00005360444B5B68434A43F020035360414BAE
:101B10005B68404A23F0C00353603E4B5B683D4A1C
:101B200023F4807353603B4B5B683A4A43F4007381
:101B30005360384B5B68374A43F440635360354B1E
:101B40005B68344A23F480535360324B5B68314AFC
:101B500043F4005353602F4B5B682E4A43F44043D9
:101B600053602C4B5B682B4A23F480335360294B22
:101B70005B68284A43F400335360264B5B68254A70
:101B800023F440235360234B5B68224A23F48013E1
:101B90005360204B5B681F4A43F4001353601D4B96
:101BA0005B681C4A23F4800353601A4B5B68194A34
:101BB00043F400035360174B5B68164A23F08073AD
:101BC0005360144B5B68134A43F000735360114B2E
:101BD0005B68104A23F0406353600E4B5B680D4A0C
:101BE00023F0805353600B4B5B680A4A43F0005369
:101BF0005360084B5B68074A23F080435360054BF2
:101C00005B68044A43F00043536000BFBD4680BC9C
:101C1000704700BF000C014080B500AF194B9B69B5
:101C2000184A43F001039361174B174A1B6913616C
:101C3000164B9B68154A43F400639360134B1B6873
:101C4000124A43F4006313602820FFF75FFD0E4B38
:101C50001B690D4A43F0010313610C4B9B680B4A4F
:101C600043F480739360094B1B68084A43F4807304
:101C700013601720FFF74AFD044B054A5A6100BF65
:101C800080BD00BF00100240000001400004014080
:101C9000FFFF070080B400AF034B02221A6100BFB0
:101CA000BD4680BC704700BF000C014080B400AF4F
:101CB000034B4FF400321A6100BFBD4680BC704731
:101CC000000C014080B400AF034B01221A6100BF39
:101CD000BD4680BC704700BF000C014080B400AF1F
:101CE000034B4FF480321A6100BFBD4680BC704781
:101CF000000C014080B400AF034B4FF000421A616A
:101D000000BFBD4680BC70470008014080B400AFF2
:101D1000034B4FF400421A6100BFBD4680BC7047C0
:101D20000008014080B400AF0C4B5B680B4A23F401
:101D300080335360094B5B68084A43F400335360B7
:101D4000064B5B68054A23F440235360034B4FF076
:101D500080521A6100BFBD4680BC70470008014038
:101D600080B400AF0A4B5B68094A23F440335360E8
:101D7000074B5B68064A23F400235360044B5B68FF
:101D8000034A43F48023536000BFBD4680BC7047C4
:101D90000008014080B400AF034B4FF080721A611D
:101DA00000BFBD4680BC70470008014080B400AF52
:101DB000034B4FF480721A6100BFBD4680BC704770
:101DC0000008014080B400AF034B4FF480421A6119
:101DD00000BFBD4680BC7047000C014080B400AF1E
:101DE000034B4FF080421A6100BFBD4680BC704774
:101DF000000C014080B400AF034B4FF080521A61D9
:101E000000BFBD4680BC7047000C014080B400AFED
:101E1000034B4FF480521A6100BFBD4680BC70472F
:101E2000000C014080B400AF034B4FF400721A6104
:101E300000BFBD4680BC7047000C014080B400AFBD
:101E4000034B4FF000721A6100BFBD4680BC704763
:101E5000000C014080B586B000AF07F110030022EE
:101E60001A605A6003237B74104B1B88BB81104A95
:101E70003B1D92E8030083E803003A1D0823162166
:101E8000062000F017F807F110020823862106202B
:101E900000F010F807F10C0202231121062000F0D7
:101EA00009F800BF1837BD4680BD00BF38D700080D
:101EB0003CD7000880B485B000AF3A601A460346AC
:101EC000FB710B46BB7113467B710023FB73002330
:101ED000BB73304BB5221A702E4B62225A702D4ABA
:101EE000FB7993702B4ABB79D3702A4A7B791371A3
:101EF000284B00225A7100237B730AE07B7B3A68EF
:101F00001A447B7B06331178224AD1547B7B013300
:101F10007B737A7B7B799A42F0D302233B730CE08C
:101F20003B7B1C4AD25CFB7B1344FB73BA7BFB7B81
:101F30001344BB733B7B01333B733A7B7B790633A2
:101F40009A42EDDB7B7906331249FA7BCA547B79DE
:101F500007331049BA7BCA540023FB7210E000BF5C
:101F60000D4B1B889BB203F08003002BF8D0FB7A4B
:101F7000084AD25C084B92B29A80FB7A0133FB721A
:101F8000FA7A7B7908339A42E9DB00BF1437BD4601
:101F900080BC7047080100200038014080B500AFC8
:101FA0006C220021114808F090FB00F0C3F90346B1
:101FB000002B17D000F098FA0346002B12D000F047
:101FC00009FB0346002B0DD000F07AFB0346002BE3
:101FD00008D040220021064808F077FB00F00AF8FC
:101FE000012300E00023184680BD00BFD00500207B
:101FF0008001002098B500AF8B4B1A788B4B1A707C
:10200000894B5A78894B5A70884B00229A708748BE
:1020100007F05CFA0346DAB2854B1A70824B9A7865
:10202000824B1A70804BDA78804B5A707F4B0022BB
:102030009A707E4807F04AFA0346DAB27C4B5A702F
:10204000794B1A79794B1A70774B5A79774B5A70CA
:10205000764B00229A70754807F038FA0346DAB2D8
:10206000734B9A70704B1A7B704B1A706E4B5A7B85
:102070006E4B5A706D4B00229A706C4807F026FA2E
:102080000346DAB26A4BDA70674B9A7B674B1A7079
:10209000654BDA7B654B5A70644B00229A7063483B
:1020A00007F014FA0346DAB2614B1A715E4B1A7CE0
:1020B0005E4B1A705C4B5A7C5C4B5A705B4B002237
:1020C0009A705A4807F002FA0346DAB2584B5A712E
:1020D000554B5A7D554B1A70534B9A7D534B5A7042
:1020E000524B00229A70514807F0F0F90346DAB2D9
:1020F000504B1A70504807F049F802464F4B1A608F
:102100004E4B1B684E491846FEF7F8FE03461A462A
:102110004A4B1A60474B1B781846FEF7E7FD02460C
:10212000464B1B6819461046FEF72CFD03461A461F
:10213000424B1A603C4B93F82130532B10D13F4B4C
:102140001B681846FEF778F903460C4618462146E8
:10215000FEF7C2FC034683F00043354A936003E078
:10216000364B1B68324A9360314B9B681846FEF72A
:1021700063F9344B18CB1A462346FEF7B5F90346EC
:102180000C462B4AC2E90434274B93F82520274BF1
:102190001A70254B93F82620244B5A70224B93F843
:1021A0002720224B9A70214B0022DA701F4807F03B
:1021B0008DF90346DAB21F4B1A70234806F0E6FF8A
:1021C00002461E4B1A601D4B1B681D491846FEF740
:1021D00095FE03461A46194B1A60164B1B78184693
:1021E000FEF784FD0246154B1B6819461046FEF7A4
:1021F000C9FC03461A46114B1A600B4B93F8323058
:10220000572B23D10D4B1B681846FEF715F90346D3
:102210000C4618462146FEF75FFC034683F0004358
:10222000034A936116E000BFD0050020C0010020E2
:10223000800100203C060020E705002078010020F6
:102240000000704270DC0008F80500202D4B1B6870
:102250002D4A93612C4B9B691846FEF7EDF82B4BEA
:1022600018CB1A462346FEF73FF903460C46264A8A
:10227000C2E90834264806F089FF0246254B194674
:102280001046FEF787FD03461A461F4B9A62224806
:1022900006F07CFF02461C4BDA62204806F076FF0F
:1022A0000246194B1A631E4807F010F90346DAB2CA
:1022B000154B83F834201B4807F008F90346DAB2BF
:1022C000114B83F83520184B93F84830412B04D13B
:1022D0000D4B012283F8362003E00B4B002283F8DC
:1022E0003620124807F0F2F80346DAB2064B83F8BC
:1022F00037200F4806F04AFF0246034B9A6300BF9F
:1023000098BD00BF780100208001002070DC00082B
:1023100006060020560EED3F100600201C06002089
:10232000260600202B060020D005002030060020C5
:102330003406002080B582B000AF0023FB7100237B
:10234000BB710023BB8002E0BB880133BB80BB882C
:10235000634AD35C242B11D1BB880333604AD35C1E
:10236000522B0BD1BB8804335D4AD35C4D2B05D176
:10237000BB8805335A4AD35C432B03D0BB88B3F5E3
:10238000806FE1D3BB88184600F002FA0346002BA9
:1023900001D10023A0E0BB8806337B8096E07B88D8
:1023A0004F4AD35C2A2B01D1012395E07B884C4A0C
:1023B000D35C2C2B05D1FB790133FB710023BB715E
:1023C00081E0FB79013B082B7CD801A252F823F075
:1023D000F5230008092400082124000837240008F8
:1023E0004F240008672400087F2400089724000871
:1023F000AF2400087A88BB79591CB9711946384B4B
:102400009A5C384B5A545EE07A88BB79591CB97192
:102410001946334B9A5C334B0B4483F8482052E007
:102420007A88BB79591CB97119462D4B9A5C2D4B92
:102430000B445A7547E07A88BB79591CB971194623
:10244000274B9A5C274B0B4483F821203BE07A888A
:10245000BB79591CB9711946214B9A5C214B0B442D
:1024600083F825202FE07A88BB79591CB971194669
:102470001B4B9A5C1B4B0B4483F8322023E07A8879
:10248000BB79591CB9711946154B9A5C154B0B4415
:1024900083F8362017E07A88BB79591CB971194640
:1024A0000F4B9A5C0F4B0B4483F840200BE07A886B
:1024B000BB79591CB9711946094B9A5C094B0B44FD
:1024C0001A7300E000BF7B8801337B807B88B3F503
:1024D000806FFFF464AF012318460837BD4680BD06
:1024E000D0010020D005002080B582B000AF0023CD
:1024F000FB710023BB710023BB8002E0BB8801336A
:10250000BB80BB88314AD35C242B11D1BB880333F9
:102510002E4AD35C472B0BD1BB8804332B4AD35CA8
:10252000472B05D1BB880533284AD35C412B03D008
:10253000BB88B3F5806FE1D3BB88184600F028F95B
:102540000346002B01D100233BE0BB8806337B8090
:1025500032E07B881D4AD35C2A2B01D1012330E075
:102560007B881A4AD35C2C2B05D1FB790133FB7194
:102570000023BB711DE0FB79072B02D0092B0CD087
:1025800017E07A88BB79591CB97119460F4B9A5CD0
:102590000F4B0B4483F85B200BE07A88BB79591C06
:1025A000B9711946094B9A5C094B0B4483F84C20CE
:1025B00000BF7B8801337B807B88B3F5806FC8D3F5
:1025C000012318460837BD4680BD00BFD00100205A
:1025D000D005002080B582B000AF0023FB7100233E
:1025E000BB710023BB8002E0BB880133BB80BB888A
:1025F000314AD35C242B11D1BB8803332E4AD35CE0
:10260000472B0BD1BB8804332B4AD35C532B05D10A
:10261000BB880533284AD35C412B03D0BB88B3F574
:10262000806FE1D3BB88184600F0B2F80346002B58
:1026300001D100233BE0BB8806337B8032E07B88FE
:102640001D4AD35C2A2B01D1012330E07B881A4A32
:10265000D35C2C2B05D1FB790133FB710023BB71BB
:102660001DE0FB79022B02D00F2B0CD017E07A88EB
:10267000BB79591CB97119460F4B9A5C0F4B0B442F
:1026800083F860200BE07A88BB79591CB971194630
:10269000094B9A5C094B0B4483F8642000BF7B888C
:1026A00001337B807B88B3F5806FC8D30123184644
:1026B0000837BD4680BD00BFD0010020D0050020F6
:1026C00080B582B000AF0023FB710023BB710023F3
:1026D000BB8002E0BB880133BB80BB882A4AD35C45
:1026E000242B11D1BB880333274AD35C472B0BD152
:1026F000BB880433244AD35C532B05D1BB880533F4
:10270000214AD35C562B03D0BB88B3F5806FE1D34D
:10271000BB88184600F03CF80346002B01D100238B
:102720002DE0BB8806337B8024E07B88164AD35C8F
:102730002A2B01D1012322E07B88134AD35C2C2B66
:1027400005D1FB790133FB710023BB710FE0FB79ED
:10275000032B00D00BE07A88BB79591CB97119465C
:10276000094B9A5C094B0B4483F8562000BF7B88C9
:1027700001337B807B88B3F5806FD6D30123184665
:102780000837BD4680BD00BFD0010020D005002025
:1027900080B485B000AF0346FB800023FB730023A9
:1027A000BB73FB880133FB800EE0FB88274AD25CB9
:1027B000FB7B5340FB73FB880133FB80FB88B3F545
:1027C000806F01D300233BE0FB88204AD35C2A2B97
:1027D000EBD1FB880133FB80FB881C4AD35C402B88
:1027E00007D9FB88194AD35C373BDBB21B01BB73AB
:1027F00006E0FB88154AD35C303BDBB21B01BB73A0
:10280000FB880133FB80FB88104AD35C402B08D93E
:10281000FB880E4AD25CBB7B1344DBB2373BBB73F5
:1028200007E0FB88094AD25CBB7B1344DBB2303B38
:10283000BB73BA7BFB7B9A4201D1012300E00023EA
:1028400018461437BD4680BC704700BFD001002039
:1028500080B400AF034B93F836301846BD4680BCB9
:10286000704700BF8001002080B400AF024B1846C3
:10287000BD4680BC704700BFD001002080B400AFCF
:10288000024B1846BD4680BC704700BFD0050020F3
:1028900080B400AF024B1846BD4680BC704700BFF5
:1028A0008001002080B500AF184BDB69174A43F464
:1028B0008003D361164B9B889BB2154A23F03F03DC
:1028C0009BB29380124B9B889BB2114A43F0020348
:1028D0009BB293800E4B9B8B9BB20D4A43F00F0330
:1028E0009BB293830A4B1B8C9BB2094A43F00403AF
:1028F0009BB21384064B1B889BB2054A43F001032D
:102900009BB2138000F006F800BF80BD00100240AB
:102910000058004080B400AF034B00221A6000BF93
:10292000BD4680BC704700BFD803424280B400AFB0
:10293000034B01221A6000BFBD4680BC704700BF38
:10294000D803424280B582B000AF0123FB7117E08B
:10295000FA7913469B0013449B002D4A134414221A
:102960000021184607F0B1FEFB79DB00294A134429
:1029700008220021184607F0A8FEFB790133FB71FD
:10298000FB79062BE4D906F079FE0246224B1A6049
:10299000FFF77EFF0246214B1A6006F0A7FA0246B7
:1029A0001F4B1A6006F0ACFA02461E4B1A601A4B17
:1029B0001B681A781C4B1A701B4B1B7819461B4A54
:1029C0000B465B000B44DB00134401221A70124BD0
:1029D0001B68154A1278114698780D4A0B469B00E1
:1029E0000B449B00134402461A700B4B1B680E4AA3
:1029F00012781146D878064A0B469B000B449B0080
:102A00001344013302461A7000BF0837BD4680BD2B
:102A10008807002048070020640600205C0600208C
:102A20008407002060060020800700206806002040
:102A300080B485B000AF03460A46FB711346BB71F4
:102A4000FB79013B032B1FD801A252F823F000BFF2
:102A5000612A00086B2A0008752A00087F2A0008EE
:102A60000723FB730023BB730EE00823FB730323D0
:102A7000BB7309E01023FB730423BB7304E0202322
:102A8000FB730523BB7300BF264B1B781946264AF0
:102A90000B469B000B449B00134402331B785AB235
:102AA00097F90F30DB435BB213405AB21D4B1B78D2
:102AB0001946D0B21C4A0B469B000B449B001344A2
:102AC000023302461A70FA7BBB7B42FA03F35AB216
:102AD00097F9063013405BB2BB71124B1B78194655
:102AE000114A0B469B000B449B00134402331B7896
:102AF0005AB2B979BB7B01FA03F35BB213435AB202
:102B0000084B1B781946D0B2074A0B469B000B4472
:102B10009B001344023302461A7000BF1437BD46AF
:102B200080BC7047800700208807002080B485B0F3
:102B300000AF03460A46FB711346BB71BB79013BEC
:102B4000032B1FD801A252F823F000BF5D2B000811
:102B5000672B0008712B00087B2B00080723FB73F1
:102B60000023BB730EE00823FB730323BB7309E050
:102B70001023FB730423BB7304E02023FB730523A2
:102B8000BB7300BFFA790A4913469B0013449B00AC
:102B90000B4402331A78FB7B1340DBB21A46BB7B33
:102BA00042FA03F3DBB218461437BD4680BC7047C7
:102BB0008807002080B582B000AF0023FB7101239D
:102BC000BB710CE0BB7904211846FFF7AFFF034649
:102BD000012B01D10123FB71BB790133BB71BB799F
:102BE000062BEFD9FB79012B03D1FFF753F8012313
:102BF00002E0FFF75BF8002318460837BD4680BDAA
:102C000080B485B000AF78600123FB7353E0FA7B9A
:102C10002D4913465B001344DB000B441B78012B4A
:102C200046D1FA7B284913465B001344DB000B4472
:102C300004331B68FA7B7968C91A234813465B0082
:102C40001344DB00034408331960204B1B681B89C5
:102C5000002B2DD0FA7B1C4913465B001344DB008C
:102C60000B440E331B78002B22D1FA7B16491346F6
:102C70005B001344DB000B4408331B68134A1268E3
:102C8000128993420AD9FA7B0F4913465B00134419
:102C9000DB000B440C3301221A7009E0FA7B0A496D
:102CA00013465B001344DB000B440C3300221A7004
:102CB000FB7B0133FB73FB7B062BA8D900BF1437CA
:102CC000BD4680BC704700BF680600206406002037
:102CD00080B483B000AF0023FB710123BB711AE005
:102CE000BA79114913465B001344DB000B441B788F
:102CF000012B0DD1BA790C4913465B001344DB005C
:102D00000B440C331B78012B02D10123FB7105E02E
:102D1000BB790133BB71BB79062BE1D9FB7918462E
:102D20000C37BD4680BC70476806002080B483B075
:102D300000AF0023FB71214B1B685B89002B32D055
:102D40000123BB712CE0BA791D4913465B00134483
:102D5000DB000B441B78002B1FD0BB79194A52F8BB
:102D60003330164A1268528993420CD9BA79144901
:102D700013465B001344DB000B440D3301221A7031
:102D80000123FB7109E0BA790D4913465B00134436
:102D9000DB000B440D3300221A70BB790133BB7189
:102DA000BB79062BCFD9FB79012B01D1012300E0A0
:102DB000002318460C37BD4680BC704764060020CF
:102DC000680600204807002080B582B000AF0123CC
:102DD000FB7117E00F4B1B78FA799A420ED0FA7903
:102DE0000D4913465B001344DB000B441B78012B99
:102DF00005D1FB79184600F0ABFA00E000BFFB7983
:102E00000133FB71FB79062BE4D900BF0837BD46BF
:102E100080BD00BF800700206806002090B583B009
:102E200000AF7860444B1B781946444A0B465B0060
:102E30000B44DB00134404337A681A60404B1B6870
:102E400093F83730032B04D101210220FFF7F0FD66
:102E500003E000210220FFF7EBFD394B1B689B6B61
:102E600038491846FEF73EF90346002B04D00121ED
:102E70000320FFF7DDFD03E000210320FFF7D8FD6D
:102E80002F4B1B682C4A127810469A682E4903462D
:102E90009B0003449B000B4404331A60284B1B68BF
:102EA000254A127810469A69274903469B00034435
:102EB0009B000B4408331A60214B1B681A6B1E4B96
:102EC0001B781C461046FEF72BF9034619B21E4A22
:102ED00023469B0023449B0013440C330A461A806C
:102EE000174B1B689A6A144B1B781C461046FEF75A
:102EF0003DF90346D9B2144A23469B0023449B0064
:102F000013440E330A461A700D4B1B68DA6A0A4BDB
:102F10001B781C461046FEF729F9034699B20A4A67
:102F200023469B0023449B00134410330A461A8017
:102F300000BF0C37BD4690BD80070020680600200A
:102F40005C0600200000C0408807002080B400AF6D
:102F5000804B1B68804A12781A707F4B1B7818468A
:102F60007C4B1B685A1C7D4903469B0003449B0015
:102F70000B441B781370784B1B781846754B1B68F5
:102F80009A1C764903469B0003449B000B44013383
:102F90001B781370704B1B7818466E4B1B68DA1C3D
:102FA0006E4903469B0003449B000B4402331B788D
:102FB0001370694B1B781846664B1B681A1D6749CE
:102FC00003469B0003449B000B4404331B7813709F
:102FD000614B1B7818465F4B1B685A1D5F490346BF
:102FE0009B0003449B000B4405331B7813705A4B22
:102FF0001B781846574B1B689A1D584903469B007F
:1030000003449B000B4406331B781370524B1B7810
:103010001846504B1B68DA1D504903469B00034479
:103020009B000B4407331B7813704B4B1B781846DF
:10303000484B1B6803F10802484903469B000344C0
:103040009B000B4408331B781370434B1B781846C6
:10305000404B1B6803F10902404903469B000344AF
:103060009B000B4409331B7813703B4B1B781846AD
:10307000384B1B6803F10A02384903469B0003449E
:103080009B000B440A331B781370334B1B78184694
:10309000304B1B6803F10B02304903469B0003448D
:1030A0009B000B440B331B7813702B4B1B7818467B
:1030B000284B1B6803F10C02284903469B0003447C
:1030C0009B000B440C331B781370234B1B78184662
:1030D000204B1B6803F10D02204903469B0003446B
:1030E0009B000B440D331B7813701B4B1B78184649
:1030F000184B1B6803F10E02184903469B0003445A
:103100009B000B440E331B781370134B1B7818462F
:10311000104B1B6803F10F02104903469B00034448
:103120009B000B4410331B7813700B4B1B78184615
:10313000084B1B6803F11002084903469B00034437
:103140009B000B4411331B78137000BFBD4680BC3D
:10315000704700BF840700208007002088070020F8
:1031600080B485B000AF7860764B1B681B78FB732A
:10317000FA7B754913465B001344DB000B440122C4
:103180001A70FA7B704913465B001344DB000B4452
:1031900004337A681A606B4B1B680133FA7B18782A
:1031A0006A4913469B0013449B000B4402461A7065
:1031B000644B1B680233FA7B1878644913469B0002
:1031C00013449B000B44013302461A705D4B1B688D
:1031D000FA7BD8785D4913469B0013449B000B444F
:1031E000023302461A70574B1B68FA7B187957490D
:1031F00013469B0013449B000B44043302461A7091
:10320000504B1B68FA7B5879504913469B00134476
:103210009B000B44053302461A704A4B1B68FA7B2D
:1032200098794A4913469B0013449B000B4406338C
:1032300002461A70434B1B68FA7BD8794349134600
:103240009B0013449B000B44073302461A703D4B0E
:103250001B68FA7B187A3D4913469B0013449B0078
:103260000B44083302461A70364B1B68FA7B587AB7
:10327000364913469B0013449B000B440933024616
:103280001A70304B1B68FA7B987A304913469B00C2
:1032900013449B000B440A3302461A70294B1B68E7
:1032A000FA7BD87A294913469B0013449B000B44B0
:1032B0000B3302461A70234B1B68FA7B187B234999
:1032C00013469B0013449B000B440C3302461A70B8
:1032D0001C4B1B68FA7B587B1C4913469B0013440C
:1032E0009B000B440D3302461A70164B1B68FA7B89
:1032F000987B164913469B0013449B000B440E33E6
:1033000002461A700F4B1B68FA7BD87B0F49134695
:103310009B0013449B000B44103302461A70094B68
:103320001B68FA7B187C094913469B0013449B00D9
:103330000B44113302461A70FB7B18461437BD4606
:1033400080BC7047600600206806002088070020C7
:103350002DE9F0438FB000AF0346FB71C64B1B68ED
:1033600003F11004D4E90034C7E90634C24B1B68EA
:1033700003F12004D4E90034C7E90434FA79BF49E1
:1033800013469B0013449B000B4404331B681846F0
:10339000FDF752F8AEA4D4E900341A462346FDF7EF
:1033A000A3F803460C46C7E90C34FA79B34913462F
:1033B0009B0013449B000B4408331B681846FDF721
:1033C0003BF8A3A4D4E900341A462346FDF78CF851
:1033D00003460C46C7E90A34D7E90C23D7E90601AE
:1033E000FDF7EAFA0346002B0AD09BA3D3E900239A
:1033F000D7E90C01FCF7C2FE03460C46C7E90C34C2
:10340000D7E90A23D7E90401FDF7D6FA0346002BD2
:103410000AD091A3D3E90023D7E90A01FCF7AEFE55
:1034200003460C46C7E90A34D7E90623D7E90C015D
:10343000FCF7A2FE03460C46184621464FF0000258
:103440004FF08043FDF77AF903460C4618462146B3
:1034500007F00AFB4FF000024FF0804307F036FC04
:1034600004460D46D7E90C0107F0C4FA80468946A8
:10347000D7E9060107F0BEFA02460B464046494628
:10348000FDF732F802460B4690469946D7E90423E9
:10349000D7E90A01FCF770FE02460B4610461946B2
:1034A0004FF000024FF08043FDF748F902460B460B
:1034B0001046194607F0D8FA4FF000024FF080434B
:1034C00007F004FC02460B4640464946FDF70CF85F
:1034D00002460B4620462946FCF750FE03460C46A2
:1034E0001846214607F04EFD03460C461846214675
:1034F00007F01EFB5AA4D4E900341A462346FCF711
:10350000F3FF03460C46C7E90234D7E90423D7E9A1
:103510000A01FCF731FE03460C461D4626464FF0D5
:1035200000024FF08043D7E90C01FDF707F903468D
:103530000C46184621464CA4D4E900341A462346CA
:10354000FCF71CFE03460C461846214607F0C6FA57
:10355000804689464FF000024FF08043D7E90601CC
:10356000FDF7ECF803460C46184621463EA4D4E984
:1035700000341A462346FCF701FE03460C46184663
:10358000214607F0ABFA03460C461A46234640464E
:103590004946FDF7D3F803460C461846214607F086
:1035A0001BFB03460C461A46234628463146FDF7C8
:1035B000C5F803460C461846214607F091F8C7E9BE
:1035C0000801D7E90623D7E90C01FDF71DFA0346E8
:1035D000002B16D0D7E90423D7E90A01FDF714FA26
:1035E0000346002B0DD022A4D4E900341A4623460A
:1035F000D7E90801FCF778FF03460C46C7E9083411
:103600005DE0D7E90623D7E90C01FDF7FDF9034694
:10361000002B37D0D7E90423D7E90A01FDF7D6F903
:103620000346002B2ED012A1D1E90001D7E90823CF
:10363000FCF75AFF03460C46184621464FF000029D
:103640000F4BFCF79BFD03460C46C7E9083436E0F8
:103650003A9D52A246DF913F3A8C30E28E79453E48
:1036600000000000B04D6841182D4454FB21E93F93
:10367000F8C1631ADCA54C405C06002088070020D6
:1036800000807640D7E90623D7E90C01FDF79EF9C3
:103690000346002B13D02CA1D1E90001D7E9082360
:1036A000FCF722FF03460C46184621464FF0000265
:1036B000274BFCF763FD03460C46C7E90834FC7949
:1036C000D7E90201FDF7E8F90246224B43F834201E
:1036D000FB79204A52F83330002B06D1FB791D4A82
:1036E000DB00134400229A800BE0FC79D7E9080143
:1036F000FDF7D2F9034699B2164AE30013440A468D
:103700009A80FA79144913469B0013449B000B449A
:103710000C33B3F900309CB2104B1B681B6B18467E
:10372000FDF7FEFC03461BB29BB2E31A9AB2FB798B
:1037300011B2084ADB0013440A46DA8000BF3C3766
:10374000BD46BDE8F08300BFF8C1631ADCA54C405C
:103750000080664048070020880700205C060020A3
:1037600080B483B000AF0023FB710DE0FA79F979E2
:1037700013469B0013449B00084A1344084A42F82E
:103780002130FB790133FB71FB79062BEED9044B19
:1037900018460C37BD4680BC704700BF8807002024
:1037A0002C07002080B483B000AF0023FB710AE037
:1037B000FA79FB79D20008490A44084941F82320E4
:1037C000FB790133FB71FB79062BF1D9034B1846CA
:1037D0000C37BD4680BC704748070020100700200A
:1037E00080B483B000AF0023FB710DE0FA79F97962
:1037F00013465B001344DB00084A1344084A42F8AE
:103800002130FB790133FB71FB79062BEED9044B98
:1038100018460C37BD4680BC704700BF68060020C4
:103820004006002080B483B000AF64237B714FE07A
:10383000354B1B889BB2344A43F480739BB2138090
:1038400000BF314B9B8A9BB203F00103002BF8D0E1
:103850002D4B9B8A7B802C4BA0221A822A4B9B8A61
:103860007B807B8803F00203002B04D17B8803F468
:103870008063002BF2D0244B9B8A7B80224B1B8BD6
:10388000FB807B8803F48063002B07D01E4B4FF630
:10389000FF329A827B79013B7B7119E07B8803F0D0
:1038A0000203002B11D0184B1B889BB2164A43F41D
:1038B00000739BB2138000BF134B1B889BB203F4B1
:1038C0000073002BF8D1012319E07B79013B7B7158
:1038D0007B79002BACD1FB880133FB800A4B1B8822
:1038E0009BB2094A43F400739BB2138000BF064B9E
:1038F0001B889BB203F40073002BF8D100231846F9
:103900000C37BD4680BC70470058004080B584B07D
:1039100000AF0346FB800023FB73FFF707F8FFF7B8
:1039200081FF0346002B00F08C804A4B1B889BB222
:10393000484A43F480739BB2138000BF454B9B8A77
:103940009BB203F00103002BF8D0424B9B8ABB8152
:10395000404BA0221A8200BF3E4B9B8A9BB203F0D1
:103960000203002BF8D03B4B9B8ABB81394B1B8B4E
:10397000BB81FB881B0A9BB2DAB2364B92B21A8229
:1039800000BF344B9B8A9BB203F08003002BF8D01E
:10399000FB88DAB22F4B92B21A8200BF2D4B9B8A62
:1039A0009BB203F08003002BF8D02A4B1B889BB2FC
:1039B000284A43F480739BB2138000BF254B9B8A37
:1039C0009BB203F00103002BF8D0224B9B8ABB81F2
:1039D000204BA1221A8200BF1E4B9B8A9BB203F090
:1039E0000203002BF8D01B4B9B8ABB81194B1B8B0E
:1039F000BB81184B1B889BB2164A23F480639BB291
:103A00001380144B1B889BB2124A43F400739BB281
:103A1000138000BF0F4B1B889BB203F40073002B75
:103A2000F8D100BF0B4B9B8A9BB203F04003002BE5
:103A3000F8D0BB890133BB81064B1B8A9BB2FB7359
:103A400001E00023FB73FEF765FFFB7B1846103790
:103A5000BD4680BD0058004080B584B000AF78609E
:103A60000B46FB70FEF762FFFFF7DCFE0346002B00
:103A700000F0B980FB789BB25B01BB815D4B1B887A
:103A80009BB25C4A43F480739BB2138000BF594BD6
:103A90009B8A9BB203F00103002BF8D0554B9B8A05
:103AA0009BB2FB72534BA0221A8200BF514B9B8AE0
:103AB0009BB203F00203002BF8D04E4B9B8A9BB2C3
:103AC000FB724C4B1B8B9BB2FB72BB891B0A9BB2DC
:103AD000DAB2484B92B21A8200BF464B9B8A9BB225
:103AE00003F08003002BF8D0BB89DAB2414B92B2CD
:103AF0001A8200BF3F4B9B8A9BB203F08003002BCE
:103B0000F8D03C4B1B889BB23A4A43F480739BB27B
:103B1000138000BF374B9B8A9BB203F00103002B3D
:103B2000F8D0344B9B8A9BB2FB72324BA1221A8293
:103B300000BF304B9B8A9BB203F00203002BF8D0EE
:103B40002C4B9B8A9BB2FB722A4B1B8B9BB2FB724A
:103B50000023FB731AE0274B1B889BB2254A43F4D2
:103B600080639BB2138000BF224B9B8A9BB203F001
:103B70004003002BF8D01F4B1B8A99B2FB7B7A685D
:103B80001344CAB21A70FB7B0133FB73FB7B1E2B01
:103B9000E1D9184B1B889BB2164A23F480639BB271
:103BA0001380144B1B889BB2124A43F400739BB2E0
:103BB000138000BF0F4B1B889BB203F40073002BD4
:103BC000F8D100BF0B4B9B8A9BB203F04003002B44
:103BD000F8D0084B1B8A9AB27B681F33D2B21A7096
:103BE000FB7A0133FB72FEF795FE00BF1037BD462E
:103BF00080BD00BF0058004080B584B000AF786041
:103C00000B46FB70FEF792FEFFF70CFE0346002BFF
:103C100073D00023BB73FB789BB25B01BB813A4B33
:103C20001B889BB2384A43F480739BB2138000BF59
:103C3000354B9B8A9BB203F00103002BF8D0324B2B
:103C40009B8A9BB2BB73304BA0221A8200BF2E4BC3
:103C50009B8A9BB203F00203002BF8D02A4B9B8A6D
:103C60009BB2BB73284B1B8B9BB2BB73BB891B0ADC
:103C70009BB2DAB2244B92B21A8200BF224B9B8ACB
:103C80009BB203F08003002BF8D0BB89DAB21E4B45
:103C900092B21A8200BF1C4B9B8A9BB203F0800336
:103CA000002BF8D00023FB7311E0FB7B7A681344F0
:103CB0001A78154B92B21A8200BF134B9B8A9BB2A3
:103CC00003F00403002BF8D0FB7B0133FB73FB7B79
:103CD0001F2BEAD9BB7B0133BB730B4B1B889BB2F9
:103CE000094A43F400739BB2138000BF064B1B8844
:103CF0009BB203F40073002BF8D1FEF70BFE00BF5C
:103D00001037BD4680BD00BF0058004080B58CB064
:103D100000AF0346FB71002387F82F300CE097F8C3
:103D20002F3007F130021344FF2203F8242C97F8B8
:103D30002F30013387F82F3097F82F301F2BEED913
:103D4000FA7907F10C0311461846FFF755FF00BF3B
:103D50003037BD4680BD80B582B000AF0023FB8008
:103D600007E0FB88DBB21846FFF7D0FFFB88013382
:103D7000FB80FB88FF2BF4D900BF0837BD4680BD10
:103D800080B400AF62B600BFBD4680BC704780B44F
:103D900000AF30BF00BFBD4680BC704780B485B067
:103DA00000AF78607B6803F00703FB600C4BDB68B7
:103DB000BB60BA684FF6FF031340BB60FB681A0292
:103DC000BB68134343F0BF6343F40033BB60044A52
:103DD000BB68D36000BF1437BD4680BC704700BFCE
:103DE00000ED00E080B483B000AF03463960FB71A2
:103DF00097F90730002B0BDA3B68DAB20C49FB79F4
:103E000003F00F03043B1201D2B20B441A7609E00F
:103E10003B68DAB2074997F907301201D2B20B4476
:103E200083F8002300BF0C37BD4680BC704700BF3D
:103E300000ED00E000E100E080B489B000AFF86080
:103E4000B9607A60FB6803F00703FB61FB69C3F1AB
:103E50000703042B28BF0423BB61FB690433062B33
:103E600002D9FB69033B00E000237B610122BB69AF
:103E700002FA03F3013B1A46BB681A407B699A4079
:103E800001217B6901FA03F3013B19467B680B4072
:103E9000134318462437BD4680BC704780B582B0B6
:103EA00000AFFDF74BFCFDF7BDFF06F073F805F022
:103EB000BDFC05F02FFDFEF7F5FC06F0FBFA05F062
:103EC000E7FB05F0CFFD04F025FEFDF7A5FEFDF7AD
:103ED0003DFAFDF7A7FAFEF735FD00F09BFA04F076
:103EE00061FB05F0CBFB02467A4B1A60FEF7D0FC73
:103EF0000246794B1A6005F0ADFB0246774B1A601B
:103F0000774805F0E7FF05F03DFE764805F02EF90D
:103F100000F0DCFC00F0F8F9FFF732FF06F048F89B
:103F2000FDF798FF704B1B7A012B08D16E4B0022D6
:103F30001A72FDF72FFB0346184600F0CFFA6A4BC2
:103F40001B78012B3AD1684B00221A70FEF726F835
:103F50000346012B32D1644B0122DA72FEF778FC62
:103F60000346012B27D1604B01229A705E4B5B7890
:103F7000012B1CD1584B1B689B78584A1268554935
:103F8000096889790A441278B3FBF2F102FB01F265
:103F90009B1ADBB2002B0AD1544B1B681846FEF764
:103FA0003DFFFEF7D3FF504B0122DA7006E04E4B87
:103FB0000022DA7002E04C4B00229A704A4B5B7987
:103FC000012B20D1484B00225A7104F039FF0346DF
:103FD0001A46474B1A70464B1B7803F00203002B1E
:103FE00009D004F04BFF414B1B681846FFF7B8F8A7
:103FF000FDF768FE07E03E4B1B7803F00403002B3F
:1040000001D004F061FF384B5B7A012B09D1364BAC
:1040100000225A72FDF79EFA344B1B681846FEF7D1
:10402000EFFD314B9B79012B31D12F4B00229A713F
:10403000FEF7CAFE0023FB71FEF7BCFD03461A46DD
:10404000FB791344FB71FEF743FE03461A46FB79E6
:104050001344FB71FEF76AFE03461A46FB791344CC
:10406000FB71214BDB79012B07D11F4BDA79FB79EF
:104070001344FB711C4B0022DA71FB79002B02D038
:10408000194B01229A72184B0122DA720DE0164B7D
:10409000DB79012B09D1144B5B78002B05D1124B36
:1040A0000022DA71104B01229A720F4B9B7A012B7E
:1040B00004D10D4B00229A7205F07AFF0A4BDB7A8D
:1040C000012B04D1084B0022DA7200F0FFFBFFF74E
:1040D0005EFE27E7640600205C0600202C08002016
:1040E00098E20008400D0300540100204801002020
:1040F0006001002080B500AF0D4B4FF480325A6054
:1041000006F042FA06F066FA06F04CFA094B5B78C4
:10411000012B01D105F05EFF074B00221A60054B11
:1041200000225A70034B01221A7000BF80BD00BFED
:1041300000000240540100204C01002080B500AF77
:104140000E4B4FF400625A6106F09CF806F01CFA20
:1041500006F040FA06F026FA094B1B680133084ABC
:104160001360074B1B68022B05D9064B01225A70BE
:10417000044B01221A7000BF80BD00BF0004014043
:104180004C0100205401002080B500AF094B4FF4D2
:1041900080725A61084B1B79012B05D1064B002216
:1041A0001A71FDF78FFD02E0034B01225A7100BF27
:1041B00080BD00BF000401405401002080B500AF65
:1041C000284B1B8A9BB2274A23F001039BB2138220
:1041D000FDF784FD244B1B780133DAB2224B1A70B1
:1041E000224BDB78012B2BD11F4B1B781A46204B1F
:1041F0001B685B7801339A420BD106F053F81A4BD7
:1042000000221A70194B0022DA70184B01229A71A1
:1042100026E0154B1A78174B1A70154B1B681A7845
:10422000144B1B789A4208D104F096FD0346002BEC
:1042300016D00E4B01221A7112E004F0D3FD0FE0EC
:1042400006F030F8084B00221A70084B9B78012BBF
:1042500003D1064B01229A7102E0044B00229A71AD
:1042600000BF80BD002C01405001002054010020FF
:10427000640600205101002080B500AF06F0BEF8B2
:1042800006F0A4F805F094FF00BF80BD80B400AF35
:10429000094B9B889BB2084A23F001039BB2938091
:1042A000064B1B680133054A1360054B01225A7205
:1042B00000BFBD4680BC7047002800404801002078
:1042C0005401002080B500AFFDF7BEF803461A4642
:1042D000014BDA7100BF80BD5401002080B400AFF3
:1042E0004FF080431B8A9BB24FF0804223F00103C2
:1042F0009BB21382034B01221A7200BFBD4680BCE1
:10430000704700BF5401002080B500AF0420FFF7C4
:1043100045FD002200210420FFF78EFD03461946CB
:104320002820FFF75FFD002201210420FFF784FD14
:10433000034619461920FFF755FD002202210420EB
:10434000FFF77AFD034619461720FFF74BFD0022C1
:1043500003210420FFF770FD034619460F20FFF7E5
:1043600041FD002204210420FFF766FD03461946A3
:104370001C20FFF737FD002205210420FFF75CFD1C
:10438000034619460320FFF72DFD002206210420D5
:10439000FFF752FD034619461220FFF723FD0022C6
:1043A00007210420FFF748FD034619464FF0FF3070
:1043B000FFF718FD00BF80BD80B400AF024B1B6843
:1043C0001846BD4680BC70474801002080B400AF4D
:1043D000024B1846BD4680BC704700BF5401002008
:1043E00080B400AFBFF34F8F00BFBD4680BC7047A5
:1043F00080B500AF054BDB6803F4E0620349044B72
:104400001343CB60FFF7ECFFFEE700BF00ED00E0D9
:104410000400FA0580B500AFFEF730FA0246224BE1
:104420001A60FEF735FA0246204B1A60FFF798F93A
:1044300002461F4B1A60FFF7B5F902461D4B1A6082
:10444000FFF7CEF902461C4B1A6004F08BF80246C7
:104450001A4B1A6005F012F90246194B1A60184BF4
:104460001A68184B106851689268186059609A6011
:10447000134B1B681A78144B1A7005F0EBF80246C0
:10448000124B1A6005F0F0F80246114B1A600E4B01
:104490001A78104B1A70104B01221A70002000F08D
:1044A000B3F900BF80BD00BF680800205C06002093
:1044B00064080020300800209C08002034080020F8
:1044C0006406002040080020800700202C080020FF
:1044D0006C0800202A0000205A08002080B584B013
:1044E00000AF0346FB71FB79002B60D005F040FB69
:1044F0000346012B56D10023FB7319E0FB7B2D4AA9
:1045000012F833202C4B1B789A420ED1FB7B294AA0
:10451000DB0013445B78FA799A4206D1FB7B254A8B
:10452000DB0013445B68984741E0FB7B0133FB737E
:10453000FB7B204A12F83330002BDFD1FB79013BA3
:10454000092B34D801A252F823F000BF75450008AA
:10455000AF4500087B450008AF45000881450008CD
:10456000AF4500088D4500089345000887450008C1
:104570009945000800F03EF819E000F05AF816E0FE
:1045800000F076F813E000F0B3F810E005F0D8FA88
:104590000DE000F013F80AE005F02EFD00F096F9AA
:1045A00000BF04E0FB79082B01D105F0C9FA1037F0
:1045B000BD4680BD78DC00085A08002080B500AFF9
:1045C0000B4B1B7804211846FEF7B0FA0346002B6C
:1045D00004D101210420FEF72BFA03E0002104207E
:1045E000FEF726FAFEF7E6FA00F070F900BF80BD8C
:1045F0008007002080B582B000AF00F0A5F8034628
:10460000FB7100F0D1F80346BB71FB79002B04D19C
:10461000BB79184600F0F8F805E0FB79013BDBB206
:10462000184600F0F1F800F051F900BF0837BD4618
:1046300080BD80B582B000AF00F086F80346FB7104
:1046400000F0B2F80346BB71FA79BB799A4203D104
:10465000002000F0D9F805E0FB790133DBB2184601
:1046600000F0D2F800F032F900BF0837BD4680BD37
:1046700080B582B000AF0023FB7126E0FA791A49B9
:1046800013465B0013440B441A78184B1B789A426C
:1046900018D100F059F803461846FA791249134622
:1046A0005B0013440B4401331B7898420AD1FA791A
:1046B0000D4913465B0013440B4402331A780B4B2D
:1046C0001A700BE0FB790133FB71FA790649134646
:1046D0005B0013440B441B78002BCFD100F0F6F89D
:1046E00000BF0837BD4680BD70DE00085A080020B4
:1046F00080B582B000AF0023FB7115E0FB79104A52
:1047000012F813200F4B1B789A420AD1002000F0B8
:104710007BF8FB790A4A5B0013445A78094B1A70FC
:1047200008E0FB790133FB71FB79054A12F813307D
:10473000002BE3D100F0CAF800BF0837BD4680BDAA
:10474000B0DE00085A08002080B483B000AF002318
:10475000FB7116E0FA79124913465B0013440B44CF
:104760001A78104B1B789A4208D1FA790C491346F3
:104770005B0013440B4401331B780CE0FB790133DD
:10478000FB71FA79064913465B0013440B441B780E
:10479000002BDFD1002318460C37BD4680BC704784
:1047A000180000205A08002080B483B000AF002316
:1047B000FB7116E0FA79124913465B0013440B446F
:1047C0001A78104B1B789A4208D1FA790C49134693
:1047D0005B0013440B4402331B780CE0FB7901337C
:1047E000FB71FA79064913465B0013440B441B78AE
:1047F000002BDFD1002318460C37BD4680BC704724
:10480000180000205A08002080B485B000AF03468D
:10481000FB710023FB7317E0FA7B124913465B0020
:1048200013440B441A78104B1B789A4209D1FA7B37
:104830000C4913465B0013440B440133FA791A7098
:104840000BE0FB7B0133FB73FA7B064913465B00ED
:1048500013440B441B78002BDED100BF1437BD4638
:1048600080BC7047180000205A08002080B485B032
:1048700000AF0346FB710023FB7316E0FA7B12497D
:1048800013465B0013440B441B78FA799A4209D112
:10489000FA7B0D4913465B0013440B44013300229D
:1048A0001A700BE0FB7B0133FB73FA7B064913465E
:1048B0005B0013440B441B78002BDFD100BF14377F
:1048C000BD4680BC704700BF1800002080B582B094
:1048D00000AF0023FB7111E0FB790D4A12F8332081
:1048E0000C4B1B789A4206D1FB79094ADB00134432
:1048F0005B68984708E0FB790133FB71FB79044A58
:1049000012F83330002BE7D100BF0837BD4680BD19
:10491000D0DE00085A08002080B500AF05F05CF931
:104920000023244A0121002005F05DFA0023224AD9
:104930000121022005F057FA0023204A012103201B
:1049400005F051FA00231E4A0121042005F04BFA1C
:1049500000231C4A0121052005F045FA00231A4ACC
:104960000121062005F03FFA0023184A0121072003
:1049700005F039FAFFF7E8FE03460233D8B2002308
:10498000134A002105F02FFA00238F221421002062
:1049900005F00AFA05F046FB0346012B05D100237A
:1049A00021221321002005F0FFF905F0EBF800BFEC
:1049B00080BD00BF4CD7000854D700085CD7000862
:1049C00064D700086CD7000878D7000884D700089F
:1049D0008CD7000890B583B000AF05F0FDF897487C
:1049E00005F078FAFFF7F2FC03465B78002B11D054
:1049F000FFF7ECFC03469B78002B0BD000238022B2
:104A00001221002005F0D0F900238122132100207B
:104A100005F0CAF98A4B1B681B78002B06D10023CE
:104A200082221421002005F0BFF92BE0854B1B6882
:104A300093F83730032B0CD1824B1B6893F8363038
:104A4000012B06D1002385221421002005F0ACF9AA
:104A500018E07C4B1B6893F83730022B0CD1794B54
:104A60001B6893F83630012B06D1002384221421D1
:104A7000002005F099F905E000238322142100208D
:104A800005F092F91423FB716F4B1B780121184636
:104A9000FEF74CF80346042B39D801A252F823F054
:104AA000FD4A0008EB4A0008D94A0008C74A000836
:104AB000B54A0008F9794B1EFB7100238C220120B6
:104AC00005F072F923E0F9794B1EFB7100238B226C
:104AD000012005F069F91AE0F9794B1EFB710023FA
:104AE0008A22012005F060F911E0F9794B1EFB7173
:104AF00000238922012005F057F908E0F9794B1EBF
:104B0000FB7100238822012005F04EF900BF4F4BB6
:104B10001A684D4B1B789B0013441B681B7B002BB2
:104B200007D0F9794B1EFB7100238622012005F086
:104B30003BF9454B1B7804211846FDF7F7FF034668
:104B4000012B07D1F9794B1EFB710023872201202D
:104B500005F02AF90323BB7101237B7191E23A4BE3
:104B60001B787A799A427BD17B793949184604F0CF
:104B7000F5FC0023364A0021012005F034F9354BBD
:104B80001B689A7800230221012005F00DF9314BB2
:104B90001B68DA7800230321012005F005F9294B71
:104BA0001B689B6A2C491846FCF792FA0346002BB7
:104BB0000ED0244B1B689B6A254A0121184604F03D
:104BC0007DFB0023224A0721012005F02FF910E088
:104BD000224B1A687B799B0013441B689B7B1C4902
:104BE000184604F0BBFC0023194A0721012005F0F8
:104BF0001DF91A4B1A687B799B0013441B681B8AAA
:104C00001349184604F0AAFC0023114A0B21012085
:104C100005F00CF9114B1A687B799B0013441B6853
:104C2000B3F90C300A49184604F098FC0023084AEE
:104C30001021012005F0FAF820E200BF98E60008F4
:104C4000680800205C060020800700209C080020E7
:104C50007008002064060020000020416408002045
:104C6000944B1A687B799B0013441B681B78012BBB
:104C700040F004827B799049184604F06FFCB879C3
:104C800000238D4A002105F0AEF88C4B1A687B7921
:104C90009B0013441B681A78B8790023022105F0A1
:104CA00083F8864B1A687B799B0013441B685A78FB
:104CB000B8790023032105F077F8814B1A687B79D6
:104CC0009B0013441B681B68B3F57A7F11D27C4BA1
:104CD0001A687B799B0013441B681B687649184649
:104CE00004F03CFCB8790023734A072105F09EF8D4
:104CF0006FE0734B1A687B799B0013441B681B6839
:104D000042F20F72934225D86D4B1A687B799B0053
:104D100013441B681B681846FBF76CFB4FF000023E
:104D2000684BFBF70BFD03460C4618462146FBF784
:104D3000D3FE0246644B1A60634B1B685E4A012136
:104D4000184604F0BBFAB87900235B4A072105F046
:104D50006DF83EE05A4B1A687B799B0013441B6840
:104D60001B685A4A93422ED8554B1A687B799B0090
:104D700013441B681B681846FBF73CFB4FF000020E
:104D8000504BFBF7DBFC03460C4618462146FBF76D
:104D9000A3FE02464C4B1A604B4B1B681846FCF7AF
:104DA000E5F903464449184604F0D8FBB8790023D6
:104DB000414A062105F03AF8B87900232E2207214E
:104DC00004F0F2FF05E0B8790023414A052105F01F
:104DD0000AF83B4B1A687B799B0013441B689B883D
:104DE0003549184604F0BAFBB8790023324A0B2142
:104DF00005F01CF8324B1A687B799B0013441B6842
:104E0000B3F90620334B1A80324BB3F90030002B34
:104E100008DA304BB3F900309BB25B429BB21AB256
:104E20002C4B1A802B4BB3F90030B3F57A7F12DA92
:104E3000234B1A687B799B0013441B68B3F9063037
:104E40001D49184604F08AFBB87900231A4A10213C
:104E500004F0ECFF6FE01F4BB3F9003042F20F7229
:104E6000934239DC164B1A687B799B0013441B680C
:104E7000B3F906301846FBF7CDFA4FF00002114B9C
:104E8000FBF75CFC03460C4618462146FBF724FE64
:104E900002460D4B1A600C4B1B68074A012118464D
:104EA00004F00CFAB8790023034A102104F0BEFF85
:104EB00041E000BF9C08002070080020640800202A
:104EC0003008002000408F40540800209F860100D9
:104ED00090D70008580800206F4B1A687B799B0018
:104EE00013441B68B3F906301846FBF793FA4FF0EA
:104EF00000026A4BFBF722FC03460C46184621468B
:104F0000FBF7EAFD0246664B1A60654B1B681846C4
:104F1000FCF706F903466349184604F01FFBB8790D
:104F200000232E22102104F03FFFB87900235D4AB0
:104F30000F2104F07BFF584B1A687B799B001344C8
:104F40001B68B3F90630002B03DD00212B2004F091
:104F5000E7FE14233B71544B1A687B799B00134482
:104F60001B689B7B002B42D17B7901211846FDF702
:104F7000DDFD0346042B3AD801A252F823F000BF0E
:104F8000DD4F0008CB4F0008B94F0008A74F0008BD
:104F9000954F000839794B1E3B71B87900238C225C
:104FA00004F002FF23E039794B1E3B71B8790023EE
:104FB0008B2204F0F9FE1AE039794B1E3B71B87967
:104FC00000238A2204F0F0FE11E039794B1E3B7178
:104FD000B8790023892204F0E7FE08E039794B1EF6
:104FE0003B71B8790023882204F0DEFE00BF2E4B0F
:104FF0001A687B799B0013441B689B7B002B10D1A4
:10500000294B1A687B799B0013441B681B7B002B80
:1050100007D039794B1E3B71B8790023862204F002
:10502000C3FE214B1A687B799B0013441B685B7B92
:10503000002B07D039794B1E3B71B87900238E22A3
:1050400004F0B2FE184B1A687B799B0013441B686E
:105050009B7B002B0FD17B7904211846FDF766FD61
:105060000346012B07D139794B1E3B71B8790023D8
:10507000872204F099FEBB790133BB717B79013340
:105080007B717B79062B7FF66AAD04F07BFD00BF58
:105090000C37BD4690BD00BF3008002000408F4057
:1050A00054080020700800209C0800200000000028
:1050B00090B583B000AF04F08FFD1423FB713E4B1D
:1050C0001B7801211846FDF731FD0346042B3AD821
:1050D00001A252F823F000BF355100082351000807
:1050E00011510008FF500008ED500008F9794B1EDF
:1050F000FB7100238C22002004F056FE23E0F97996
:105100004B1EFB7100238B22002004F04DFE1AE0A1
:10511000F9794B1EFB7100238A22002004F044FE23
:1051200011E0F9794B1EFB7100238922002004F065
:105130003BFE08E0F9794B1EFB710023882200201A
:1051400004F032FE00BF1D4B1B681B78002B08D1FA
:10515000F9794B1EFB7100238222002004F024FE0B
:1051600038E0174B1B6893F83730032B0ED1144BE4
:105170001B6893F83630012B08D1F9794B1EFB716F
:1051800000238522002004F00FFE23E00C4B1B6857
:1051900093F83730022B15D1094B1B6893F8363042
:1051A000012B0FD1F9794B1EFB71002384220020C3
:1051B00004F0FAFD0EE000BF800700206808002020
:1051C0005C060020F9794B1EFB710023832200202E
:1051D00004F0EAFDFFF7FAF803465B78002B15D0E0
:1051E000FFF7F4F803469B78002B0FD0F9794B1E9C
:1051F000FB7100238122002004F0D6FDF9794B1EBB
:10520000FB7100238022002004F0CEFDBE4B1A6803
:10521000BE4B1B789B0013441B681B7B002B07D0E5
:10522000F9794B1EFB7100238622002004F0BCFD9F
:10523000B64B1B7804211846FDF778FC0346012B7A
:1052400007D1F9794B1EFB7100238722002004F05F
:10525000ABFDAF4B1A78AD4B1B789A4240F05682AB
:105260000023AC4A0021002004F0BDFDA84B1B78B0
:10527000A949184604F072F90023A74A0121002029
:1052800004F0B1FDA54B1B689A7800230321002090
:1052900004F08AFDA14B1B68DA780023042100206A
:1052A00004F082FD00239E4A0621002004F09BFDAD
:1052B0009C4B1B681A7B00230021012004F074FD25
:1052C000984B1B685A7B00230121012004F06CFDE0
:1052D0000023954A0221012004F085FD914B1B68B3
:1052E0009A7B00230321012004F05EFD8D4B1B6897
:1052F000DA7B00230421012004F056FD00238A4AB2
:105300000521012004F06FFD864B1B681A7C0023E9
:105310000621012004F048FD824B1B685A7C0023C3
:105320000721012004F040FD7E4B1B681A78002302
:105330000921012004F038FD7A4B1B685A780023BC
:105340000A21012004F030FD0023784A0B210120BE
:1053500004F049FD734B1B689A7800230C2101204F
:1053600004F022FD6F4B1B68DA7800230D21012029
:1053700004F01AFD00236D4A0E21012004F033FDD4
:10538000684B1B681A7900230F21012004F00CFDE3
:10539000644B1B685A7900231021012004F004FD9E
:1053A0000023634A1221012004F01DFD0023614AFD
:1053B0000021022004F017FD5F4B1B689B68564AD2
:1053C0000621184603F07AFF0023534A0E210220DB
:1053D00004F02CFD584B1B689B684FF000011846E9
:1053E000FBF78AFE0346002B0AD000212B2004F095
:1053F00097FC0023514A1021022004F0F4FC05E040
:1054000000234F4A1021022004F0EDFC00234D4AF6
:105410000021032004F0E7FC474B1B689B693E4AD0
:105420000621184603F04AFF00233B4A0E210320C1
:1054300004F0FCFC404B1B689B694FF000011846D0
:10544000FBF75AFE0346002B0AD000212B2004F064
:1054500067FC00233C4A1021032004F0C4FC05E053
:1054600000233A4A1021032004F0BDFC0023384AEF
:105470000021042004F0B7FC2F4B1B681B6B18465F
:10548000FBF74EFE03462449184604F067F8002354
:10549000214A0421042004F0A6FC00212D4804F038
:1054A00001FD00232C4A0B21042004F09CFC224B1C
:1054B0001B6893F83630012B06D10023274A0F21B1
:1054C000042004F090FC05E00023254A0F2104206D
:1054D00004F089FC184B1B6893F83730022B06D177
:1054E0000023204A1121042004F07DFC44E0124BEB
:1054F0001B6893F83730032B38D100231A4A112147
:10550000042004F070FC37E09C0800208007002095
:105510002A00002094D700087008002064060020AC
:1055200098D7000868080020A0D70008A4D7000872
:10553000A8D70008ACD700085C060020B0D7000848
:10554000B4D70008B8D70008BCD70008C0D70008F7
:10555000C4D70008C8D70008CCD70008D0D70008A7
:10556000D4D70008D8D70008DCD700080023A34A06
:105570001121042004F037FC0023A14A002105205A
:1055800004F031FC9F4B1B68DB6A1846FBF7C8FD33
:1055900003469D49184603F0E1FF00239A4A04217F
:1055A000052004F020FC00218D2004F0B9FB00232D
:1055B000964A0B21052004F016FC924B1B689B6B4E
:1055C000914A0221184603F079FE00238E4A0F21EA
:1055D000052004F008FC00238D4A0021062004F079
:1055E00002FC884B1B689B6A8A491846FBF770FDD2
:1055F0000346002B0ED0834B1B689B6A824A012115
:10560000184603F05BFE00237F4A0421062004F0C5
:10561000EAFB11E07B4B1B689B6A1846FBF780FD99
:1056200003461BB27849184603F098FF0023764AD8
:105630000421062004F0D7FB0021774804F032FC57
:105640000023764A0B21062004F0CDFB6D4B1B682E
:1056500093F835306C49184603F080FF00236A4AFE
:105660000F21062004F0BFFB00216D4804F01AFC56
:10567000644B1B6893F834306349184603F06EFF9F
:105680000021614804F00EFC664B1A68664B1B78DB
:105690009B0013441B681B7B012B06D10123634A2B
:1056A0000021072004F09FFB05E000235F4A002152
:1056B000072004F098FB5B4B1A685B4B1B789B0040
:1056C00013441B689B685049184603F023FC0023D1
:1056D0004D4A0421072004F086FB0023544A0B2185
:1056E000072004F080FBFBF74BFF0346464A0221EC
:1056F000184603F0E3FD0023434A0F21072004F07E
:1057000072FB0021562004F00BFB7AE30023494A88
:105710000121002004F067FB474B1B783A491846EB
:1057200003F01CFF0023384A0221002004F05BFB39
:10573000424B1A68404B1B789B0013441B681A7835
:1057400000230421002004F02FFB3C4B1A683A4B45
:105750001B789B0013441B685A7800230521002006
:1057600004F022FB2F4B1A68334B1B789B00134429
:105770001B689B7B012B0DD12A4B1A682E4B1B7883
:105780009B0013441B6803F10F0200230721002034
:1057900004F029FB00232A4A0021012004F023FB06
:1057A000264B1A68244B1B789B0013441B685B68CC
:1057B000154A0621184603F081FD0023124A0E21E6
:1057C000012004F033FB1D4B1A681B4B1B789B0018
:1057D00013441B685B684FF000011846FBF78CFC14
:1057E0000346002B30D000212B2004F099FA00232F
:1057F000144A1021012004F0F6FA2BE0E0D700084B
:10580000E4D700085C06002070080020E8D70008F4
:10581000ECD7000800002041F0D70008F4D70008BA
:10582000F8D700089C08002080070020FCD700085B
:1058300000D8000894D700082A000020640800203F
:10584000ACD70008B0D700080023B54A10210120CA
:1058500004F0C9FA0023B34A0021022004F0C3FA7D
:10586000B14B1A68B14B1B789B0013441B689B68B3
:10587000AF4A0621184603F021FD0023AC4A0E2151
:10588000022004F0D3FAA84B1A68A84B1B789B009F
:1058900013441B689B684FF000011846FBF72CFC73
:1058A0000346002B0AD000212B2004F039FA0023F4
:1058B000A04A1021022004F096FA05E000239E4A37
:1058C0001021022004F08FFA00239C4A00210320BB
:1058D00004F089FA944B1A68944B1B789B0013448C
:1058E0001B68B3F90C309249184603F037FE0023C9
:1058F0008F4A0421032004F076FA0021904804F036
:10590000D1FA00238F4A0B21032004F06CFA8E4B4E
:105910001A68864B1B789B0013441B68B3F906205A
:105920008A4B1A80894BB3F90030002B0FDA874B72
:10593000B3F900309BB25B429BB21AB2834B1A8020
:10594000002320220E21032004F02EFA11E07F4BC9
:10595000B3F90030002B06DD00232B220F2103209A
:1059600004F022FA05E0002320220E21032004F097
:105970001BFA764BB3F9003042F20F72934215DCFA
:10598000714B1A68694B1B789B0013441B68B3F971
:1059900006306749184603F0E1FD0021644804F031
:1059A00081FA0021664804F07DFA28E0664B1A6807
:1059B0005E4B1B789B0013441B68B3F906301846F6
:1059C000FAF728FD4FF00002614BFAF7B7FE0346E5
:1059D0000C4618462146FBF77FF802465D4B1A60DD
:1059E0005C4B1B68524A0121184603F067FC0021FA
:1059F0004F4804F057FA0021574804F053FA574B28
:105A00001A684A4B1B789B0013441B689B7B002B36
:105A10001BD10023524A0021042004F0E4F9424B38
:105A20001A68424B1B789B0013441B681B8A404931
:105A3000184603F093FD00233D4A0421042004F09E
:105A4000D2F900218D2004F06BF90023454A0B2187
:105A5000042004F0C8F93C4B1A68344B1B789B00B7
:105A600013441B689B883249184603F077FD0023D6
:105A70002F4A0F21042004F0B6F900218D2004F0F4
:105A80004FF9364B1A68294B1B789B0013441B684F
:105A90009B7B002B1BD10023334A0021052004F0FF
:105AA000A2F9214B1A68214B1B789B0013441B68F9
:105AB0009B7B1F49184603F051FD00231C4A04211B
:105AC000052004F090F90021284804F0EBF90023A8
:105AD000274A0B21052004F086F91B4B1A68134B4B
