:020000040800F2
:1000000000500020BD9800080D9900080D990008C7
:100010000D9900080D9900080D99000800000000D6
:100020000000000000000000000000000D99000822
:100030000D990008000000000D990008953D00088A
:100040000D9900080D9900080D9900080D990008F8
:100050000D9900080D9900080D9900080D990008E8
:100060000D9900080D9900080D9900080D990008D8
:100070000D9900080D9900080D990008F93B00083A
:100080000D9900080D9900080D9900080D990008B8
:100090000D9900080D9900080D990008ED3C000825
:1000A0000D9900080D3D00080D9900080D990008F4
:1000B000C93D00080D9900080D9900080D99000828
:1000C0000D9900080D9900080D9900080D99000878
:1000D0000D9900080D9900080D9900080D99000868
:1000E000393C00080D990008000000000D99000837
:1000F0000D9900080D9900080D9900080D99000848
:100100000D9900080D9900080D9900080D99000837
:100110000D9900080D9900080D9900080D99000827
:100120000D9900080D9900080D9900080D99000817
:1001300010B5054C237833B9044B13B10448AFF321
:1001400000800123237010BDC800002000000000C3
:10015000BCC9000808B5034B1BB103490348AFF302
:10016000008008BD00000000CC000020BCC90008D1
:1001700081F0004102E000BF83F0004330B54FEA58
:1001800041044FEA430594EA050F08BF90EA020FC5
:100190001FBF54EA000C55EA020C7FEA645C7FEA58
:1001A000655C00F0E2804FEA5454D4EB5555B8BF7B
:1001B0006D420CDD2C4480EA020281EA030382EAEC
:1001C000000083EA010180EA020281EA0303362D7E
:1001D00088BF30BD11F0004F4FEA01314FF4801C51
:1001E0004CEA113102D0404261EB410113F0004F63
:1001F0004FEA03334CEA133302D0524263EB43031A
:1002000094EA050F00F0A780A4F10104D5F1200EB7
:100210000DDB02FA0EFC22FA05F2801841F1000112
:1002200003FA0EF2801843FA05F359410EE0A5F1E6
:1002300020050EF1200E012A03FA0EFC28BF4CF017
:10024000020C43FA05F3C01851EBE37101F00045CD
:1002500007D54FF0000EDCF1000C7EEB00006EEBDA
:100260000101B1F5801F1BD3B1F5001F0CD3490864
:100270005FEA30004FEA3C0C04F101044FEA4452BB
:1002800012F5800F80F09A80BCF1004F08BF5FEA42
:10029000500C50F1000041EB045141EA050130BD22
:1002A0005FEA4C0C404141EB010111F4801FA4F1C5
:1002B0000104E9D191F0000F04BF01460020B1FA1A
:1002C00081F308BF2033A3F10B03B3F120020CDA52
:1002D0000C3208DD02F1140CC2F10C0201FA0CF030
:1002E00021FA02F10CE002F11402D8BFC2F1200C95
:1002F00001FA02F120FA0CFCDCBF41EA0C0190404B
:10030000E41AA2BF01EB0451294330BD6FEA040493
:100310001F3C1CDA0C340EDC04F11404C4F120027E
:1003200020FA04F001FA02F340EA030021FA04F390
:1003300045EA030130BDC4F10C04C4F1200220FAE7
:1003400002F001FA04F340EA0300294630BD21FA25
:1003500004F0294630BD94F0000F83F4801306BFEB
:1003600081F480110134013D4EE77FEA645C18BFDF
:100370007FEA655C29D094EA050F08BF90EA020F76
:1003800005D054EA000C04BF1946104630BD91EA6E
:10039000030F1EBF0021002030BD5FEA545C05D171
:1003A0004000494128BF41F0004130BD14F58004B0
:1003B0003CBF01F5801130BD01F0004545F0FE4124
:1003C00041F470014FF0000030BD7FEA645C1ABF59
:1003D000194610467FEA655C1CBF0B46024650EA90
:1003E000013406BF52EA033591EA030F41F40021BC
:1003F00030BD00BF90F0000F04BF0021704730B542
:100400004FF4806404F132044FF000054FF0000116
:1004100050E700BF90F0000F04BF0021704730B5D7
:100420004FF4806404F1320410F0004548BF4042AC
:100430004FF000013EE700BF42004FEAE2014FEA01
:1004400031014FEA02701FBF12F07F4393F07F4FDC
:1004500081F06051704732F07F4208BF704793F0DF
:100460007F4F04BF41F40021704730B54FF46074F2
:1004700001F0004521F000411CE700BF50EA0102F5
:1004800008BF704730B54FF000050AE050EA01029E
:1004900008BF704730B511F0004502D5404261EB0E
:1004A00041014FF4806404F132045FEA915C3FF44F
:1004B000D8AE4FF003025FEADC0C18BF03325FEAEC
:1004C000DC0C18BF033202EBDC02C2F1200300FA9D
:1004D00003FC20FA02F001FA03FE40EA0E0021FAC2
:1004E00002F11444BDE600BF70B54FF0FF0C4CF4B0
:1004F000E06C1CEA11541DBF1CEA135594EA0C0F62
:1005000095EA0C0F00F0DEF82C4481EA030621EA9C
:100510004C5123EA4C5350EA013518BF52EA0335D7
:1005200041F4801143F4801338D0A0FB02CE4FF089
:100530000005E1FB02E506F00042E0FB03E54FF0B9
:100540000006E1FB03569CF0000F18BF4EF0010EB1
:10055000A4F1FF04B6F5007F64F5407404D25FEAAD
:100560004E0E6D4146EB060642EAC62141EA555160
:100570004FEAC52040EA5E504FEACE2EB4F1FD0CA2
:1005800088BFBCF5E06F1ED8BEF1004F08BF5FEA20
:10059000500E50F1000041EB045170BD06F00046D2
:1005A00046EA010140EA020081EA0301B4EB5C047F
:1005B000C2BFD4EB0C0541EA045170BD41F4801177
:1005C0004FF0000E013C00F3AB8014F1360FDEBF9C
:1005D000002001F0004170BDC4F10004203C35DA78
:1005E0000C341BDC04F11404C4F1200500FA05F3FB
:1005F00020FA04F001FA05F240EA020001F000429C
:1006000021F0004110EBD37021FA04F642EB060111
:100610005EEA430E08BF20EAD37070BDC4F10C043B
:10062000C4F1200500FA04F320FA05F001FA04F2FF
:1006300040EA020001F0004110EBD37041F10001EB
:100640005EEA430E08BF20EAD37070BDC4F12005F6
:1006500000FA05F24EEA020E20FA04F301FA05F25E
:1006600043EA020321FA04F001F0004121FA04F206
:1006700020EA020000EBD3705EEA430E08BF20EAD6
:10068000D37070BD94F0000F0FD101F00046400010
:1006900041EB010111F4801F08BF013CF7D041EA92
:1006A000060195F0000F18BF704703F00046520096
:1006B00043EB030313F4801F08BF013DF7D043EA67
:1006C0000603704794EA0C0F0CEA135518BF95EA1D
:1006D0000C0F0CD050EA410618BF52EA4306D1D1A4
:1006E00081EA030101F000414FF0000070BD50EAC3
:1006F000410606BF1046194652EA430619D094EA4D
:100700000C0F02D150EA013613D195EA0C0F05D136
:1007100052EA03361CBF104619460AD181EA03018A
:1007200001F0004141F0FE4141F470014FF0000042
:1007300070BD41F0FE4141F4780170BD70B54FF0DD
:10074000FF0C4CF4E06C1CEA11541DBF1CEA13555D
:1007500094EA0C0F95EA0C0F00F0A7F8A4EB05043F
:1007600081EA030E52EA03354FEA013100F0888036
:100770004FEA03334FF0805545EA131343EA1263FF
:100780004FEA022245EA111545EA10654FEA0026B4
:100790000EF000419D4208BF964244F1FD0404F56D
:1007A000407402D25B084FEA3202B61A65EB0305C9
:1007B0005B084FEA32024FF480104FF4002CB6EB86
:1007C000020E75EB030E22BFB61A754640EA0C0006
:1007D0005B084FEA3202B6EB020E75EB030E22BF46
:1007E000B61A754640EA5C005B084FEA3202B6EB87
:1007F000020E75EB030E22BFB61A754640EA9C0046
:100800005B084FEA3202B6EB020E75EB030E22BF15
:10081000B61A754640EADC0055EA060E18D04FEAD3
:10082000051545EA16754FEA06164FEAC30343EA73
:1008300052734FEAC2025FEA1C1CC0D111F4801F40
:100840000BD141EA00014FF000004FF0004CB6E739
:1008500011F4801F04BF01430020B4F1FD0C88BFD8
:10086000BCF5E06F3FF6AFAEB5EB030C04BFB6EBE3
:10087000020C5FEA500C50F1000041EB045170BDD6
:100880000EF0004E4EEA113114EB5C04C2BFD4EB03
:100890000C0541EA045170BD41F480114FF0000E87
:1008A000013C90E645EA060E8DE60CEA135594EA03
:1008B0000C0F08BF95EA0C0F3FF43BAF94EA0C0F06
:1008C0000AD150EA01347FF434AF95EA0C0F7FF47B
:1008D00025AF104619462CE795EA0C0F06D152EACF
:1008E00003353FF4FDAE1046194622E750EA4106B3
:1008F00018BF52EA43067FF4C5AE50EA41047FF4C4
:100900000DAF52EA43057FF4EBAE12E74FF0FF3C28
:1009100006E000BF4FF0010C02E000BF4FF0010CF9
:100920004DF804CD4FEA410C7FEA6C5C4FEA430C72
:1009300018BF7FEA6C5C1BD001B050EA410C0CBFC1
:1009400052EA430C91EA030F02BF90EA020F002023
:10095000704710F1000F91EA030F58BF994208BF8A
:1009600090422CBFD8176FEAE37040F00100704747
:100970004FEA410C7FEA6C5C02D150EA013C07D19E
:100980004FEA430C7FEA6C5CD6D152EA033CD3D0E9
:100990005DF8040B704700BF8446104662468C46E3
:1009A0001946634600E000BF01B5FFF7B7FF002816
:1009B00048BF10F1000F01BD4DF808EDFFF7F4FF3F
:1009C0000CBF012000205DF808FB00BF4DF808EDCA
:1009D000FFF7EAFF34BF012000205DF808FB00BFED
:1009E0004DF808EDFFF7E0FF94BF012000205DF80F
:1009F00008FB00BF4DF808EDFFF7CEFF94BF0120C4
:100A000000205DF808FB00BF4DF808EDFFF7C4FFBC
:100A100034BF012000205DF808FB00BF4FEA410C05
:100A20007FEA6C5C02D150EA013C0AD14FEA430CE8
:100A30007FEA6C5C02D152EA033C02D14FF0000025
:100A400070474FF0010070474FEA410212F5001263
:100A500015D211D56FF47873B3EB625212D94FEA05
:100A6000C12343F0004343EA505311F0004F23FAEF
:100A700002F018BF404270474FF00000704750EA44
:100A8000013005D111F0004008BF6FF00040704701
:100A90004FF00000704700BF4A0011D212F500125B
:100AA00011D20DD56FF47873B3EB62520ED44FEAC6
:100AB000C12343F0004343EA505323FA02F0704746
:100AC0004FF00000704750EA013002D14FF0FF3084
:100AD00070474FF0000070474FEA4102B2F1E04327
:100AE00024BFB3F5001CDCF1FE5C0DD901F0004C15
:100AF0004FEAC0024CEA5070B2F1004F40EB830065
:100B000008BF20F00100704711F0804F21D113F190
:100B10003872BCBF01F00040704741F480114FEAC9
:100B20005252C2F11802C2F1200C10FA0CF320FA52
:100B300002F018BF40F001004FEAC1234FEAD3236F
:100B400003FA0CFC40EA0C0023FA02F34FEA4303D9
:100B5000CCE77FEA625307D150EA01331EBF4FF062
:100B6000FE4040F44000704701F0004040F0FE407D
:100B700040F40000704700BF80F0004002E000BF7A
:100B800081F0004142001FBF5FEA410392EA030F78
:100B90007FEA226C7FEA236C6AD04FEA1262D2EBC2
:100BA0001363C1BFD218414048404140B8BF5B42C7
:100BB000192B88BF704710F0004F40F4000020F060
:100BC0007F4018BF404211F0004F41F4000121F076
:100BD0007F4118BF494292EA030F3FD0A2F10102C0
:100BE00041FA03FC10EB0C00C3F1200301FA03F1FE
:100BF00000F0004302D5494260EB4000B0F5000F21
:100C000013D3B0F1807F06D340084FEA310102F1DF
:100C10000102FE2A51D2B1F1004F40EBC25008BF91
:100C200020F0010040EA03007047490040EB00005B
:100C300010F4000FA2F10102EDD1B0FA80FCACF18A
:100C4000080CB2EB0C0200FA0CF0AABF00EBC25089
:100C500052421843BCBFD0401843704792F0000F77
:100C600081F4000106BF80F400000132013BB5E7CA
:100C70004FEA41037FEA226C18BF7FEA236C21D040
:100C800092EA030F04D092F0000F08BF08467047A5
:100C900090EA010F1CBF0020704712F07F4F04D173
:100CA000400028BF40F00040704712F100723CBF86
:100CB00000F50000704700F0004343F0FE4040F4B0
:100CC000000070477FEA226216BF08467FEA23636E
:100CD0000146420206BF5FEA412390EA010F40F459
:100CE000800070474FF0000304E000BF10F00043A5
:100CF00048BF40425FEA000C08BF704743F096438C
:100D000001464FF000001CE050EA010208BF7047A6
:100D10004FF000030AE000BF50EA010208BF70472D
:100D200011F0004302D5404261EB41015FEA010C42
:100D300002BF84460146002043F0B64308BFA3F13A
:100D40008053A3F50003BCFA8CF2083AA3EBC2531C
:100D500010DB01FA02FC634400FA02FCC2F120023B
:100D6000BCF1004F20FA02F243EB020008BF20F072
:100D70000100704702F1200201FA02FCC2F12002D8
:100D800050EA4C0021FA02F243EB020008BF20EACD
:100D9000DC7070474FF0FF0C1CEAD0521EBF1CEAFB
:100DA000D15392EA0C0F93EA0C0F6FD01A4480EAE9
:100DB000010C400218BF5FEA41211ED04FF00063D2
:100DC00043EA501043EA5111A0FB01310CF00040FE
:100DD000B1F5000F3EBF490041EAD3715B0040EA24
:100DE000010062F17F02FD2A1DD8B3F1004F40EBF4
:100DF000C25008BF20F00100704790F0000F0CF0C7
:100E0000004C08BF49024CEA502040EA51207F3A8A
:100E1000C2BFD2F1FF0340EAC250704740F4000065
:100E20004FF00003013A5DDC12F1190FDCBF00F056
:100E300000407047C2F10002410021FA02F1C2F104
:100E4000200200FA02FC5FEA310040F1000053EAA0
:100E50004C0308BF20EADC70704792F0000F00F0EE
:100E6000004C02BF400010F4000F013AF9D040EAF4
:100E70000C0093F0000F01F0004C02BF490011F488
:100E8000000F013BF9D041EA0C018FE70CEAD15386
:100E900092EA0C0F18BF93EA0C0F0AD030F0004C06
:100EA00018BF31F0004CD8D180EA010000F00040BA
:100EB000704790F0000F17BF90F0004F084691F078
:100EC000000F91F0004F14D092EA0C0F01D14202B2
:100ED0000FD193EA0C0F03D14B0218BF084608D17B
:100EE00080EA010000F0004040F0FE4040F40000C5
:100EF000704740F0FE4040F4400070474FF0FF0C58
:100F00001CEAD0521EBF1CEAD15392EA0C0F93EA9E
:100F10000C0F69D0A2EB030280EA010C49024FEAF0
:100F2000402037D04FF0805343EA111143EA1013A9
:100F30000CF000408B4238BF5B0042F17D024FF461
:100F4000000C8B4224BF5B1A40EA0C00B3EB510F3C
:100F500024BFA3EB510340EA5C00B3EB910F24BF25
:100F6000A3EB910340EA9C00B3EBD10F24BFA3EBAA
:100F7000D10340EADC001B0118BF5FEA1C1CE0D172
:100F8000FD2A3FF650AF8B4240EBC25008BF20F025
:100F9000010070470CF0004C4CEA50207F32C2BF79
:100FA000D2F1FF0340EAC250704740F400004FF016
:100FB0000003013A37E792F0000F00F0004C02BF47
:100FC000400010F4000F013AF9D040EA0C0093F011
:100FD000000F01F0004C02BF490011F4000F013B6B
:100FE000F9D041EA0C0195E70CEAD15392EA0C0FD3
:100FF00008D142027FF47DAF93EA0C0F7FF470AF0B
:10100000084676E793EA0C0F04D14B023FF44CAF4D
:1010100008466EE730F0004C18BF31F0004CCAD1E2
:1010200030F000427FF45CAF31F000437FF43CAF1E
:101030005FE700BF4FF0FF3C06E000BF4FF0010C40
:1010400002E000BF4FF0010C4DF804CD4FEA400222
:101050004FEA41037FEA226C18BF7FEA236C11D06C
:1010600001B052EA530C18BF90EA010F58BFB2EB1F
:10107000030088BFC81738BF6FEAE17018BF40F09F
:10108000010070477FEA226C02D15FEA402C05D153
:101090007FEA236CE4D15FEA412CE1D05DF8040BD8
:1010A000704700BF844608466146FFE70FB5FFF76B
:1010B000C9FF002848BF10F1000F0FBD4DF808ED23
:1010C000FFF7F4FF0CBF012000205DF808FB00BF14
:1010D0004DF808EDFFF7EAFF34BF012000205DF86E
:1010E00008FB00BF4DF808EDFFF7E0FF94BF0120BB
:1010F00000205DF808FB00BF4DF808EDFFF7D2FFB8
:1011000094BF012000205DF808FB00BF4DF808EDFA
:10111000FFF7C8FF34BF012000205DF808FB00BFC7
:101120004FEA4002B2F1FE4F0FD34FF09E03B3EBF4
:1011300012620DD94FEA002343F0004310F0004F34
:1011400023FA02F018BF404270474FF0000070478A
:1011500012F1610F01D1420205D110F0004008BF29
:101160006FF0004070474FF00000704742000ED211
:10117000B2F1FE4F0BD34FF09E03B3EB126209D4D2
:101180004FEA002343F0004323FA02F070474FF088
:101190000000704712F1610F01D1420202D14FF0FD
:1011A000FF3070474FF00000704700BF80B500AFC0
:1011B000154B1B68144A43F001031360124B5A6825
:1011C0001149124B13404B600F4B1B680E4A23F022
:1011D000847323F4803313600B4B1B680A4A23F497
:1011E00080231360084B5B68074A23F4FE035360B7
:1011F000054B4FF41F029A6000F00CF8044B4FF0BF
:1012000000629A6000BF80BD001002400000FFF83D
:1012100000ED00E080B500AF00F002F800BF80BD37
:1012200080B483B000AF00237B6000233B603A4B67
:101230001B68394A43F480331360374B1B6803F44F
:1012400000333B607B6801337B603B68002B03D13C
:101250007B68B3F5A06FF0D12F4B1B6803F400330C
:10126000002B02D001233B6001E000233B603B6880
:10127000012B4BD1294B1B68284A43F01003136004
:10128000264B1B68254A23F003031360234B1B687E
:10129000224A43F0020313601F4B1F4A5B685360EE
:1012A0001D4B1D4A5B6853601B4B5B681A4A43F435
:1012B00080635360184B5B68174A23F47C135360B8
:1012C000154B5B68144A43F4E8135360124B1B68D8
:1012D000114A43F08073136000BF0F4B1B6803F08B
:1012E0000073002BF9D00C4B5B680B4A23F003030F
:1012F0005360094B5B68084A43F00203536000BF28
:10130000054B5B6803F00C03082BF9D100BF0C37C9
:10131000BD4680BC704700BF001002400020024064
:1013200080B500AF204B5B681F4A23F440435360F5
:101330001D4B9B691C4A43F4007393611B4B1B6953
:101340001A4A43F002031361184BDB6A174A23F46D
:101350007003D362154B5B6B144A23F01F03536376
:10136000124B9B68114A43F4801393600F4B9B68A8
:101370000E4A43F4602393600C4B9B680B4A43F086
:10138000010393600A4807F04FF8084B9B68074A2F
:1013900043F00403936000BF044B9B6803F0040315
:1013A000002BF9D100BF80BD001002400024014095
:1013B000A08601000000000080B500AF4E4B1B78F6
:1013C0000133DAB24C4B1A704B4B1B78092B7ED988
:1013D000494B00221A7000F0A9FC642007F024F8A1
:1013E000464B9B68454A43F48003936000BF434BE0
:1013F0001B6803F00203002BF9D000F0A3FC3F4B65
:10140000DB6C1846FFF76EFC02463D4B1946104652
:10141000FFF7C0FC03464FF08B411846FFF76EFD07
:10142000034619461846FFF7ADFB03461A46354BEF
:101430001A60344B1B681846FEF7FEFF26A3D3E95B
:101440000023FFF7E1FA0346002B04D0042101201A
:1014500001F0B6F93BE02B4B1B681846FEF7ECFF9A
:101460001FA3D3E90023FFF7CFFA0346002B04D0D4
:101470000321012001F0A4F929E0224B1B68184642
:10148000FEF7DAFF18A3D3E90023FFF7BDFA0346FE
:10149000002B04D00221012001F092F917E0194B32
:1014A0001B681846FEF7C8FF11A3D3E90023FFF716
:1014B000ABFA0346002B04D00121012001F080F992
:1014C00005E00021012001F07BF9012300E0002369
:1014D000184680BDAFF300803333333333330F40CE
:1014E000CDCCCCCCCCCC0C406666666666660A4039
:1014F000CDCCCCCCCCCC0840E40000200024014072
:10150000333353402801002080B400AF024B1B68E6
:101510001846BD4680BC70472801002080B483B0C7
:1015200000AF6B4B1B6840F2DB52934205D8684B0F
:101530001B680133664A1360C3E0654B00221A60E2
:10154000644B9B68644A1360634B1B6803F03E0363
:10155000614A1360604B1B685B085F4A136000239D
:10156000FB7126E05C4B1A68FB7922FA03F303F067
:101570000103002B0DD0FB79584AD35C0F2B15D8F3
:10158000FB79564AD25CFB790132D1B2534AD1542D
:101590000CE0FB79514AD35C002B07D0FB794F4A12
:1015A000D25CFB79013AD1B24C4AD154FB79013378
:1015B000FB71FB79042BD5D90023BB7121E0BB79EA
:1015C000464AD35C0C2B0AD9BA79BB794449895C69
:1015D000444AD154BB79424A0121D1540EE0BB792F
:1015E0003E4AD35C032B09D8BA79BB793C49895C64
:1015F0003C4AD154BB793A4A0021D154BB790133DA
:10160000BB71BB79042BDAD900237B7156E07B795F
:10161000334AD35C002B24D17B79334A32F8133020
:101620004FF6FF7293421CD07B792F4A32F8132079
:10163000013291B22C4A22F813107A797B792B4926
:10164000895C2B4AD1547B79274A32F81330B3F5A1
:10165000AF7F8CBF01230023DAB27B791146234A86
:10166000D1547B791E4AD35C012B14D17B791D4A5E
:10167000D35C002B0FD17B791B4A002122F8131079
:101680007B791A4AD35C002B05D17B795B00DBB2F6
:101690000133DBB216E07B79144AD35C012B0AD10B
:1016A0007B79134AD35C002B05D17B790133DBB204
:1016B0005B00DBB206E07B7901337B717B79042B25
:1016C000A5D9002318460C37BD4680BC704700BF23
:1016D000E800002000080140EC000020000000208D
:1016E0000800002010000020F0000020FC00002076
:1016F0000401002080B483B000AF0346FB71FB7986
:1017000003F01F03012202FA03F1054A97F907309B
:101710005B0942F8231000BF0C37BD4680BC704700
:1017200000E100E080B500AF984B9B69974A43F019
:1017300004039361964B1B68954A23F003031360DF
:10174000934B1B68924A23F00C031360904B1B6869
:101750008F4A23F0300313608D4B1B688C4A23F0B3
:10176000400313608A4B1B68894A43F0800313606F
:10177000874BDB68864A43F00203D360844B1B68C7
:10178000834A23F440731360814B1B68804A23F41F
:10179000806313607E4B1B687D4A43F400631360D3
:1017A0007B4BDB687A4A43F00403D360784B1B68B9
:1017B000774A23F440531360754B1B68744A23F433
:1017C00080431360724B1B68714A43F400431360FB
:1017D0006F4BDB686E4A43F00803D3606C4B1B68A9
:1017E0006B4A23F440331360694B1B68684A23F447
:1017F00080231360664B1B68654A43F40023136023
:10180000634BDB68624A43F01003D360604B1B6894
:101810005F4A23F4401313605D4B1B685C4A23F45A
:10182000800313605A4B1B68594A43F4000313604A
:10183000574BDB68564A43F02003D360544B1B6878
:10184000534A43F040731360514B1B68504A23F0D6
:10185000406313604E4B1B684D4A43F04053136086
:101860004B4B1B684A4A23F080431360484B1B686C
:10187000474A43F000431360454B5B68444A43F0DA
:1018800003035360424B5B68414A23F00C035360EF
:101890003F4B5B683E4A43F0300353603C4B5B6810
:1018A0003B4A23F040035360394B5B68384A43F0AE
:1018B00080035360364B5B68354A23F440735360B2
:1018C000334B5B68324A43F480635360304B5B6850
:1018D0002F4A23F4006353602D4B5B682C4A23F49A
:1018E000405353602A4B5B68294A23F4804353607A
:1018F000274B5B68264A43F400435360244BDB6864
:10190000234A23F40063D360214B5B68204A23F40D
:10191000405353601E4B5B681D4A23F48043536061
:101920001B4B5B681A4A43F400435360184BDB6857
:10193000174A23F40063D360154B5B68144A43F0E5
:1019400040535360124B5B68114A23F0404353608D
:101950000E4B9B690D4A43F0080393610D4B1B68C6
:101960000C4A43F0030313600A4B1B68094A23F037
:101970000C031360074B1B68064A43F030031360E7
:10198000044B1B68034A23F0C00305E0001002402B
:1019900000080140000C01401360624B1B68614A63
:1019A00043F4405313605F4B1B685E4A23F480434B
:1019B00013605C4B1B685B4A43F400431360594B54
:1019C0001B68584A23F440331360564B1B68554A32
:1019D00043F480231360534B1B68524A23F40023C3
:1019E0001360504B1B684F4A43F4401313604D4B38
:1019F0001B684C4A23F4800313604A4B1B68494A16
:101A000043F400031360474B1B68464A23F04073BE
:101A10001360444B1B68434A23F080631360414BBF
:101A20001B68404A43F0006313603E4BDB683D4A4D
:101A300043F04003D3603B4B1B683A4A43F04053AA
:101A40001360384B1B68374A23F040431360354B13
:101A50005B68344A43F440735360324B5B68314AED
:101A600043F4406353602F4B5B682E4A43F440536A
:101A700053602C4B5B682B4A43F440435360294B23
:101A80005B68284A43F440335360264B5B68254A21
:101A900023F440235360234B5B68224A43F44013F2
:101AA0005360204B5B681F4A23F4800353601D4B37
:101AB0005B681C4A43F4000353601A4B5B68194A85
:101AC00043F040735360174B5B68164A23F0406342
:101AD0005360144B5B68134A43F040535360114BFF
:101AE0005B68104A23F0804353600E4B5B680D4ADD
:101AF00043F0004353600C4B9B690B4A43F01003C7
:101B000093610A4B5B68094A43F440135360074BE7
:101B10005B68064A23F44003536000F083F800BF7B
:101B200080BD00BF000C01400010024000100140C9
:101B300080B500AF194B9B69184A43F001039361CC
:101B4000174B174A1B691361164B9B68154A43F4E0
:101B500000639360134B1B68124A43F400631360E5
:101B60002820FFF7C7FD0E4BDB680D4A43F4807356
:101B7000D3600C4BDB680B4A43F04003D360094B46
:101B80001B68084A43F0400313601720FFF7B2FDBB
:101B9000044B054A5A6100BF80BD00BF00100240DF
:101BA0000000014000040140FFFF070080B400AFC7
:101BB000034B01221A6100BFBD4680BC704700BFC5
:101BC000000C014080B400AF034B4FF480321A6127
:101BD00000BFBD4680BC7047000C014080B400AF20
:101BE000034B02221A6100BFBD4680BC704700BF94
:101BF000000C014080B400AF034B4FF400321A6177
:101C000000BFBD4680BC7047000C014080B400AFEF
:101C1000034B4FF000521A6100BFBD4680BC7047B5
:101C20000010014080B400AF034B4FF400521A6122
:101C300000BFBD4680BC70470010014080B400AFBB
:101C4000034B80221A6100BFBD4680BC704700BFB5
:101C5000000C014080B400AF034B4FF400021A6146
:101C600000BFBD4680BC7047000C014080B400AF8F
:101C7000034B4FF000421A6100BFBD4680BC704765
:101C80000008014080B400AF034B4FF400421A61DA
:101C900000BFBD4680BC70470008014080B400AF63
:101CA000034B4FF080721A6100BFBD4680BC704785
:101CB0000008014080B400AF034B4FF480721A61FA
:101CC00000BFBD4680BC70470008014080B400AF33
:101CD000034B4FF480421A6100BFBD4680BC704781
:101CE000000C014080B400AF034B4FF080421A61FA
:101CF00000BFBD4680BC7047000C014080B400AFFF
:101D0000034B4FF080521A6100BFBD4680BC704744
:101D1000000C014080B400AF034B4FF480521A61B5
:101D200000BFBD4680BC7047000C014080B400AFCE
:101D3000034B40221A6100BFBD4680BC704700BF04
:101D40000008014080B400AF034B4FF480021A61D9
:101D500000BFBD4680BC70470008014080B500AFA1
:101D60006C220021114807F002FE00F0C3F903467F
:101D7000002B17D000F098FA0346002B12D000F089
:101D800009FB0346002B0DD000F07AFB0346002B25
:101D900008D040220021064807F0E9FD00F00AF8CB
:101DA000012300E00023184680BD00BF8805002005
:101DB0003801002098B500AF8B4B1A788B4B1A7006
:101DC000894B5A78894B5A70884B00229A70874801
:101DD00006F0DAFC0346DAB2854B1A70824B9A7829
:101DE000824B1A70804BDA78804B5A707F4B0022FE
:101DF0009A707E4806F0C8FC0346DAB27C4B5A70F3
:101E0000794B1A79794B1A70774B5A79774B5A700C
:101E1000764B00229A70754806F0B6FC0346DAB29B
:101E2000734B9A70704B1A7B704B1A706E4B5A7BC7
:101E30006E4B5A706D4B00229A706C4806F0A4FCF1
:101E40000346DAB26A4BDA70674B9A7B674B1A70BB
:101E5000654BDA7B654B5A70644B00229A7063487D
:101E600006F092FC0346DAB2614B1A715E4B1A7CA3
:101E70005E4B1A705C4B5A7C5C4B5A705B4B002279
:101E80009A705A4806F080FC0346DAB2584B5A71F1
:101E9000554B5A7D554B1A70534B9A7D534B5A7084
:101EA000524B00229A70514806F06EFC0346DAB29B
:101EB000504B1A70504806F0C7FA02464F4B1A6052
:101EC0004E4B1B684E491846FFF718F803461A4652
:101ED0004A4B1A60474B1B781846FEF707FF02462D
:101EE000464B1B6819461046FEF74CFE03461A4641
:101EF000424B1A603C4B93F82130532B10D13F4B8F
:101F00001B681846FEF798FA03460C461846214609
:101F1000FEF7E2FD034683F00043354A936003E099
:101F2000364B1B68324A9360314B9B681846FEF76C
:101F300083FA344B18CB1A462346FEF7D5FA0346EC
:101F40000C462B4AC2E90434274B93F82520274B33
:101F50001A70254B93F82620244B5A70224B93F885
:101F60002720224B9A70214B0022DA701F4806F07E
:101F70000BFC0346DAB21F4B1A70234806F064FAD2
:101F800002461E4B1A601D4B1B681D491846FEF782
:101F9000B5FF03461A46194B1A60164B1B781846B4
:101FA000FEF7A4FE0246154B1B6819461046FEF7C5
:101FB000E9FD03461A46114B1A600B4B93F8323079
:101FC000572B23D10D4B1B681846FEF735FA0346F5
:101FD0000C4618462146FEF77FFD034683F000437A
:101FE000034A936116E000BF8805002078010020B5
:101FF00038010020F40500209F050020300100205A
:102000000000704240CF0008B00500202D4B1B6837
:102010002D4A93612C4B9B691846FEF70DFA2B4B0A
:1020200018CB1A462346FEF75FFA03460C46264AAB
:10203000C2E90834264806F007FA0246254B19463D
:102040001046FEF7A7FE03461A461F4B9A62224827
:1020500006F0FAF902461C4BDA62204806F0F4F961
:102060000246194B1A631E4806F08EFB0346DAB28D
:10207000154B83F834201B4806F086FB0346DAB282
:10208000114B83F83520184B93F84830412B04D17D
:102090000D4B012283F8362003E00B4B002283F81E
:1020A0003620124806F070FB0346DAB2064B83F87E
:1020B00037200F4806F0C8F90246034B9A6300BF69
:1020C00098BD00BF300100203801002040CF00083B
:1020D000BE050020560EED3FC8050020D4050020A7
:1020E000DE050020E305002088050020E80500202B
:1020F000EC05002080B582B000AF0023FB71002307
:10210000BB710023BB8002E0BB880133BB80BB886E
:10211000634AD35C242B11D1BB880333604AD35C60
:10212000522B0BD1BB8804335D4AD35C4D2B05D1B8
:10213000BB8805335A4AD35C432B03D0BB88B3F525
:10214000806FE1D3BB88184600F002FA0346002BEB
:1021500001D10023A0E0BB8806337B8096E07B881A
:102160004F4AD35C2A2B01D1012395E07B884C4A4E
:10217000D35C2C2B05D1FB790133FB710023BB71A0
:1021800081E0FB79013B082B7CD801A252F823F0B7
:10219000B5210008C9210008E1210008F721000845
:1021A0000F220008272200083F22000857220008BB
:1021B0006F2200087A88BB79591CB9711946384BCF
:1021C0009A5C384B5A545EE07A88BB79591CB971D5
:1021D0001946334B9A5C334B0B4483F8482052E04A
:1021E0007A88BB79591CB97119462D4B9A5C2D4BD5
:1021F0000B445A7547E07A88BB79591CB971194666
:10220000274B9A5C274B0B4483F821203BE07A88CC
:10221000BB79591CB9711946214B9A5C214B0B446F
:1022200083F825202FE07A88BB79591CB9711946AB
:102230001B4B9A5C1B4B0B4483F8322023E07A88BB
:10224000BB79591CB9711946154B9A5C154B0B4457
:1022500083F8362017E07A88BB79591CB971194682
:102260000F4B9A5C0F4B0B4483F840200BE07A88AD
:10227000BB79591CB9711946094B9A5C094B0B443F
:102280001A7300E000BF7B8801337B807B88B3F545
:10229000806FFFF464AF012318460837BD4680BD48
:1022A000880100208805002080B582B000AF00239F
:1022B000FB710023BB710023BB8002E0BB880133AC
:1022C000BB80BB88314AD35C242B11D1BB8803333C
:1022D0002E4AD35C472B0BD1BB8804332B4AD35CEB
:1022E000472B05D1BB880533284AD35C412B03D04B
:1022F000BB88B3F5806FE1D3BB88184600F028F99E
:102300000346002B01D100233BE0BB8806337B80D2
:1023100032E07B881D4AD35C2A2B01D1012330E0B7
:102320007B881A4AD35C2C2B05D1FB790133FB71D6
:102330000023BB711DE0FB79072B02D0092B0CD0C9
:1023400017E07A88BB79591CB97119460F4B9A5C12
:102350000F4B0B4483F85B200BE07A88BB79591C48
:10236000B9711946094B9A5C094B0B4483F84C2010
:1023700000BF7B8801337B807B88B3F5806FC8D337
:10238000012318460837BD4680BD00BF88010020E4
:102390008805002080B582B000AF0023FB710023C8
:1023A000BB710023BB8002E0BB880133BB80BB88CC
:1023B000314AD35C242B11D1BB8803332E4AD35C22
:1023C000472B0BD1BB8804332B4AD35C532B05D14D
:1023D000BB880533284AD35C412B03D0BB88B3F5B7
:1023E000806FE1D3BB88184600F0B2F80346002B9B
:1023F00001D100233BE0BB8806337B8032E07B8841
:102400001D4AD35C2A2B01D1012330E07B881A4A74
:10241000D35C2C2B05D1FB790133FB710023BB71FD
:102420001DE0FB79022B02D00F2B0CD017E07A882D
:10243000BB79591CB97119460F4B9A5C0F4B0B4471
:1024400083F860200BE07A88BB79591CB971194672
:10245000094B9A5C094B0B4483F8642000BF7B88CE
:1024600001337B807B88B3F5806FC8D30123184686
:102470000837BD4680BD00BF8801002088050020C8
:1024800080B582B000AF0023FB710023BB71002335
:10249000BB8002E0BB880133BB80BB882A4AD35C87
:1024A000242B11D1BB880333274AD35C472B0BD194
:1024B000BB880433244AD35C532B05D1BB88053336
:1024C000214AD35C562B03D0BB88B3F5806FE1D390
:1024D000BB88184600F03CF80346002B01D10023CE
:1024E0002DE0BB8806337B8024E07B88164AD35CD2
:1024F0002A2B01D1012322E07B88134AD35C2C2BA9
:1025000005D1FB790133FB710023BB710FE0FB792F
:10251000032B00D00BE07A88BB79591CB97119469E
:10252000094B9A5C094B0B4483F8562000BF7B880B
:1025300001337B807B88B3F5806FD6D301231846A7
:102540000837BD4680BD00BF8801002088050020F7
:1025500080B485B000AF0346FB800023FB730023EB
:10256000BB73FB880133FB800EE0FB88274AD25CFB
:10257000FB7B5340FB73FB880133FB80FB88B3F587
:10258000806F01D300233BE0FB88204AD35C2A2BD9
:10259000EBD1FB880133FB80FB881C4AD35C402BCA
:1025A00007D9FB88194AD35C373BDBB21B01BB73ED
:1025B00006E0FB88154AD35C303BDBB21B01BB73E2
:1025C000FB880133FB80FB88104AD35C402B08D981
:1025D000FB880E4AD25CBB7B1344DBB2373BBB7338
:1025E00007E0FB88094AD25CBB7B1344DBB2303B7B
:1025F000BB73BA7BFB7B9A4201D1012300E000232D
:1026000018461437BD4680BC704700BF88010020C3
:1026100080B400AF034B93F836301846BD4680BCFB
:10262000704700BF3801002080B400AF024B18464D
:10263000BD4680BC704700BF8801002080B400AF59
:10264000024B1846BD4680BC704700BF880500207D
:1026500080B400AF024B1846BD4680BC704700BF37
:102660003801002080B400AF184BDB69174A43F4EF
:102670008003D361164B9B889BB2154A23F03F031E
:102680009BB29380124B9B889BB2114A43F00A0382
:102690009BB293800E4B9B8B9BB20D4A43F0B403CD
:1026A0009BB293830A4B1B8C9BB2094A43F02503D0
:1026B0009BB21384064B1B889BB2054A43F001036F
:1026C0009BB2138000BFBD4680BC70470010024023
:1026D0000058004080B582B000AF0123FB7117E0C5
:1026E000FA7913469B0013449B002D4A134414228D
:1026F0000021184607F03BF9FB79DB00294A134417
:1027000008220021184607F032F9FB790133FB71EA
:10271000FB79062BE4D906F00FF90246224B1A602A
:10272000FFF796FF0246214B1A6006F06BFB02464C
:102730001F4B1A6006F070FB02461E4B1A601A4BC4
:102740001B681A781C4B1A701B4B1B7819461B4AC6
:102750000B465B000B44DB00134401221A70124B42
:102760001B68154A1278114658780D4A0B469B0093
:102770000B449B00134402461A700B4B1B680E4A15
:10278000127811469878064A0B469B000B449B0032
:102790001344013302461A7000BF0837BD4680BD9E
:1027A00040070020000700201C060020140600201F
:1027B0003C070020180600203807002020060020D3
:1027C00080B485B000AF03460A46FB711346BB7167
:1027D000FB79013B032B1FD801A252F823F000BF65
:1027E000F1270008FB270008052800080F2800082B
:1027F0000723FB730023BB730EE00823FB73032343
:10280000BB7309E01023FB730423BB7304E0202394
:10281000FB730523BB7300BF264B1B781946264A62
:102820000B469B000B449B00134402331B785AB2A7
:1028300097F90F30DB435BB213405AB21D4B1B7844
:102840001946D0B21C4A0B469B000B449B00134414
:10285000023302461A70FA7BBB7B42FA03F35AB288
:1028600097F9063013405BB2BB71124B1B781946C7
:10287000114A0B469B000B449B00134402331B7808
:102880005AB2B979BB7B01FA03F35BB213435AB274
:10289000084B1B781946D0B2074A0B469B000B44E5
:1028A0009B001344023302461A7000BF1437BD4622
:1028B00080BC7047380700204007002080B485B0F6
:1028C00000AF03460A46FB711346BB71BB79013B5F
:1028D000032B1FD801A252F823F000BFED280008F7
:1028E000F7280008012900080B2900080723FB73BB
:1028F0000023BB730EE00823FB730323BB7309E0C3
:102900001023FB730423BB7304E02023FB73052314
:10291000BB7300BFFA790A4913469B0013449B001E
:102920000B4402331A78FB7B1340DBB21A46BB7BA5
:1029300042FA03F3DBB218461437BD4680BC704739
:102940004007002080B582B000AF0023FB71012357
:10295000BB710CE0BB7904211846FFF7AFFF0346BB
:10296000012B01D10123FB71BB790133BB71BB7911
:10297000062BEFD9FB79012B03D1FFF717F90123C0
:1029800002E0FFF71FF9002318460837BD4680BD57
:1029900080B485B000AF78600123FB7320E0FA7B40
:1029A000134913465B001344DB000B441B78012BD7
:1029B00013D1FA7B0E4913465B001344DB000B4432
:1029C00004331B68FA7B7968C91A094813465B000F
:1029D0001344DB00034408331960FB7B0133FB73B2
:1029E000FB7B062BDBD900BF1437BD4680BC70478C
:1029F0002006002080B483B000AF0023FB710123C8
:102A0000BB7137E0BA79224913465B001344DB00FF
:102A10000B440E331B78002B29D11E4B1B68DB881F
:102A2000002B24D0BA791A4913465B001344DB000B
:102A30000B4408331B68174A1268D28893420CD99A
:102A4000BA79134913465B001344DB000B440C3383
:102A500001221A700123FB7109E0BA790C4913466F
:102A60005B001344DB000B440C3300221A70BB796B
:102A70000133BB71BB79062BC4D9FB79012B01D182
:102A8000012300E0002318460C37BD4680BC704788
:102A9000200600201C06002080B483B000AF002375
:102AA000FB710123BB712CE0BA791D4913465B0011
:102AB0001344DB000B441B78002B1FD0BB79194A51
:102AC00052F83330184A1268128993420CD9BA79F5
:102AD000134913465B001344DB000B440D33012202
:102AE0001A700123FB7109E0BA790D4913465B00A6
:102AF0001344DB000B440D3300221A70BB79013301
:102B0000BB71BB79062BCFD9FB79012B01D10123F6
:102B100000E0002318460C37BD4680BC704700BF5C
:102B200020060020000700201C06002080B582B08F
:102B300000AF0123FB7110E0FA790B4913465B00EB
:102B40001344DB000B441B78012B03D1FB7918469F
:102B500000F0A6FAFB790133FB71FB79062BEBD968
:102B600000BF0837BD4680BD2006002090B583B069
:102B700000AF7860444B1B781946444A0B465B0013
:102B80000B44DB00134404337A681A60404B1B6823
:102B900093F83730032B04D101210220FFF710FEF8
:102BA00003E000210220FFF70BFE394B1B689B6BF3
:102BB00038491846FEF796FA0346002B04D0012147
:102BC0000320FFF7FDFD03E000210320FFF7F8FDE0
:102BD0002F4B1B682C4A127810469A682E490346E0
:102BE0009B0003449B000B4404331A60284B1B6872
:102BF000254A127810469A69274903469B000344E8
:102C00009B000B4408331A60214B1B681A6B1E4B48
:102C10001B781C461046FEF783FA034619B21E4A7B
:102C200023469B0023449B0013440C330A461A801E
:102C3000174B1B689A6A144B1B781C461046FEF70C
:102C400095FA0346D9B2144A23469B0023449B00BD
:102C500013440E330A461A700D4B1B68DA6A0A4B8E
:102C60001B781C461046FEF781FA034699B20A4AC1
:102C700023469B0023449B00134410330A461A80CA
:102C800000BF0C37BD4690BD38070020200600204D
:102C9000140600200000C0404007002080B400AFB0
:102CA000804B1B68804A12781A707F4B1B7818463D
:102CB0007C4B1B685A1C7D4903469B0003449B00C8
:102CC0000B441B781370784B1B781846754B1B68A8
:102CD0009A1C764903469B0003449B000B44013336
:102CE0001B781370704B1B7818466E4B1B68DA1CF0
:102CF0006E4903469B0003449B000B4402331B7840
:102D00001370694B1B781846664B1B681A1D674980
:102D100003469B0003449B000B4404331B78137051
:102D2000614B1B7818465F4B1B685A1D5F49034671
:102D30009B0003449B000B4405331B7813705A4BD4
:102D40001B781846574B1B689A1D584903469B0031
:102D500003449B000B4406331B781370524B1B78C3
:102D60001846504B1B68DA1D504903469B0003442C
:102D70009B000B4407331B7813704B4B1B78184692
:102D8000484B1B6803F10802484903469B00034473
:102D90009B000B4408331B781370434B1B78184679
:102DA000404B1B6803F10902404903469B00034462
:102DB0009B000B4409331B7813703B4B1B78184660
:102DC000384B1B6803F10A02384903469B00034451
:102DD0009B000B440A331B781370334B1B78184647
:102DE000304B1B6803F10B02304903469B00034440
:102DF0009B000B440B331B7813702B4B1B7818462E
:102E0000284B1B6803F10C02284903469B0003442E
:102E10009B000B440C331B781370234B1B78184614
:102E2000204B1B6803F10D02204903469B0003441D
:102E30009B000B440D331B7813701B4B1B781846FB
:102E4000184B1B6803F10E02184903469B0003440C
:102E50009B000B440E331B781370134B1B781846E2
:102E6000104B1B6803F10F02104903469B000344FB
:102E70009B000B4410331B7813700B4B1B781846C8
:102E8000084B1B6803F11002084903469B000344EA
:102E90009B000B4411331B78137000BFBD4680BCF0
:102EA000704700BF3C070020380700204007002083
:102EB00080B485B000AF7860764B1B681B78FB73DD
:102EC000FA7B754913465B001344DB000B44012277
:102ED0001A70FA7B704913465B001344DB000B4405
:102EE00004337A681A606B4B1B680133FA7B1878DD
:102EF0006A4913469B0013449B000B4402461A7018
:102F0000644B1B680233FA7B1878644913469B00B4
:102F100013449B000B44013302461A705D4B1B683F
:102F2000FA7BD8785D4913469B0013449B000B4401
:102F3000023302461A70574B1B68FA7B18795749BF
:102F400013469B0013449B000B44043302461A7043
:102F5000504B1B68FA7B5879504913469B00134429
:102F60009B000B44053302461A704A4B1B68FA7BE0
:102F700098794A4913469B0013449B000B4406333F
:102F800002461A70434B1B68FA7BD87943491346B3
:102F90009B0013449B000B44073302461A703D4BC1
:102FA0001B68FA7B187A3D4913469B0013449B002B
:102FB0000B44083302461A70364B1B68FA7B587A6A
:102FC000364913469B0013449B000B4409330246C9
:102FD0001A70304B1B68FA7B987A304913469B0075
:102FE00013449B000B440A3302461A70294B1B689A
:102FF000FA7BD87A294913469B0013449B000B4463
:103000000B3302461A70234B1B68FA7B187B23494B
:1030100013469B0013449B000B440C3302461A706A
:103020001C4B1B68FA7B587B1C4913469B001344BE
:103030009B000B440D3302461A70164B1B68FA7B3B
:10304000987B164913469B0013449B000B440E3398
:1030500002461A700F4B1B68FA7BD87B0F49134648
:103060009B0013449B000B44103302461A70094B1B
:103070001B68FA7B187C094913469B0013449B008C
:103080000B44113302461A70FB7B18461437BD46B9
:1030900080BC704718060020200600204007002052
:1030A0002DE9F0438FB000AF0346FB71C64B1B68A0
:1030B00003F11004D4E90034C7E90634C24B1B689D
:1030C00003F12004D4E90034C7E90434FA79BF4994
:1030D00013469B0013449B000B4404331B681846A3
:1030E000FDF7AAF9AEA4D4E900341A462346FDF749
:1030F000FBF903460C46C7E90C34FA79B349134689
:103100009B0013449B000B4408331B681846FDF7D3
:1031100093F9A3A4D4E900341A462346FDF7E4F951
:1031200003460C46C7E90A34D7E90C23D7E9060160
:10313000FDF742FC0346002B0AD09BA3D3E90023F2
:10314000D7E90C01FDF71AF803460C46C7E90C3421
:10315000D7E90A23D7E90401FDF72EFC0346002B2B
:103160000AD091A3D3E90023D7E90A01FDF706F8B5
:1031700003460C46C7E90A34D7E90623D7E90C0110
:10318000FCF7FAFF03460C46184621464FF00002B2
:103190004FF08043FDF7D2FA03460C46184621460D
:1031A00006F0B2FD4FF000024FF0804306F0DEFE65
:1031B00004460D46D7E90C0106F06CFD80468946B1
:1031C000D7E9060106F066FD02460B464046494631
:1031D000FDF78AF902460B4690469946D7E9042343
:1031E000D7E90A01FCF7C8FF02460B46104619460C
:1031F0004FF000024FF08043FDF7A0FA02460B4665
:103200001046194606F080FD4FF000024FF0804353
:1032100006F0ACFE02460B4640464946FDF764F90F
:1032200002460B4620462946FCF7A8FF03460C46FB
:103230001846214606F0F6FF03460C46184621467E
:1032400006F0C6FD5AA4D4E900341A462346FDF719
:103250004BF903460C46C7E90234D7E90423D7E902
:103260000A01FCF789FF03460C461D4626464FF02F
:1032700000024FF08043D7E90C01FDF75FFA0346E7
:103280000C46184621464CA4D4E900341A4623467D
:10329000FCF774FF03460C461846214606F06EFD07
:1032A000804689464FF000024FF08043D7E906017F
:1032B000FDF744FA03460C46184621463EA4D4E9DD
:1032C00000341A462346FCF759FF03460C461846BD
:1032D000214606F053FD03460C461A462346404657
:1032E0004946FDF72BFA03460C461846214606F0E0
:1032F000C3FD03460C461A46234628463146FDF7D1
:103300001DFA03460C461846214606F039FBC7E96C
:103310000801D7E90623D7E90C01FDF775FB034641
:10332000002B16D0D7E90423D7E90A01FDF76CFB7F
:103330000346002B0DD022A4D4E900341A462346BC
:10334000D7E90801FDF7D0F803460C46C7E9083471
:103350005DE0D7E90623D7E90C01FDF755FB0346ED
:10336000002B37D0D7E90423D7E90A01FDF72EFB5C
:103370000346002B2ED012A1D1E90001D7E9082382
:10338000FDF7B2F803460C46184621464FF00002FE
:103390000F4BFCF7F3FE03460C46C7E9083436E052
:1033A0003A9D52A246DF913F3A8C30E28E79453EFB
:1033B00000000000B04D6841182D4454FB21E93F46
:1033C000F8C1631ADCA54C40140600204007002019
:1033D00000807640D7E90623D7E90C01FDF7F6FA1D
:1033E0000346002B13D02CA1D1E90001D7E9082313
:1033F000FDF77AF803460C46184621464FF00002C6
:10340000274BFCF7BBFE03460C46C7E90834FC79A2
:10341000D7E90201FDF740FB0246224B43F8342076
:10342000FB79204A52F83330002B06D1FB791D4A34
:10343000DB00134400229A800BE0FC79D7E90801F5
:10344000FDF72AFB034699B2164AE30013440A46E5
:103450009A80FA79144913469B0013449B000B444D
:103460000C33B3F900309CB2104B1B681B6B184631
:10347000FDF756FE03461BB29BB2E31A9AB2FB79E4
:1034800011B2084ADB0013440A46DA8000BF3C3719
:10349000BD46BDE8F08300BFF8C1631ADCA54C400F
:1034A000008066400007002040070020140600202E
:1034B00080B483B000AF0023FB710DE0FA79F97995
:1034C00013469B0013449B00084A1344084A42F8E1
:1034D0002130FB790133FB71FB79062BEED9044BCC
:1034E00018460C37BD4680BC704700BF400700201F
:1034F000E406002080B483B000AF0023FB710AE033
:10350000FA79FB79D20008490A44084941F8232096
:10351000FB790133FB71FB79062BF1D9034B18467C
:103520000C37BD4680BC704700070020C80600204D
:1035300080B483B000AF0023FB710DE0FA79F97914
:1035400013465B001344DB00084A1344084A42F860
:103550002130FB790133FB71FB79062BEED9044B4B
:1035600018460C37BD4680BC704700BF20060020BF
:10357000F805002080B483B000AF64237B7147E07E
:103580002D4B1B889BB22C4A43F480739BB2138053
:1035900000BF294B9B8A9BB203F00103002BF8D09C
:1035A000254B9B8A7B80244BA0221A82224B9B8A2C
:1035B0007B807B8803F00203002B04D17B8803F41B
:1035C0008063002BF2D01C4B9B8A7B801A4B1B8B99
:1035D000FB807B8803F48063002B07D0164B4FF6EB
:1035E000FF329A827B79013B7B7111E07B8803F08B
:1035F0000203002B09D0104B1B889BB20E4A43F4E8
:1036000000739BB21380012311E07B79013B7B7136
:103610007B79002BB4D1FB880133FB80064B1B88E0
:103620009BB2054A43F400739BB2138000231846F3
:103630000C37BD4680BC70470058004080B584B050
:1036400000AF0346FB800023FB73FFF793FF0346A5
:10365000002B00F08480454B1B889BB2434A43F407
:1036600080739BB2138000BF404B9B8A9BB203F0D8
:103670000103002BF8D03D4B9B8ABB813B4BA02222
:103680001A8200BF394B9B8A9BB203F00203002BC6
:10369000F8D0364B9B8ABB81344B1B8BBB81FB889C
:1036A0001B0A9BB2DAB2314B92B21A8200BF2F4B87
:1036B0009B8A9BB203F08003002BF8D0FB88DAB220
:1036C0002A4B92B21A8200BF284B9B8A9BB203F00E
:1036D0008003002BF8D0254B1B889BB2234A43F470
:1036E00080739BB2138000BF204B9B8A9BB203F078
:1036F0000103002BF8D01D4B9B8ABB811B4BA122E1
:103700001A8200BF194B9B8A9BB203F00203002B65
:10371000F8D0164B9B8ABB81144B1B8BBB81134B80
:103720001B889BB2114A23F480639BB213800F4B1A
:103730001B889BB20D4A43F400739BB2138000BFF9
:103740000A4B9B8A9BB203F04003002BF8D0BB8945
:103750000133BB81054B1B8A9BB2FB7301E0002345
:10376000FB73FB7B18461037BD4680BD00580040F8
:1037700080B584B000AF78600B46FB70FFF7FAFEAF
:103780000346002B00F0B180FB789BB25B01BB814C
:10379000584B1B889BB2574A43F480739BB21380EB
:1037A00000BF544B9B8A9BB203F00103002BF8D05F
:1037B000504B9B8A9BB2FB724E4BA0221A8200BFD9
:1037C0004C4B9B8A9BB203F00203002BF8D0494B71
:1037D0009B8A9BB2FB72474B1B8B9BB2FB72BB89D4
:1037E0001B0A9BB2DAB2434B92B21A8200BF414B22
:1037F0009B8A9BB203F08003002BF8D0BB89DAB21E
:103800003C4B92B21A8200BF3A4B9B8A9BB203F0A8
:103810008003002BF8D0374B1B889BB2354A43F40A
:1038200080739BB2138000BF324B9B8A9BB203F024
:103830000103002BF8D02F4B9B8A9BB2FB722D4BC0
:10384000A1221A8200BF2B4B9B8A9BB203F002037A
:10385000002BF8D0274B9B8A9BB2FB72254B1B8B0E
:103860009BB2FB720023FB731AE0224B1B889BB2B6
:10387000204A43F480639BB2138000BF1D4B9B8A98
:103880009BB203F04003002BF8D01A4B1B8A99B26D
:10389000FB7B7A681344CAB21A70FB7B0133FB735B
:1038A000FB7B1E2BE1D9134B1B889BB2114A23F4DF
:1038B00080639BB213800F4B1B889BB20D4A43F46D
:1038C00000739BB2138000BF0A4B9B8A9BB203F02C
:1038D0004003002BF8D0074B1B8A9AB27B681F333A
:1038E000D2B21A70FB7A0133FB7200BF1037BD46AB
:1038F00080BD00BF0058004080B584B000AF786044
:103900000B46FB70FFF736FE0346002B6BD00023FF
:10391000BB73FB789BB25B01BB81354B1B889BB2B1
:10392000334A43F480739BB2138000BF304B9B8AB1
:103930009BB203F00103002BF8D02D4B9B8A9BB266
:10394000BB732B4BA0221A8200BF294B9B8A9BB2D0
:1039500003F00203002BF8D0254B9B8A9BB2BB736C
:10396000234B1B8B9BB2BB73BB891B0A9BB2DAB286
:103970001F4B92B21A8200BF1D4B9B8A9BB203F071
:103980008003002BF8D0BB89DAB2194B92B21A82AD
:1039900000BF174B9B8A9BB203F08003002BF8D02B
:1039A0000023FB7311E0FB7B7A6813441A78104BF9
:1039B00092B21A8200BF0E4B9B8A9BB203F00403A3
:1039C000002BF8D0FB7B0133FB73FB7B1F2BEAD969
:1039D000BB7B0133BB73064B1B889BB2044A43F489
:1039E00000739BB2138000BF1037BD4680BD00BF7F
:1039F0000058004080B58CB000AF0346FB71002337
:103A000087F82F300CE097F82F3007F1300213447D
:103A1000FF2203F8242C97F82F30013387F82F303A
:103A200097F82F301F2BEED9FA7907F10C031146C6
:103A30001846FFF761FF00BF3037BD4680BD80B537
:103A400082B000AF0023FB8007E0FB88DBB21846A2
:103A5000FFF7D0FFFB880133FB80FB88FF2BF4D9F5
:103A600000BF0837BD4680BD80B400AF62B600BF5E
:103A7000BD4680BC7047000080B582B000AFFDF746
:103A800051FE05F003FD05F0D1F905F02BFAFEF724
:103A9000E9FD05F067FE04F059FF05F0B3FA05F003
:103AA00019F8FEF745F8FDF73BFCFDF785FCFEF73E
:103AB00011FE00F0CBF904F0D3F804F03DFF02460C
:103AC000464B1A60FEF7C4FD0246454B1A6004F0EF
:103AD0001FFF0246434B1A60434805F077FC05F090
:103AE000D7FA424804F0A0FC00F0FEFBFFF7BCFF51
:103AF00005F0D8FCFDF712FD0346184600F00AFA5F
:103B00003B4B1B78012B23D1394B00221A70FEF757
:103B100025F90346012B15D1354B5B78012B0ED1CE
:103B2000FEF776FD0346012B07D1324B1B68184682
:103B3000FFF71CF8FFF7B2F801E005F043FD00F0D5
:103B4000D3FB05E02A4B5B78012B01D105F03AFD50
:103B5000274B9B78012B0CD1254B00229A7005F046
:103B6000E7F80346002B04D0224B1B681846FFF7EA
:103B70009FF91F4BDB78012B21D11D4B0022DA70FE
:103B8000FEF7D4FF0023FB71FEF7DCFE03461A4666
:103B9000FB791344FB71FEF72DFF03461A46FB79B0
:103BA0001344FB71FEF778FF03461A46FB79134472
:103BB000FB71FB79002B9DD005F074FC9AE70C4B50
:103BC0001B79012B96D10A4B5B78002B92D105F023
:103BD00069FC074B00221A718CE700BF1C0600200D
:103BE00014060020CC07002044D50008404B4C00B0
:103BF000180100200C01002080B500AF0B4B4FF4E2
:103C000080325A6005F018FE05F036FE05F022FEFF
:103C1000074B01221A70064B00225A70054B0022F6
:103C20001A60FDF7E7FF00BF80BD00BF0000024043
:103C3000180100201001002080B500AF254B4FF483
:103C400000625A6105F0AEFC05F0F6FD05F014FEC9
:103C500005F000FE204B1B6801331F4A13601E4B0A
:103C60001B68012B02D0022B09D011E005F0AAFC41
:103C70001A4B00221A70194B00225A7027E005F0E7
:103C8000A1FC164B01221A70144B00225A701EE040
:103C9000124B01221A70114B01225A70104B1B68F3
:103CA0009B78104A12681049096849790A441278C9
:103CB000B3FBF2F102FB01F29B1ADBB2002B03D142
:103CC000064B01225A7101E005F07CFC00BF00BFE9
:103CD00080BD00BF00040140100100201801002039
:103CE00014060020CC0700201C06002080B400AF82
:103CF000044B40225A61044B01229A7000BFBD461A
:103D000080BC7047000401401801002080B500AF5E
:103D10001B4B1B8A9BB21A4A23F001039BB21382EE
:103D2000184B1B780133DAB2164B1A70154B1B78FF
:103D3000072B0AD105F046FC124B00221A70124BD9
:103D40000122DA70FDF756FF0FE00E4B1A780F4B89
:103D50001A700F4B1B681A780C4B1B789A4202D1D1
:103D600004F076FF01E004F0BBFF074B5B79012B09
:103D700004D1054B00225A71FDF730FF00BF80BD12
:103D8000002C014014010020180100201501002022
:103D90001C06002080B500AF094B1B680133084AA0
:103DA0001360FDF709FB03461A46064B1A71044BD4
:103DB0001B681846FEF7ECFDFEF71CFE00BF80BD39
:103DC0000C0100201801002080B500AF05F034FC84
:103DD0004FF080431B8A9BB24FF0804223F00103D7
:103DE0009BB2138205F082FCFDF71CFF00BF80BD73
:103DF00080B400AF024B1B681846BD4680BC7047BC
:103E00000C01002080B400AF024B1846BD4680BCB8
:103E1000704700BF1801002080B400AFBFF34F8F80
:103E200000BFBD4680BC704780B500AF054BDB6866
:103E300003F4E0620349044B1343CB60FFF7ECFF4C
:103E4000FEE700BF00ED00E00400FA0580B500AF1A
:103E5000FEF7F4FB0246224B1A60FEF7F9FB02461E
:103E6000204B1A60FFF724FB02461F4B1A60FFF736
:103E700041FB02461D4B1A60FFF75AFB02461C4BE2
:103E80001A6003F0CDFE02461A4B1A6004F054FD8E
:103E90000246194B1A60184B1A68184B1068516883
:103EA0001860596012891A81134B1B681A78144BD9
:103EB0001A7004F02DFD0246124B1A6004F032FD18
:103EC0000246114B1A600E4B1A78104B1A70104BA9
:103ED00001221A70002000F0A5F900BF80BD00BFCC
:103EE000080800201406002004080020D007002045
:103EF0003C080020D40700201C060020E00700201A
:103F000038070020CC0700200C08002032000020D9
:103F1000FA07002080B584B000AF0346FB71FB793F
:103F2000002B51D00023FB7319E0FB7B284A12F8C9
:103F30003320284B1B789A420ED1FB7B244ADB00AE
:103F400013445B78FA799A4206D1FB7B204ADB0066
:103F500013445B68984737E0FB7B0133FB73FB7BC3
:103F60001B4A12F83330002BDFD1FB79013B092BC0
:103F70002AD801A252F823F0A13F0008C93F000847
:103F8000A73F0008C93F0008AD3F0008C93F00082F
:103F9000C93F0008B93F0008B33F0008BF3F000811
:103FA00000F036F810E000F052F80DE000F06EF886
:103FB0000AE000F0ABF807E000F00EF804E005F0CE
:103FC00081FA00F091F900BF1037BD4680BD00BFF7
:103FD00048CF0008FA07002080B500AF0B4B1B78D4
:103FE00004211846FEF76AFC0346002B04D1012188
:103FF0000420FEF7E5FB03E000210420FEF7E0FBD0
:10400000FEF7A0FC00F070F900BF80BD380700206B
:1040100080B582B000AF00F0A5F80346FB7100F058
:10402000D1F80346BB71FB79002B04D1BB7918464C
:1040300000F0F8F805E0FB79013BDBB2184600F030
:10404000F1F800F051F900BF0837BD4680BD80B5DA
:1040500082B000AF00F086F80346FB7100F0B2F8C2
:104060000346BB71FA79BB799A4203D1002000F074
:10407000D9F805E0FB790133DBB2184600F0D2F83D
:1040800000F032F900BF0837BD4680BD80B582B070
:1040900000AF0023FB7126E0FA791A4913465B0052
:1040A00013440B441A78184B1B789A4218D100F02D
:1040B00059F803461846FA79124913465B0013442F
:1040C0000B4401331B7898420AD1FA790D49134603
:1040D0005B0013440B4402331A780B4B1A700BE04D
:1040E000FB790133FB71FA79064913465B001344EF
:1040F0000B441B78002BCFD100F0F6F800BF083737
:10410000BD4680BD30D10008FA07002080B582B0DE
:1041100000AF0023FB7115E0FB79104A12F8132061
:104120000F4B1B789A420AD1002000F07BF8FB79F4
:104130000A4A5B0013445A78094B1A7008E0FB796D
:104140000133FB71FB79054A12F81330002BE3D1E0
:1041500000F0CAF800BF0837BD4680BD6CD100082A
:10416000FA07002080B483B000AF0023FB7116E093
:10417000FA79124913465B0013440B441A78104B2A
:104180001B789A4208D1FA790C4913465B00134414
:104190000B4401331B780CE0FB790133FB71FA7996
:1041A000064913465B0013440B441B78002BDFD1F8
:1041B000002318460C37BD4680BC70472000002005
:1041C000FA07002080B483B000AF0023FB7116E033
:1041D000FA79124913465B0013440B441A78104BCA
:1041E0001B789A4208D1FA790C4913465B001344B4
:1041F0000B4402331B780CE0FB790133FB71FA7935
:10420000064913465B0013440B441B78002BDFD197
:10421000002318460C37BD4680BC704720000020A4
:10422000FA07002080B485B000AF0346FB7100237D
:10423000FB7317E0FA7B124913465B0013440B44EF
:104240001A78104B1B789A4209D1FA7B0C49134615
:104250005B0013440B440133FA791A700BE0FB7BCB
:104260000133FB73FA7B064913465B0013440B448E
:104270001B78002BDED100BF1437BD4680BC7047D1
:1042800020000020FA07002080B485B000AF03466C
:10429000FB710023FB7316E0FA7B124913465B00A7
:1042A00013440B441B78FA799A4209D1FA7B0D49E1
:1042B00013465B0013440B44013300221A700BE0D9
:1042C000FB7B0133FB73FA7B064913465B00134407
:1042D0000B441B78002BDFD100BF1437BD4680BCD8
:1042E000704700BF2000002080B582B000AF0023DF
:1042F000FB7111E0FB790D4A12F833200C4B1B784F
:104300009A4206D1FB79094ADB0013445B6898475F
:1043100008E0FB790133FB71FB79044A12F8333072
:10432000002BE7D100BF0837BD4680BD88D100080B
:10433000FA07002080B500AF04F0CAFE0023214A2E
:104340000121002004F0CBFF00231F4A012102209D
:1043500004F0C5FF00231D4A0121032004F0BFFF24
:1043600000231B4A0121042004F0B9FF0023194A4D
:104370000121052004F0B3FF0023174A0121062084
:1043800004F0ADFFFFF7EEFE03460233D8B2002380
:10439000124A002104F0A3FF00238F2214210020E1
:1043A00004F07EFF05F09EF80346012B05D10023A3
:1043B00021221321002004F073FF04F069FE00BFE6
:1043C00080BD00BFE0C90008E8C90008F0C90008C6
:1043D000F8C9000800CA00080CCA000814CA00087E
:1043E00090B583B000AF04F073FEB84804F0EEFF60
:1043F000FFF708FD03465B78002B0BD000238022DB
:104400001221002004F04CFF002381221321002000
:1044100004F046FFAE4B1B681B78002B06D100232F
:1044200082221421002004F03BFF2BE0A94B1B68E3
:1044300093F83730032B0CD1A64B1B6893F836301A
:10444000012B06D1002385221421002004F028FF2F
:1044500018E0A04B1B6893F83730022B0CD19D4B12
:104460001B6893F83630012B06D1002384221421D7
:10447000002004F015FF05E0002383221421002012
:1044800004F00EFF1423FB71934B1B780121184697
:10449000FEF714FA0346042B39D801A252F823F090
:1044A000FD440008EB440008D9440008C744000854
:1044B000B5440008F9794B1EFB7100238C220120C2
:1044C00004F0EEFE23E0F9794B1EFB7100238B22F2
:1044D000012004F0E5FE1AE0F9794B1EFB71002380
:1044E0008A22012004F0DCFE11E0F9794B1EFB71F9
:1044F00000238922012004F0D3FE08E0F9794B1E45
:10450000FB7100238822012004F0CAFE00BF734B18
:104510001A68714B1B789B0013441B681B7B002B94
:1045200007D0F9794B1EFB7100238622012004F08D
:10453000B7FE694B1B7804211846FEF7BFF9034606
:10454000012B07D1F9794B1EFB7100238722012033
:1045500004F0A6FE0323BB7101237B718FE25E4B47
:104560001B787A799A4268D17B795D49184604F0C4
:1045700053F900235A4A0021012004F0B0FE594BA0
:104580001B685A7800230221012004F089FE554B54
:104590001B689A7800230321012004F081FE4D4B13
:1045A0001B689B6A50491846FCF792FD0346002B96
:1045B0000ED0484B1B689B6A494A0121184603F0FC
:1045C000DBFF0023464A0721012004F0ABFE10E088
:1045D000464B1A687B799B0013441B689B7B4049C0
:1045E000184604F019F900233D4A0721012004F080
:1045F00099FE3E4B1A687B799B0013441B681B8A0B
:104600003749184604F008F90023354A0B210120E8
:1046100004F088FE354B1A687B799B0013441B68B5
:10462000B3F90C302E49184604F0F6F800232C4A52
:104630001021012004F076FE1EE2284B1A687B79D7
:104640009B0013441B681B78012B40F015827B797B
:104650002349184604F0E0F8B8790023204A0021E5
:1046600004F03DFE214B1A687B799B0013441B68C4
:104670001A78B8790023022104F012FE1B4B1A6845
:104680007B799B0013441B685A78B8790023032177
:1046900004F006FE164B1A687B799B0013441B68D6
:1046A0001B68B3F57A7F25D2114B1A687B799B0082
:1046B00013441B681B680A49184604F0ADF8B87922
:1046C0000023074A072104F02DFE83E044D90008A7
:1046D0000808002014060020380700203C080020AD
:1046E000100800201C0600200000204104080020C3
:1046F000D0070020B04B1A687B799B0013441B68DD
:104700001B6842F20F72934225D8AB4B1A687B7933
:104710009B0013441B681B681846FBF76BFE4FF0A9
:104720000002A64BFCF70AF803460C461846214641
:10473000FCF7D2F90246A24B1A60A14B1B68A14AB2
:104740000121184603F018FFB87900239D4A07217C
:1047500004F0E8FD3EE0984B1A687B799B00134417
:104760001B681B68984A93422ED8934B1A687B7932
:104770009B0013441B681B681846FBF73BFE4FF079
:1047800000028E4BFBF7DAFF03460C461846214623
:10479000FCF7A2F902468A4B1A60894B1B6818463F
:1047A000FCF7E4FC03468749184604F035F8B8796D
:1047B0000023844A062104F0B5FDB87900232E2297
:1047C000072104F06DFD05E0B87900237F4A05213B
:1047D00004F085FD784B1A687B799B0013441B68B5
:1047E0009B887849184604F017F8B8790023754A71
:1047F0000B2104F097FD704B1A687B799B001344E2
:104800001B68B3F90620724B1A80714BB3F9003064
:10481000002B08DA6E4BB3F900309BB25B429BB2BF
:104820001AB26B4B1A806A4BB3F90030B3F57A7F3A
:1048300012DA614B1A687B799B0013441B68B3F949
:1048400006306049184603F0E7FFB87900235D4A57
:10485000102104F067FD5CE05D4BB3F9003042F2DB
:104860000F72934226DC544B1A687B799B001344E9
:104870001B68B3F906301846FBF7CCFD4FF0000279
:104880004E4BFBF75BFF03460C4618462146FCF7F0
:1048900023F902464A4B1A60494B1B68494A0121D9
:1048A000184603F069FEB8790023464A102104F047
:1048B00039FD2EE0404B1A687B799B0013441B683E
:1048C000B3F906301846FBF7A5FD4FF000023B4B4D
:1048D000FBF734FF03460C4618462146FCF7FCF86C
:1048E0000246374B1A60364B1B681846FCF718FC1B
:1048F00003463449184603F08FFFB87900232E226F
:10490000102104F0CDFCB87900232E4A0F2104F0C9
:1049100009FD294B1A687B799B0013441B68B3F986
:104920000630002B03DD00212B2004F075FC14233E
:104930003B71284B1A687B799B0013441B689B7B57
:10494000002B52D17B7901211846FDF7B7FF0346B2
:10495000042B4AD801A252F823F000BFD94900081D
:10496000A7490008954900088349000871490008D3
:1049700039794B1E3B71B87900238C2204F090FCEE
:1049800033E039794B1E3B71B87900238B2204F058
:1049900087FC2AE039794B1E3B71B87900238A22C3
:1049A00004F07EFC21E039794B1E3B71B87900237D
:1049B000892204F075FC18E0D007002000408F40E9
:1049C000F4070020100800209F86010018CA000884
:1049D000F80700203C08002039794B1E3B71B8795C
:1049E0000023882204F05CFC00BF2A4B1A687B7904
:1049F0009B0013441B689B7B002B10D1254B1A682E
:104A00007B799B0013441B681B7B002B07D03979F3
:104A10004B1E3B71B8790023862204F041FC1D4BEC
:104A20001A687B799B0013441B685B7B002B07D0C3
:104A300039794B1E3B71B87900238E2204F030FC8B
:104A4000144B1A687B799B0013441B689B7B002BDB
:104A50000FD17B7904211846FDF730FF0346012B67
:104A600007D139794B1E3B71B8790023872204F0B6
:104A700017FCBB790133BB717B7901337B717B7987
:104A8000062B7FF66CAD04F003FB00BF0C37BD4670
:104A900090BD00BF3C08002090B583B000AF04F08B
:104AA00017FB1423FB713E4B1B7801211846FDF7C1
:104AB00005FF0346042B3AD801A252F823F000BFA9
:104AC0001D4B00080B4B0008F94A0008E74A000894
:104AD000D54A0008F9794B1EFB7100238C22002077
:104AE00004F0DEFB23E0F9794B1EFB7100238B22DF
:104AF000002004F0D5FB1AE0F9794B1EFB7100236E
:104B00008A22002004F0CCFB11E0F9794B1EFB71E6
:104B100000238922002004F0C3FB08E0F9794B1E32
:104B2000FB7100238822002004F0BAFB00BF1D4B5C
:104B30001B681B78002B08D1F9794B1EFB710023F1
:104B40008222002004F0ACFB38E0174B1B6893F87E
:104B50003730032B0ED1144B1B6893F83630012BE2
:104B600008D1F9794B1EFB7100238522002004F047
:104B700097FB23E00C4B1B6893F83730022B15D1C1
:104B8000094B1B6893F83630012B0FD1F9794B1E76
:104B9000FB7100238422002004F082FB0EE000BFA2
:104BA000380700200808002014060020F9794B1E61
:104BB000FB7100238322002004F072FBFFF722F92F
:104BC00003465B78002B0FD0F9794B1EFB71002355
:104BD0008122002004F064FBF9794B1EFB71002355
:104BE0008022002004F05CFBBE4B1A68BE4B1B7891
:104BF0009B0013441B681B7B002B07D0F9794B1ECD
:104C0000FB7100238622002004F04AFBB64B1B7880
:104C100004211846FDF752FE0346012B07D1F9790E
:104C20004B1EFB7100238722002004F039FBAF4BA1
:104C30001A78AD4B1B789A4240F056820023AC4A5A
:104C40000021002004F04BFBA84B1B78A949184613
:104C500003F0E2FD0023A74A0121002004F03FFBFE
:104C6000A54B1B685A7800230321002004F018FB91
:104C7000A14B1B689A7800230421002004F010FB4C
:104C800000239E4A0621002004F029FB9C4B1B6850
:104C90001A7B00230021012004F002FB984B1B68C3
:104CA0005A7B00230121012004F0FAFA0023954ADF
:104CB0000221012004F013FB914B1B689A7B002317
:104CC0000321012004F0ECFA8D4B1B68DA7B0023F2
:104CD0000421012004F0E4FA00238A4A052101207E
:104CE00004F0FDFA864B1B681A7C00230621012084
:104CF00004F0D6FA824B1B685A7C0023072101205E
:104D000004F0CEFA7E4B1B681A780023092101209B
:104D100004F0C6FA7A4B1B685A7800230A21012056
:104D200004F0BEFA0023784A0B21012004F0D7FAE0
:104D3000734B1B689A7800230C21012004F0B0FA11
:104D40006F4B1B68DA7800230D21012004F0A8FACC
:104D500000236D4A0E21012004F0C1FA684B1B6844
:104D60001A7900230F21012004F09AFA644B1B6882
:104D70005A7900231021012004F092FA0023634A9B
:104D80001221012004F0ABFA0023614A0021022025
:104D900004F0A5FA5F4B1B689B68564A062118462B
:104DA00003F0EAFB0023534A0E21022004F0BAFA72
:104DB000584B1B689B684FF000011846FCF79CF9A4
:104DC0000346002B0AD000212B2004F025FA0023F3
:104DD000514A1021022004F082FA05E000234F4AD4
:104DE0001021022004F07BFA00234D4A0021032009
:104DF00004F075FA474B1B689B693E4A062118462A
:104E000003F0BAFB00233B4A0E21032004F08AFA88
:104E1000404B1B689B694FF000011846FCF76CF98A
:104E20000346002B0AD000212B2004F0F5F90023C3
:104E30003C4A1021032004F052FA05E000233A4ACC
:104E40001021032004F04BFA0023384A00210420EB
:104E500004F045FA2F4B1B681B6B1846FCF760F9F2
:104E600003462449184603F0D7FC0023214A0421B5
:104E7000042004F034FA00212D4804F08FFA0023B6
:104E80002C4A0B21042004F02AFA224B1B6893F8C9
:104E90003630012B06D10023274A0F21042004F0CD
:104EA0001EFA05E00023254A0F21042004F017FA1A
:104EB000184B1B6893F83730022B06D10023204A89
:104EC0001121042004F00BFA44E0124B1B6893F804
:104ED0003730032B38D100231A4A1121042004F063
:104EE000FEF937E03C08002038070020320000209F
:104EF0001CCA0008100800201C06002020CA000858
:104F00000808002028CA00082CCA000830CA000877
:104F100034CA00081406002038CA00083CCA000839
:104F200040CA000844CA000848CA00084CCA000821
:104F300050CA000854CA000858CA00085CCA0008D1
:104F400060CA000864CA00080023A34A1121042093
:104F500004F0C5F90023A14A0021052004F0BFF99F
:104F60009F4B1B68DB6A1846FCF7DAF803469D493D
:104F7000184603F051FC00239A4A0421052004F04E
:104F8000AEF900218D2004F047F90023964A0B2149
:104F9000052004F0A4F9924B1B689B6B914A0221F7
:104FA000184603F0E9FA00238E4A0F21052004F089
:104FB00096F900238D4A0021062004F090F9884BD1
:104FC0001B689B6A8A491846FCF782F80346002B47
:104FD0000ED0834B1B689B6A824A0121184603F05E
:104FE000CBFA00237F4A0421062004F078F911E06F
:104FF0007B4B1B689B6A1846FCF792F803461BB272
:105000007849184603F008FC0023764A042106205C
:1050100004F065F90021774804F0C0F90023764ACE
:105020000B21062004F05BF96D4B1B6893F83530BB
:105030006C49184603F0F0FB00236A4A0F21062052
:1050400004F04DF900216D4804F0A8F9644B1B6889
:1050500093F834306349184603F0DEFB00216148C1
:1050600004F09CF9664B1A68664B1B789B0013444E
:105070001B681B7B012B06D10123634A00210720FB
:1050800004F02DF905E000235F4A0021072004F019
:1050900026F95B4B1A685B4B1B789B0013441B681B
:1050A0009B685049184603F093F800234D4A0421A9
:1050B000072004F014F90023544A0B21072004F0C0
:1050C0000EF9FCF721FA0346464A0221184603F07E
:1050D00053FA0023434A0F21072004F000F900216E
:1050E000562004F099F87AE30023494A0121002070
:1050F00004F0F5F8474B1B783A49184603F08CFB4F
:105100000023384A0221002004F0E9F8424B1A68D3
:10511000404B1B789B0013441B681A780023042122
:10512000002004F0BDF83C4B1A683A4B1B789B00FA
:1051300013441B685A7800230521002004F0B0F8BE
:105140002F4B1A68334B1B789B0013441B689B7BC7
:10515000012B0DD12A4B1A682E4B1B789B00134450
:105160001B6803F10F0200230721002004F0B7F8A9
:1051700000232A4A0021012004F0B1F8264B1A68C6
:10518000244B1B789B0013441B685B68154A06215F
:10519000184603F0F1F90023124A0E21012004F011
:1051A000C1F81D4B1A681B4B1B789B0013441B68EE
:1051B0005B684FF000011846FBF79EFF0346002B8B
:1051C00030D000212B2004F027F80023144A1021AE
:1051D000012004F084F82BE068CA00086CCA0008BB
:1051E000140600201008002070CA000874CA0008C5
:1051F0000000204178CA00087CCA000880CA000864
:105200003C0800203807002084CA000888CA00082B
:105210001CCA0008320000200408002034CA00081C
:1052200038CA00080023B54A1021012004F057F8BD
:105230000023B34A0021022004F051F8B14B1A6850
:10524000B14B1B789B0013441B689B68AF4A062137
:10525000184603F091F90023AC4A0E21022004F015
:1052600061F8A84B1A68A84B1B789B0013441B6875
:105270009B684FF000011846FBF73EFF0346002BEA
:105280000AD000212B2003F0C7FF0023A04A1021E1
:10529000022004F024F805E000239E4A1021022099
:1052A00004F01DF800239C4A0021032004F017F8A5
:1052B000944B1A68944B1B789B0013441B68B3F9FA
:1052C0000C309249184603F0A7FA00238F4A0421B4
:1052D000032004F004F80021904804F05FF8002354
:1052E0008F4A0B21032003F0FAFF8E4B1A68864B7E
:1052F0001B789B0013441B68B3F906208A4B1A8065
:10530000894BB3F90030002B0FDA874BB3F900302B
:105310009BB25B429BB21AB2834B1A8000232022BD
:105320000E21032003F0BCFF11E07F4BB3F90030E6
:10533000002B06DD00232B220F21032003F0B0FFFA
:1053400005E0002320220E21032003F0A9FF764B65
:10535000B3F9003042F20F72934215DC714B1A68B8
:10536000694B1B789B0013441B68B3F906306749EF
:10537000184603F051FA0021644804F00FF80021A8
:10538000664804F00BF828E0664B1A685E4B1B7801
:105390009B0013441B68B3F906301846FBF73AF834
:1053A0004FF00002614BFBF7C9F903460C46184663
:1053B0002146FBF791FB02465D4B1A605C4B1B6874
:1053C000524A0121184603F0D7F800214F4803F054
:1053D000E5FF0021574803F0E1FF574B1A684A4B9D
:1053E0001B789B0013441B689B7B002B1BD1002365
:1053F000524A0021042003F072FF424B1A68424BCC
:105400001B789B0013441B681B8A4049184603F015
:1054100003FA00233D4A0421042003F060FF002129
:105420008D2003F0F9FE0023454A0B21042003F0F0
:1054300056FF3C4B1A68344B1B789B0013441B6887
:105440009B883249184603F0E7F900232F4A0F21C1
:10545000042003F044FF00218D2003F0DDFE364BD5
:105460001A68294B1B789B0013441B689B7B002BFD
:105470001BD10023334A0021052003F030FF214BCC
:105480001A68214B1B789B0013441B689B7B1F49A8
:10549000184603F0C1F900231C4A0421052003F03B
:1054A0001EFF0021284803F079FF0023274A0B2123
:1054B000052003F014FF1B4B1A68134B1B789B004D
:1054C00013441B681B68224A934243D8154B1A6841
:1054D0000D4B1B789B0013441B681B680B49184637
:1054E00003F09AF90023094A0F21052003F0F7FE83
:1054F00000210A4803F052FF8CE000BF3CCA0008BC
:1055000040CA0008040800203200002010080020D3
:1055100044CA000848CA00084CCA000850CA00081B
:105520008CCA0008D0070020F807002000408F40F8
:10553000F407002090CA00083C0800206CCA00084C
:1055400094CA000874CA000878CA000898CA0008FB
:105550009F860100A84B1A68A84B1B789B00134438
:105560001B681B68A64A93422AD8A34B1A68A34B10
:105570001B789B0013441B681B681846FAF73AFF18
:105580004FF000029F4BFBF7D9F803460C46184634
:105590002146FBF7A1FA02469B4B1A609A4B1B6807
:1055A0009A4A0121184602F0E7FF0023974A0F218B
:1055B000052003F094FE0021954803F0EFFE29E05A
:1055C0008D4B1A688D4B1B789B0013441B681B681E
:1055D0001846FAF70FFF86A3D3E90023FBF7AEF8CE
:1055E00003460C4618462146FBF776FA0246864BE0
:1055F0001A60854B1B68854A0121184602F0BCFFE2
:105600000023824A0F21052003F069FE0021814812
:1056100003F0C4FE804B1A68784B1B789B00134440
:105620001B689B7B002B31D100237C4A0021062084
:1056300003F055FE714B1B7802211846FDF73EF929
:105640000346012B06D10023754A0421062003F0EE
:1056500046FE05E00023734A0421062003F03FFEC6
:10566000664B1B7803211846FDF728F90346012BEA
:1056700006D100236C4A0721062003F030FE05E026
:1056800000236A4A0721062003F029FE624B1A68AC
:105690005A4B1B789B0013441B689B7B002B3ED10D
:1056A0000023634A0B21062003F019FE534B1B789D
:1056B00001211846FDF702F90346042B2FD801A259
:1056C00052F823F01157000803570008F556000858
:1056D000E7560008D95600080023564A0F21062035
:1056E00003F0FDFD1BE00023534A0F21062003F0C9
:1056F000F6FD14E00023514A0F21062003F0EFFDD0
:105700000DE000234E4A0F21062003F0E8FD06E0DD
:1057100000234C4A0F21062003F0E1FD00BF3E4B61
:105720001A68364B1B789B0013441B681B7B012BAC
:1057300006D10123444A0021072003F0D0FD05E0F3
:105740000023414A0021072003F0C9FD324B1A68AB
:105750002A4B1B789B0013441B689B682B491846F7
:1057600002F036FD0023294A0421072003F0B7FD8B
:10577000294B1A68214B1B789B0013441B685B7BE9
:10578000002B06D00123314A0B21072003F0A7FD8F
:1057900005E000232D4A0B21072003F0A0FD1E4B3E
:1057A0001A68164B1B789B0013441B689B7B002BCD
:1057B00015D1124B1B7804211846FDF77FF80346DC
:1057C000012B06D10123224A0F21072003F087FD78
:1057D00005E000231E4A0F21072003F080FD03F09F
:1057E00057FC00BF0C37BD4690BD00BFAFF3008033
:1057F0000000000080842E41D007002032000020ED
:105800003F420F0000408F40F407002010080020A6
:1058100090CA00089CCA00083C08002054CA00082E
:10582000A0CA0008A4CA0008A8CA0008ACCA000898
:1058300088CA0008B0CA0008B4CA0008B8CA00087C
:10584000BCCA0008C0CA000884CA0008C4CA00084C
:10585000C8CA000880B500AF03F03AFC0023254A0F
:105860000121002003F03BFD0023234A08210020F2
:1058700003F035FD214B1B782149184602F0CCFF7F
:1058800000231F4A0921002003F029FD1D4B1A683F
:105890001A4B1B789B0013441B681A7800230B21BA
:1058A000002003F0FDFC174B1A68144B1B789B007B
:1058B00013441B685A7800230C21002003F0F0FCED
:1058C0000023114A0121022003F009FD00230F4AA1
:1058D0000121032003F003FDFEF744FC03460233DD
:1058E000D8B200230A4A002103F0F9FC03F0D0FBF0
:1058F00000BF80BDCCCA00081CCA000832000020CE
:105900001008002004080020D4CA0008DCCA0008DF
:1059100014CA000880B500AF03F0DAFB0023294A5F
:105920000121002003F0DBFC0023274A0F21002087
:1059300003F0D5FC254B1B782549184602F06CFF77
:105940000023234A1021002003F0C9FC214B1A68D0
:105950001E4B1B789B0013441B681A7800231221EE
:10596000002003F09DFC1B4B1A68184B1B789B0012
:1059700013441B685A7800231321002003F090FC85
:105980000021154803F00AFD104B1A78134B1B78C1
:105990009A4206D10023124A0121032003F09FFC02
:1059A00005E000230F4A0121032003F098FC0023A7
:1059B0000D4A0121042003F092FC03F069FB00BFB3
:1059C00080BD00BFE4CA00081CCA000832000020E5
:1059D0001008002004080020F4CA0008380700203E
:1059E000F8CA00080CCB000818CB000880B500AF3F
:1059F000124B1A78124B1B789A421DD0114B1A6821
:105A00000E4B1B789B0013441B6800221A700C4B32
:105A10001A780A4B1A700C4B00221A70074B1B782D
:105A20001A460A4B002199540420FEF72DFC084B1E
:105A300002221A70FEF758FC00BF80BD3200002021
:105A4000380700203C0800202101002030080020F9
:105A5000FA07002080B582B000AF484B484A106872
:105A6000186092889A8003F033FB0023454A012195
:105A7000002003F034FC0023434A0F21002003F0F0
:105A80002EFC424B1B784249184602F0C5FE00230B
:105A90003F4A1021002003F022FC3E4B1A683B4B8A
:105AA0001B789B0013441B681A78002312210020E6
:105AB00003F0F6FB374B1A68344B1B789B001344FA
:105AC0001B685A7800231321002003F0E9FB002112
:105AD000314803F063FC02F011F90223FB7100234B
